{
  "contractName": "Node",
  "abi": [
    {
      "inputs": [],
      "stateMutability": "nonpayable",
      "type": "constructor"
    },
    {
      "inputs": [],
      "name": "myState",
      "outputs": [
        {
          "internalType": "string",
          "name": "",
          "type": "string"
        }
      ],
      "stateMutability": "view",
      "type": "function"
    },
    {
      "inputs": [
        {
          "internalType": "string",
          "name": "tempUserName",
          "type": "string"
        }
      ],
      "name": "isUserNameExist",
      "outputs": [
        {
          "internalType": "bool",
          "name": "",
          "type": "bool"
        }
      ],
      "stateMutability": "view",
      "type": "function"
    },
    {
      "inputs": [],
      "name": "isRegistered",
      "outputs": [
        {
          "internalType": "bool",
          "name": "",
          "type": "bool"
        }
      ],
      "stateMutability": "view",
      "type": "function"
    },
    {
      "inputs": [
        {
          "internalType": "string",
          "name": "name",
          "type": "string"
        }
      ],
      "name": "registerToPublicContract",
      "outputs": [],
      "stateMutability": "nonpayable",
      "type": "function"
    },
    {
      "inputs": [
        {
          "internalType": "address",
          "name": "publicAddress",
          "type": "address"
        }
      ],
      "name": "getContractAddressOfPublicAddress",
      "outputs": [
        {
          "internalType": "address",
          "name": "",
          "type": "address"
        }
      ],
      "stateMutability": "view",
      "type": "function"
    },
    {
      "inputs": [],
      "name": "getUserName",
      "outputs": [
        {
          "internalType": "string",
          "name": "",
          "type": "string"
        }
      ],
      "stateMutability": "view",
      "type": "function"
    },
    {
      "inputs": [],
      "name": "getOtp",
      "outputs": [
        {
          "internalType": "string",
          "name": "",
          "type": "string"
        }
      ],
      "stateMutability": "view",
      "type": "function"
    },
    {
      "inputs": [
        {
          "internalType": "string",
          "name": "tempOtp",
          "type": "string"
        }
      ],
      "name": "compareOtpHash",
      "outputs": [
        {
          "internalType": "bool",
          "name": "",
          "type": "bool"
        }
      ],
      "stateMutability": "view",
      "type": "function"
    },
    {
      "inputs": [
        {
          "internalType": "string",
          "name": "otp",
          "type": "string"
        }
      ],
      "name": "setOtpHash",
      "outputs": [],
      "stateMutability": "nonpayable",
      "type": "function"
    },
    {
      "inputs": [
        {
          "internalType": "string",
          "name": "vault",
          "type": "string"
        }
      ],
      "name": "setEncryptedVault",
      "outputs": [],
      "stateMutability": "nonpayable",
      "type": "function"
    },
    {
      "inputs": [],
      "name": "checkRequestsForBeAHolder",
      "outputs": [
        {
          "internalType": "address[]",
          "name": "",
          "type": "address[]"
        }
      ],
      "stateMutability": "view",
      "type": "function"
    },
    {
      "inputs": [
        {
          "internalType": "address",
          "name": "secretOwner",
          "type": "address"
        }
      ],
      "name": "acceptInvitation",
      "outputs": [],
      "stateMutability": "nonpayable",
      "type": "function"
    },
    {
      "inputs": [
        {
          "internalType": "address",
          "name": "secretOwner",
          "type": "address"
        }
      ],
      "name": "rejectInvitation",
      "outputs": [],
      "stateMutability": "nonpayable",
      "type": "function"
    },
    {
      "inputs": [
        {
          "internalType": "address",
          "name": "ownerAddress",
          "type": "address"
        },
        {
          "internalType": "string",
          "name": "sharedString",
          "type": "string"
        }
      ],
      "name": "takeTheSecretFromTheOwner",
      "outputs": [],
      "stateMutability": "nonpayable",
      "type": "function"
    },
    {
      "inputs": [],
      "name": "checkRequestsForShare",
      "outputs": [
        {
          "internalType": "address[]",
          "name": "",
          "type": "address[]"
        }
      ],
      "stateMutability": "view",
      "type": "function"
    },
    {
      "inputs": [
        {
          "internalType": "address",
          "name": "secretOwnerAddress",
          "type": "address"
        }
      ],
      "name": "releaseSecret",
      "outputs": [],
      "stateMutability": "nonpayable",
      "type": "function"
    },
    {
      "inputs": [],
      "name": "checkAcceptance",
      "outputs": [
        {
          "internalType": "bool",
          "name": "",
          "type": "bool"
        }
      ],
      "stateMutability": "nonpayable",
      "type": "function"
    },
    {
      "inputs": [],
      "name": "getMyState",
      "outputs": [
        {
          "internalType": "string",
          "name": "",
          "type": "string"
        }
      ],
      "stateMutability": "view",
      "type": "function"
    },
    {
      "inputs": [],
      "name": "refreshState",
      "outputs": [],
      "stateMutability": "nonpayable",
      "type": "function"
    },
    {
      "inputs": [
        {
          "internalType": "address payable",
          "name": "shareHolder",
          "type": "address"
        }
      ],
      "name": "addTemporaryShareHolders",
      "outputs": [],
      "stateMutability": "nonpayable",
      "type": "function"
    },
    {
      "inputs": [
        {
          "internalType": "string[]",
          "name": "myShares",
          "type": "string[]"
        }
      ],
      "name": "addMyShares",
      "outputs": [],
      "stateMutability": "nonpayable",
      "type": "function"
    },
    {
      "inputs": [],
      "name": "getMyShares",
      "outputs": [
        {
          "internalType": "string[]",
          "name": "",
          "type": "string[]"
        }
      ],
      "stateMutability": "view",
      "type": "function"
    },
    {
      "inputs": [],
      "name": "getRequestedShareHolders",
      "outputs": [
        {
          "internalType": "address[]",
          "name": "",
          "type": "address[]"
        }
      ],
      "stateMutability": "view",
      "type": "function"
    },
    {
      "inputs": [],
      "name": "getShareHolders",
      "outputs": [
        {
          "internalType": "address[]",
          "name": "",
          "type": "address[]"
        }
      ],
      "stateMutability": "view",
      "type": "function"
    },
    {
      "inputs": [],
      "name": "getRejectedShareHolders",
      "outputs": [
        {
          "internalType": "address[]",
          "name": "",
          "type": "address[]"
        }
      ],
      "stateMutability": "view",
      "type": "function"
    },
    {
      "inputs": [
        {
          "internalType": "uint256",
          "name": "index",
          "type": "uint256"
        }
      ],
      "name": "remove",
      "outputs": [],
      "stateMutability": "nonpayable",
      "type": "function"
    },
    {
      "inputs": [
        {
          "internalType": "address payable",
          "name": "shareHolder",
          "type": "address"
        }
      ],
      "name": "removeShareHolders",
      "outputs": [],
      "stateMutability": "nonpayable",
      "type": "function"
    },
    {
      "inputs": [],
      "name": "makingHolderRequests",
      "outputs": [],
      "stateMutability": "nonpayable",
      "type": "function"
    },
    {
      "inputs": [],
      "name": "refreshHolderLists",
      "outputs": [],
      "stateMutability": "nonpayable",
      "type": "function"
    },
    {
      "inputs": [
        {
          "internalType": "string",
          "name": "otp",
          "type": "string"
        },
        {
          "internalType": "string",
          "name": "vault",
          "type": "string"
        }
      ],
      "name": "distribute",
      "outputs": [],
      "stateMutability": "nonpayable",
      "type": "function"
    },
    {
      "inputs": [
        {
          "internalType": "string",
          "name": "name",
          "type": "string"
        }
      ],
      "name": "requestSharesFromHolders",
      "outputs": [],
      "stateMutability": "nonpayable",
      "type": "function"
    },
    {
      "inputs": [
        {
          "internalType": "string",
          "name": "share",
          "type": "string"
        }
      ],
      "name": "saveToRegeneratedShares",
      "outputs": [],
      "stateMutability": "nonpayable",
      "type": "function"
    },
    {
      "inputs": [],
      "name": "regenerate",
      "outputs": [
        {
          "internalType": "string[]",
          "name": "",
          "type": "string[]"
        }
      ],
      "stateMutability": "view",
      "type": "function"
    }
  ],
  "bytecode": "0x60e06040523480156200001157600080fd5b503373ffffffffffffffffffffffffffffffffffffffff1660808173ffffffffffffffffffffffffffffffffffffffff168152505073d9145cce52d386f254917e481eb44e9943f3913873ffffffffffffffffffffffffffffffffffffffff1660c08173ffffffffffffffffffffffffffffffffffffffff16815250503073ffffffffffffffffffffffffffffffffffffffff1660a08173ffffffffffffffffffffffffffffffffffffffff16815250506040518060400160405280600c81526020017f4e4f44455f4352454154454400000000000000000000000000000000000000008152506009908162000108919062000389565b5062000470565b600081519050919050565b7f4e487b7100000000000000000000000000000000000000000000000000000000600052604160045260246000fd5b7f4e487b7100000000000000000000000000000000000000000000000000000000600052602260045260246000fd5b600060028204905060018216806200019157607f821691505b602082108103620001a757620001a662000149565b5b50919050565b60008190508160005260206000209050919050565b60006020601f8301049050919050565b600082821b905092915050565b600060088302620002117fffffffffffffffffffffffffffffffffffffffffffffffffffffffffffffffff82620001d2565b6200021d8683620001d2565b95508019841693508086168417925050509392505050565b6000819050919050565b6000819050919050565b60006200026a620002646200025e8462000235565b6200023f565b62000235565b9050919050565b6000819050919050565b620002868362000249565b6200029e620002958262000271565b848454620001df565b825550505050565b600090565b620002b5620002a6565b620002c28184846200027b565b505050565b5b81811015620002ea57620002de600082620002ab565b600181019050620002c8565b5050565b601f82111562000339576200030381620001ad565b6200030e84620001c2565b810160208510156200031e578190505b620003366200032d85620001c2565b830182620002c7565b50505b505050565b600082821c905092915050565b60006200035e600019846008026200033e565b1980831691505092915050565b60006200037983836200034b565b9150826002028217905092915050565b62000394826200010f565b67ffffffffffffffff811115620003b057620003af6200011a565b5b620003bc825462000178565b620003c9828285620002ee565b600060209050601f831160018114620004015760008415620003ec578287015190505b620003f885826200036b565b86555062000468565b601f1984166200041186620001ad565b60005b828110156200043b5784890151825560018201915060208501945060208101905062000414565b868310156200045b578489015162000457601f8916826200034b565b8355505b6001600288020188555050505b505050505050565b60805160a05160c051614163620005c66000396000818161064f015281816107d6015281816108a001528181610cb201528181610e2901528181610eee015281816116f10152818161194b01528181611a9001528181611c6b0152818161217e01528181612487015281816125a601526129b1015260006126040152600081816105bf01528181610746015281816108120152818161094301528181610aaa01528181610d5201528181610e6501528181610f2a015281816110fd0152818161140a0152818161158c0152818161172e015281816118bd0152818161198701528181611a0001528181611b3501528181611bdd01528181611ca701528181611d2001528181611e3e01528181611f79015281816121ba015281816122e601528181612518015281816125e30152818161270701528181612844015281816129ed01528181612abe0152612bda01526141636000f3fe608060405234801561001057600080fd5b50600436106101fa5760003560e01c8063770584181161011a578063b9657d13116100ad578063d65ec8551161007c578063d65ec8551461054f578063d849e94f1461056b578063dab0177e14610575578063dbe4418f1461057f578063ecd630431461059d576101fa565b8063b9657d13146104df578063c0697965146104fb578063c0befa5314610517578063c692f73814610533576101fa565b8063983080e5116100e9578063983080e514610459578063a0cd9ce814610489578063aa8f3075146104a5578063b9020283146104c1576101fa565b806377058418146103e55780638477d9f3146104015780638bf1799f1461041f5780639018c8181461043d576101fa565b806320a2f735116101925780634a9ae94a116101615780634a9ae94a146103735780634cc822151461038f57806350e78191146103ab57806358ce3740146103c7576101fa565b806320a2f7351461030f578063223668441461032d57806322cc81551461034b5780633e83fe3614610355576101fa565b80630f64dd1b116101ce5780630f64dd1b1461028757806312958f1c146102b757806317377f68146102d55780631e0806c4146102f3576101fa565b806252c632146101ff578063026412c61461021d578063042c1c581461024d5780630d2baaa114610269575b600080fd5b6102076105bb565b6040516102149190612e5a565b60405180910390f35b61023760048036038101906102329190612fd6565b6106f6565b604051610244919061303a565b60405180910390f35b61026760048036038101906102629190612fd6565b61072f565b005b610271610742565b60405161027e9190612e5a565b60405180910390f35b6102a1600480360381019061029c9190612fd6565b61089c565b6040516102ae919061303a565b60405180910390f35b6102bf61093f565b6040516102cc91906130d4565b60405180910390f35b6102dd610a5f565b6040516102ea9190613202565b60405180910390f35b61030d60048036038101906103089190612fd6565b610c0d565b005b610317610c20565b6040516103249190612e5a565b60405180910390f35b610335610cae565b604051610342919061303a565b60405180910390f35b610353610d50565b005b61035d6110f9565b60405161036a9190613202565b60405180910390f35b61038d60048036038101906103889190613250565b611260565b005b6103a960048036038101906103a491906132e2565b611314565b005b6103c560048036038101906103c0919061334d565b611408565b005b6103cf611588565b6040516103dc91906130d4565b60405180910390f35b6103ff60048036038101906103fa9190612fd6565b6116a8565b005b61040961179f565b6040516104169190612e5a565b60405180910390f35b61042761182d565b60405161043491906130d4565b60405180910390f35b6104576004803603810190610452919061337a565b6118bb565b005b610473600480360381019061046e919061337a565b6119fc565b60405161048091906133b6565b60405180910390f35b6104a3600480360381019061049e91906134b7565b611b33565b005b6104bf60048036038101906104ba919061337a565b611bdb565b005b6104c9611d1c565b6040516104d691906130d4565b60405180910390f35b6104f960048036038101906104f4919061334d565b611e3c565b005b61051560048036038101906105109190613500565b611f77565b005b610531600480360381019061052c919061337a565b6122e4565b005b61054d60048036038101906105489190612fd6565b612516565b005b61056960048036038101906105649190612fd6565b612686565b005b610573612705565b005b61057d612842565b005b610587612a73565b6040516105949190612e5a565b60405180910390f35b6105a5612bd6565b6040516105b2919061303a565b60405180910390f35b60607f000000000000000000000000000000000000000000000000000000000000000073ffffffffffffffffffffffffffffffffffffffff163373ffffffffffffffffffffffffffffffffffffffff161461064b576040517f08c379a0000000000000000000000000000000000000000000000000000000008152600401610642906135c4565b60405180910390fd5b60007f000000000000000000000000000000000000000000000000000000000000000073ffffffffffffffffffffffffffffffffffffffff1663c588234460076040518263ffffffff1660e01b81526004016106a791906136d0565b600060405180830381865afa1580156106c4573d6000803e3d6000fd5b505050506040513d6000823e3d601f19601f820116820180604052508101906106ed91906137ca565b90508091505090565b6000600a6040516107079190613916565b6040518091039020828051906020012003610725576001905061072a565b600090505b919050565b80600b908161073e9190613ad9565b5050565b60607f000000000000000000000000000000000000000000000000000000000000000073ffffffffffffffffffffffffffffffffffffffff163373ffffffffffffffffffffffffffffffffffffffff16146107d2576040517f08c379a00000000000000000000000000000000000000000000000000000000081526004016107c9906135c4565b60405180910390fd5b60007f000000000000000000000000000000000000000000000000000000000000000073ffffffffffffffffffffffffffffffffffffffff166399f8b09f7f00000000000000000000000000000000000000000000000000000000000000006040518263ffffffff1660e01b815260040161084d91906133b6565b600060405180830381865afa15801561086a573d6000803e3d6000fd5b505050506040513d6000823e3d601f19601f8201168201806040525081019061089391906137ca565b90508091505090565b60007f000000000000000000000000000000000000000000000000000000000000000073ffffffffffffffffffffffffffffffffffffffff16630d85d839836040518263ffffffff1660e01b81526004016108f791906130d4565b602060405180830381865afa158015610914573d6000803e3d6000fd5b505050506040513d601f19601f820116820180604052508101906109389190613bd7565b9050919050565b60607f000000000000000000000000000000000000000000000000000000000000000073ffffffffffffffffffffffffffffffffffffffff163373ffffffffffffffffffffffffffffffffffffffff16146109cf576040517f08c379a00000000000000000000000000000000000000000000000000000000081526004016109c6906135c4565b60405180910390fd5b600080546109dc90613842565b80601f0160208091040260200160405190810160405280929190818152602001828054610a0890613842565b8015610a555780601f10610a2a57610100808354040283529160200191610a55565b820191906000526020600020905b815481529060010190602001808311610a3857829003601f168201915b5050505050905090565b6060610a69610cae565b610aa8576040517f08c379a0000000000000000000000000000000000000000000000000000000008152600401610a9f90613c76565b60405180910390fd5b7f000000000000000000000000000000000000000000000000000000000000000073ffffffffffffffffffffffffffffffffffffffff163373ffffffffffffffffffffffffffffffffffffffff1614610b36576040517f08c379a0000000000000000000000000000000000000000000000000000000008152600401610b2d906135c4565b60405180910390fd5b6008805480602002602001604051908101604052809291908181526020016000905b82821015610c04578382906000526020600020018054610b7790613842565b80601f0160208091040260200160405190810160405280929190818152602001828054610ba390613842565b8015610bf05780601f10610bc557610100808354040283529160200191610bf0565b820191906000526020600020905b815481529060010190602001808311610bd357829003601f168201915b505050505081526020019060010190610b58565b50505050905090565b80600a9081610c1c9190613ad9565b5050565b60606003805480602002602001604051908101604052809291908181526020018280548015610ca457602002820191906000526020600020905b8160009054906101000a900473ffffffffffffffffffffffffffffffffffffffff1673ffffffffffffffffffffffffffffffffffffffff1681526020019060010190808311610c5a575b5050505050905090565b60007f000000000000000000000000000000000000000000000000000000000000000073ffffffffffffffffffffffffffffffffffffffff16630d85d83960006040518263ffffffff1660e01b8152600401610d0a9190613d1a565b602060405180830381865afa158015610d27573d6000803e3d6000fd5b505050506040513d601f19601f82011682018060405250810190610d4b9190613bd7565b905090565b7f000000000000000000000000000000000000000000000000000000000000000073ffffffffffffffffffffffffffffffffffffffff163373ffffffffffffffffffffffffffffffffffffffff1614610dde576040517f08c379a0000000000000000000000000000000000000000000000000000000008152600401610dd5906135c4565b60405180910390fd5b610de6610cae565b610e25576040517f08c379a0000000000000000000000000000000000000000000000000000000008152600401610e1c90613c76565b60405180910390fd5b60007f000000000000000000000000000000000000000000000000000000000000000073ffffffffffffffffffffffffffffffffffffffff1663d71e80e37f00000000000000000000000000000000000000000000000000000000000000006040518263ffffffff1660e01b8152600401610ea091906133b6565b6000604051808303816000875af1158015610ebf573d6000803e3d6000fd5b505050506040513d6000823e3d601f19601f82011682018060405250810190610ee891906137ca565b905060007f000000000000000000000000000000000000000000000000000000000000000073ffffffffffffffffffffffffffffffffffffffff16637568708f7f00000000000000000000000000000000000000000000000000000000000000006040518263ffffffff1660e01b8152600401610f6591906133b6565b6000604051808303816000875af1158015610f84573d6000803e3d6000fd5b505050506040513d6000823e3d601f19601f82011682018060405250810190610fad91906137ca565b905060005b8251811015611051576000838281518110610fd057610fcf613d3c565b5b602002602001015190506002819080600181540180825580915050600190039060005260206000200160009091909190916101000a81548173ffffffffffffffffffffffffffffffffffffffff021916908373ffffffffffffffffffffffffffffffffffffffff16021790555050808061104990613d9a565b915050610fb2565b5060005b81518110156110f457600082828151811061107357611072613d3c565b5b602002602001015190506003819080600181540180825580915050600190039060005260206000200160009091909190916101000a81548173ffffffffffffffffffffffffffffffffffffffff021916908373ffffffffffffffffffffffffffffffffffffffff1602179055505080806110ec90613d9a565b915050611055565b505050565b60607f000000000000000000000000000000000000000000000000000000000000000073ffffffffffffffffffffffffffffffffffffffff163373ffffffffffffffffffffffffffffffffffffffff1614611189576040517f08c379a0000000000000000000000000000000000000000000000000000000008152600401611180906135c4565b60405180910390fd5b6004805480602002602001604051908101604052809291908181526020016000905b828210156112575783829060005260206000200180546111ca90613842565b80601f01602080910402602001604051908101604052809291908181526020018280546111f690613842565b80156112435780601f1061121857610100808354040283529160200191611243565b820191906000526020600020905b81548152906001019060200180831161122657829003601f168201915b5050505050815260200190600101906111ab565b50505050905090565b6007829080600181540180825580915050600190039060005260206000200160009091909190916101000a81548173ffffffffffffffffffffffffffffffffffffffff021916908373ffffffffffffffffffffffffffffffffffffffff16021790555080600660008473ffffffffffffffffffffffffffffffffffffffff1673ffffffffffffffffffffffffffffffffffffffff168152602001908152602001600020908161130f9190613ad9565b505050565b60018080805490506113269190613de2565b8154811061133757611336613d3c565b5b9060005260206000200160009054906101000a900473ffffffffffffffffffffffffffffffffffffffff166001828154811061137657611375613d3c565b5b9060005260206000200160006101000a81548173ffffffffffffffffffffffffffffffffffffffff021916908373ffffffffffffffffffffffffffffffffffffffff16021790555060018054806113d0576113cf613e16565b5b6001900381819060005260206000200160006101000a81549073ffffffffffffffffffffffffffffffffffffffff0219169055905550565b7f000000000000000000000000000000000000000000000000000000000000000073ffffffffffffffffffffffffffffffffffffffff163373ffffffffffffffffffffffffffffffffffffffff1614611496576040517f08c379a000000000000000000000000000000000000000000000000000000000815260040161148d906135c4565b60405180910390fd5b61149e610cae565b6114dd576040517f08c379a00000000000000000000000000000000000000000000000000000000081526004016114d490613c76565b60405180910390fd5b6000805b60018054905081101561157a578273ffffffffffffffffffffffffffffffffffffffff166001828154811061151957611518613d3c565b5b9060005260206000200160009054906101000a900473ffffffffffffffffffffffffffffffffffffffff1673ffffffffffffffffffffffffffffffffffffffff16036115675780915061157a565b808061157290613d9a565b9150506114e1565b5061158481611314565b5050565b60607f000000000000000000000000000000000000000000000000000000000000000073ffffffffffffffffffffffffffffffffffffffff163373ffffffffffffffffffffffffffffffffffffffff1614611618576040517f08c379a000000000000000000000000000000000000000000000000000000000815260040161160f906135c4565b60405180910390fd5b6009805461162590613842565b80601f016020809104026020016040519081016040528092919081815260200182805461165190613842565b801561169e5780601f106116735761010080835404028352916020019161169e565b820191906000526020600020905b81548152906001019060200180831161168157829003601f168201915b5050505050905090565b6116b0610cae565b6116ef576040517f08c379a00000000000000000000000000000000000000000000000000000000081526004016116e690613c76565b60405180910390fd5b7f000000000000000000000000000000000000000000000000000000000000000073ffffffffffffffffffffffffffffffffffffffff1663e7618a0a827f00000000000000000000000000000000000000000000000000000000000000006040518363ffffffff1660e01b815260040161176a929190613e45565b600060405180830381600087803b15801561178457600080fd5b505af1158015611798573d6000803e3d6000fd5b5050505050565b6060600280548060200260200160405190810160405280929190818152602001828054801561182357602002820191906000526020600020905b8160009054906101000a900473ffffffffffffffffffffffffffffffffffffffff1673ffffffffffffffffffffffffffffffffffffffff16815260200190600101908083116117d9575b5050505050905090565b6009805461183a90613842565b80601f016020809104026020016040519081016040528092919081815260200182805461186690613842565b80156118b35780601f10611888576101008083540402835291602001916118b3565b820191906000526020600020905b81548152906001019060200180831161189657829003601f168201915b505050505081565b7f000000000000000000000000000000000000000000000000000000000000000073ffffffffffffffffffffffffffffffffffffffff163373ffffffffffffffffffffffffffffffffffffffff1614611949576040517f08c379a0000000000000000000000000000000000000000000000000000000008152600401611940906135c4565b60405180910390fd5b7f000000000000000000000000000000000000000000000000000000000000000073ffffffffffffffffffffffffffffffffffffffff1663bc9d62717f00000000000000000000000000000000000000000000000000000000000000008360016040518463ffffffff1660e01b81526004016119c793929190613e75565b600060405180830381600087803b1580156119e157600080fd5b505af11580156119f5573d6000803e3d6000fd5b5050505050565b60007f000000000000000000000000000000000000000000000000000000000000000073ffffffffffffffffffffffffffffffffffffffff163373ffffffffffffffffffffffffffffffffffffffff1614611a8c576040517f08c379a0000000000000000000000000000000000000000000000000000000008152600401611a83906135c4565b60405180910390fd5b60007f000000000000000000000000000000000000000000000000000000000000000073ffffffffffffffffffffffffffffffffffffffff1663a5311bcf846040518263ffffffff1660e01b8152600401611ae791906133b6565b602060405180830381865afa158015611b04573d6000803e3d6000fd5b505050506040513d601f19601f82011682018060405250810190611b289190613eac565b905080915050919050565b7f000000000000000000000000000000000000000000000000000000000000000073ffffffffffffffffffffffffffffffffffffffff163373ffffffffffffffffffffffffffffffffffffffff1614611bc1576040517f08c379a0000000000000000000000000000000000000000000000000000000008152600401611bb8906135c4565b60405180910390fd5b8060049080519060200190611bd7929190612c90565b5050565b7f000000000000000000000000000000000000000000000000000000000000000073ffffffffffffffffffffffffffffffffffffffff163373ffffffffffffffffffffffffffffffffffffffff1614611c69576040517f08c379a0000000000000000000000000000000000000000000000000000000008152600401611c60906135c4565b60405180910390fd5b7f000000000000000000000000000000000000000000000000000000000000000073ffffffffffffffffffffffffffffffffffffffff1663bc9d62717f00000000000000000000000000000000000000000000000000000000000000008360006040518463ffffffff1660e01b8152600401611ce793929190613e75565b600060405180830381600087803b158015611d0157600080fd5b505af1158015611d15573d6000803e3d6000fd5b5050505050565b60607f000000000000000000000000000000000000000000000000000000000000000073ffffffffffffffffffffffffffffffffffffffff163373ffffffffffffffffffffffffffffffffffffffff1614611dac576040517f08c379a0000000000000000000000000000000000000000000000000000000008152600401611da3906135c4565b60405180910390fd5b600a8054611db990613842565b80601f0160208091040260200160405190810160405280929190818152602001828054611de590613842565b8015611e325780601f10611e0757610100808354040283529160200191611e32565b820191906000526020600020905b815481529060010190602001808311611e1557829003601f168201915b5050505050905090565b7f000000000000000000000000000000000000000000000000000000000000000073ffffffffffffffffffffffffffffffffffffffff163373ffffffffffffffffffffffffffffffffffffffff1614611eca576040517f08c379a0000000000000000000000000000000000000000000000000000000008152600401611ec1906135c4565b60405180910390fd5b611ed2610cae565b611f11576040517f08c379a0000000000000000000000000000000000000000000000000000000008152600401611f0890613c76565b60405180910390fd5b6001819080600181540180825580915050600190039060005260206000200160009091909190916101000a81548173ffffffffffffffffffffffffffffffffffffffff021916908373ffffffffffffffffffffffffffffffffffffffff16021790555050565b7f000000000000000000000000000000000000000000000000000000000000000073ffffffffffffffffffffffffffffffffffffffff163373ffffffffffffffffffffffffffffffffffffffff1614612005576040517f08c379a0000000000000000000000000000000000000000000000000000000008152600401611ffc906135c4565b60405180910390fd5b61200d610cae565b61204c576040517f08c379a000000000000000000000000000000000000000000000000000000000815260040161204390613c76565b60405180910390fd5b61205582610c0d565b61205e8161072f565b612066610d50565b60028054905060048054905011156120b3576040517f08c379a00000000000000000000000000000000000000000000000000000000081526004016120aa90613f25565b60405180910390fd5b6002805490506004805490501161229b5760005b60048054905081101561229957600481815481106120e8576120e7613d3c565b5b90600052602060002001600560006002848154811061210a57612109613d3c565b5b9060005260206000200160009054906101000a900473ffffffffffffffffffffffffffffffffffffffff1673ffffffffffffffffffffffffffffffffffffffff1673ffffffffffffffffffffffffffffffffffffffff168152602001908152602001600020908161217b9190613f70565b507f000000000000000000000000000000000000000000000000000000000000000073ffffffffffffffffffffffffffffffffffffffff1663cc2f22f17f0000000000000000000000000000000000000000000000000000000000000000600284815481106121ed576121ec613d3c565b5b9060005260206000200160009054906101000a900473ffffffffffffffffffffffffffffffffffffffff166004858154811061222c5761222b613d3c565b5b906000526020600020016040518463ffffffff1660e01b815260040161225493929190614058565b600060405180830381600087803b15801561226e57600080fd5b505af1158015612282573d6000803e3d6000fd5b50505050808061229190613d9a565b9150506120c7565b505b6040518060400160405280601281526020017f5348415245535f44495354524942555445440000000000000000000000000000815250600990816122df9190613ad9565b505050565b7f000000000000000000000000000000000000000000000000000000000000000073ffffffffffffffffffffffffffffffffffffffff163373ffffffffffffffffffffffffffffffffffffffff1614612372576040517f08c379a0000000000000000000000000000000000000000000000000000000008152600401612369906135c4565b60405180910390fd5b61237a610cae565b6123b9576040517f08c379a00000000000000000000000000000000000000000000000000000000081526004016123b090613c76565b60405180910390fd5b6000600660008373ffffffffffffffffffffffffffffffffffffffff1673ffffffffffffffffffffffffffffffffffffffff168152602001908152602001600020805461240590613842565b80601f016020809104026020016040519081016040528092919081815260200182805461243190613842565b801561247e5780601f106124535761010080835404028352916020019161247e565b820191906000526020600020905b81548152906001019060200180831161246157829003601f168201915b505050505090507f000000000000000000000000000000000000000000000000000000000000000073ffffffffffffffffffffffffffffffffffffffff16637cbfc58f83836040518363ffffffff1660e01b81526004016124e0929190614096565b600060405180830381600087803b1580156124fa57600080fd5b505af115801561250e573d6000803e3d6000fd5b505050505050565b7f000000000000000000000000000000000000000000000000000000000000000073ffffffffffffffffffffffffffffffffffffffff163373ffffffffffffffffffffffffffffffffffffffff16146125a4576040517f08c379a000000000000000000000000000000000000000000000000000000000815260040161259b906135c4565b60405180910390fd5b7f000000000000000000000000000000000000000000000000000000000000000073ffffffffffffffffffffffffffffffffffffffff16637915c069827f00000000000000000000000000000000000000000000000000000000000000007f00000000000000000000000000000000000000000000000000000000000000006040518463ffffffff1660e01b8152600401612641939291906140c6565b600060405180830381600087803b15801561265b57600080fd5b505af115801561266f573d6000803e3d6000fd5b5050505080600090816126829190613ad9565b5050565b61268e610cae565b6126cd576040517f08c379a00000000000000000000000000000000000000000000000000000000081526004016126c490613c76565b60405180910390fd5b6008819080600181540180825580915050600190039060005260206000200160009091909190915090816127019190613ad9565b5050565b7f000000000000000000000000000000000000000000000000000000000000000073ffffffffffffffffffffffffffffffffffffffff163373ffffffffffffffffffffffffffffffffffffffff1614612793576040517f08c379a000000000000000000000000000000000000000000000000000000000815260040161278a906135c4565b60405180910390fd5b6040518060400160405280601581526020017f5348415245484f4c4445525f52455155455354454400000000000000000000008152508051906020012060096040516127df9190613916565b604051809103902003612840576127f4612bd6565b1561283f576040518060400160405280601481526020017f5348415245484f4c4445525f41434345505445440000000000000000000000008152506009908161283d9190613ad9565b505b5b565b7f000000000000000000000000000000000000000000000000000000000000000073ffffffffffffffffffffffffffffffffffffffff163373ffffffffffffffffffffffffffffffffffffffff16146128d0576040517f08c379a00000000000000000000000000000000000000000000000000000000081526004016128c7906135c4565b60405180910390fd5b6128d8610cae565b612917576040517f08c379a000000000000000000000000000000000000000000000000000000000815260040161290e90613c76565b60405180910390fd5b6040518060400160405280601581526020017f5348415245484f4c4445525f52455155455354454400000000000000000000008152506009908161295b9190613ad9565b5060005b600180549050811015612a705760006001828154811061298257612981613d3c565b5b9060005260206000200160009054906101000a900473ffffffffffffffffffffffffffffffffffffffff1690507f000000000000000000000000000000000000000000000000000000000000000073ffffffffffffffffffffffffffffffffffffffff16636e8548bb7f0000000000000000000000000000000000000000000000000000000000000000836040518363ffffffff1660e01b8152600401612a2a929190614104565b600060405180830381600087803b158015612a4457600080fd5b505af1158015612a58573d6000803e3d6000fd5b50505050508080612a6890613d9a565b91505061295f565b50565b6060612a7d610cae565b612abc576040517f08c379a0000000000000000000000000000000000000000000000000000000008152600401612ab390613c76565b60405180910390fd5b7f000000000000000000000000000000000000000000000000000000000000000073ffffffffffffffffffffffffffffffffffffffff163373ffffffffffffffffffffffffffffffffffffffff1614612b4a576040517f08c379a0000000000000000000000000000000000000000000000000000000008152600401612b41906135c4565b60405180910390fd5b6001805480602002602001604051908101604052809291908181526020018280548015612bcc57602002820191906000526020600020905b8160009054906101000a900473ffffffffffffffffffffffffffffffffffffffff1673ffffffffffffffffffffffffffffffffffffffff1681526020019060010190808311612b82575b5050505050905090565b60007f000000000000000000000000000000000000000000000000000000000000000073ffffffffffffffffffffffffffffffffffffffff163373ffffffffffffffffffffffffffffffffffffffff1614612c66576040517f08c379a0000000000000000000000000000000000000000000000000000000008152600401612c5d906135c4565b60405180910390fd5b612c6e610d50565b60018054905060028054905010612c885760019050612c8d565b600090505b90565b828054828255906000526020600020908101928215612cd8579160200282015b82811115612cd7578251829081612cc79190613ad9565b5091602001919060010190612cb0565b5b509050612ce59190612ce9565b5090565b5b80821115612d095760008181612d009190612d0d565b50600101612cea565b5090565b508054612d1990613842565b6000825580601f10612d2b5750612d4a565b601f016020900490600052602060002090810190612d499190612d4d565b5b50565b5b80821115612d66576000816000905550600101612d4e565b5090565b600081519050919050565b600082825260208201905092915050565b6000819050602082019050919050565b600073ffffffffffffffffffffffffffffffffffffffff82169050919050565b6000612dc182612d96565b9050919050565b612dd181612db6565b82525050565b6000612de38383612dc8565b60208301905092915050565b6000602082019050919050565b6000612e0782612d6a565b612e118185612d75565b9350612e1c83612d86565b8060005b83811015612e4d578151612e348882612dd7565b9750612e3f83612def565b925050600181019050612e20565b5085935050505092915050565b60006020820190508181036000830152612e748184612dfc565b905092915050565b6000604051905090565b600080fd5b600080fd5b600080fd5b600080fd5b6000601f19601f8301169050919050565b7f4e487b7100000000000000000000000000000000000000000000000000000000600052604160045260246000fd5b612ee382612e9a565b810181811067ffffffffffffffff82111715612f0257612f01612eab565b5b80604052505050565b6000612f15612e7c565b9050612f218282612eda565b919050565b600067ffffffffffffffff821115612f4157612f40612eab565b5b612f4a82612e9a565b9050602081019050919050565b82818337600083830152505050565b6000612f79612f7484612f26565b612f0b565b905082815260208101848484011115612f9557612f94612e95565b5b612fa0848285612f57565b509392505050565b600082601f830112612fbd57612fbc612e90565b5b8135612fcd848260208601612f66565b91505092915050565b600060208284031215612fec57612feb612e86565b5b600082013567ffffffffffffffff81111561300a57613009612e8b565b5b61301684828501612fa8565b91505092915050565b60008115159050919050565b6130348161301f565b82525050565b600060208201905061304f600083018461302b565b92915050565b600081519050919050565b600082825260208201905092915050565b60005b8381101561308f578082015181840152602081019050613074565b60008484015250505050565b60006130a682613055565b6130b08185613060565b93506130c0818560208601613071565b6130c981612e9a565b840191505092915050565b600060208201905081810360008301526130ee818461309b565b905092915050565b600081519050919050565b600082825260208201905092915050565b6000819050602082019050919050565b600082825260208201905092915050565b600061313e82613055565b6131488185613122565b9350613158818560208601613071565b61316181612e9a565b840191505092915050565b60006131788383613133565b905092915050565b6000602082019050919050565b6000613198826130f6565b6131a28185613101565b9350836020820285016131b485613112565b8060005b858110156131f057848403895281516131d1858261316c565b94506131dc83613180565b925060208a019950506001810190506131b8565b50829750879550505050505092915050565b6000602082019050818103600083015261321c818461318d565b905092915050565b61322d81612db6565b811461323857600080fd5b50565b60008135905061324a81613224565b92915050565b6000806040838503121561326757613266612e86565b5b60006132758582860161323b565b925050602083013567ffffffffffffffff81111561329657613295612e8b565b5b6132a285828601612fa8565b9150509250929050565b6000819050919050565b6132bf816132ac565b81146132ca57600080fd5b50565b6000813590506132dc816132b6565b92915050565b6000602082840312156132f8576132f7612e86565b5b6000613306848285016132cd565b91505092915050565b600061331a82612d96565b9050919050565b61332a8161330f565b811461333557600080fd5b50565b60008135905061334781613321565b92915050565b60006020828403121561336357613362612e86565b5b600061337184828501613338565b91505092915050565b6000602082840312156133905761338f612e86565b5b600061339e8482850161323b565b91505092915050565b6133b081612db6565b82525050565b60006020820190506133cb60008301846133a7565b92915050565b600067ffffffffffffffff8211156133ec576133eb612eab565b5b602082029050602081019050919050565b600080fd5b6000613415613410846133d1565b612f0b565b90508083825260208201905060208402830185811115613438576134376133fd565b5b835b8181101561347f57803567ffffffffffffffff81111561345d5761345c612e90565b5b80860161346a8982612fa8565b8552602085019450505060208101905061343a565b5050509392505050565b600082601f83011261349e5761349d612e90565b5b81356134ae848260208601613402565b91505092915050565b6000602082840312156134cd576134cc612e86565b5b600082013567ffffffffffffffff8111156134eb576134ea612e8b565b5b6134f784828501613489565b91505092915050565b6000806040838503121561351757613516612e86565b5b600083013567ffffffffffffffff81111561353557613534612e8b565b5b61354185828601612fa8565b925050602083013567ffffffffffffffff81111561356257613561612e8b565b5b61356e85828601612fa8565b9150509250929050565b7f4f6e6c79206f776e657220686173207468652070726976696c65676500000000600082015250565b60006135ae601c83613060565b91506135b982613578565b602082019050919050565b600060208201905081810360008301526135dd816135a1565b9050919050565b600081549050919050565b60008190508160005260206000209050919050565b60008160001c9050919050565b600073ffffffffffffffffffffffffffffffffffffffff82169050919050565b600061364461363f83613604565b613611565b9050919050565b60006136578254613631565b9050919050565b6000600182019050919050565b6000613676826135e4565b6136808185612d75565b935061368b836135ef565b8060005b838110156136c3576136a08261364b565b6136aa8882612dd7565b97506136b58361365e565b92505060018101905061368f565b5085935050505092915050565b600060208201905081810360008301526136ea818461366b565b905092915050565b600067ffffffffffffffff82111561370d5761370c612eab565b5b602082029050602081019050919050565b60008151905061372d81613224565b92915050565b6000613746613741846136f2565b612f0b565b90508083825260208201905060208402830185811115613769576137686133fd565b5b835b81811015613792578061377e888261371e565b84526020840193505060208101905061376b565b5050509392505050565b600082601f8301126137b1576137b0612e90565b5b81516137c1848260208601613733565b91505092915050565b6000602082840312156137e0576137df612e86565b5b600082015167ffffffffffffffff8111156137fe576137fd612e8b565b5b61380a8482850161379c565b91505092915050565b7f4e487b7100000000000000000000000000000000000000000000000000000000600052602260045260246000fd5b6000600282049050600182168061385a57607f821691505b60208210810361386d5761386c613813565b5b50919050565b600081905092915050565b60008190508160005260206000209050919050565b600081546138a081613842565b6138aa8186613873565b945060018216600081146138c557600181146138da5761390d565b60ff198316865281151582028601935061390d565b6138e38561387e565b60005b83811015613905578154818901526001820191506020810190506138e6565b838801955050505b50505092915050565b60006139228284613893565b915081905092915050565b60008190508160005260206000209050919050565b60006020601f8301049050919050565b600082821b905092915050565b60006008830261398f7fffffffffffffffffffffffffffffffffffffffffffffffffffffffffffffffff82613952565b6139998683613952565b95508019841693508086168417925050509392505050565b6000819050919050565b60006139d66139d16139cc846132ac565b6139b1565b6132ac565b9050919050565b6000819050919050565b6139f0836139bb565b613a046139fc826139dd565b84845461395f565b825550505050565b600090565b613a19613a0c565b613a248184846139e7565b505050565b5b81811015613a4857613a3d600082613a11565b600181019050613a2a565b5050565b601f821115613a8d57613a5e8161392d565b613a6784613942565b81016020851015613a76578190505b613a8a613a8285613942565b830182613a29565b50505b505050565b600082821c905092915050565b6000613ab060001984600802613a92565b1980831691505092915050565b6000613ac98383613a9f565b9150826002028217905092915050565b613ae282613055565b67ffffffffffffffff811115613afb57613afa612eab565b5b613b058254613842565b613b10828285613a4c565b600060209050601f831160018114613b435760008415613b31578287015190505b613b3b8582613abd565b865550613ba3565b601f198416613b518661392d565b60005b82811015613b7957848901518255600182019150602085019450602081019050613b54565b86831015613b965784890151613b92601f891682613a9f565b8355505b6001600288020188555050505b505050505050565b613bb48161301f565b8114613bbf57600080fd5b50565b600081519050613bd181613bab565b92915050565b600060208284031215613bed57613bec612e86565b5b6000613bfb84828501613bc2565b91505092915050565b7f4f776e65722068617320746f20726567697374657220746f207075626c69632060008201527f636f6e7472616374000000000000000000000000000000000000000000000000602082015250565b6000613c60602883613060565b9150613c6b82613c04565b604082019050919050565b60006020820190508181036000830152613c8f81613c53565b9050919050565b60008154613ca381613842565b613cad8186613060565b94506001821660008114613cc85760018114613cde57613d11565b60ff198316865281151560200286019350613d11565b613ce78561392d565b60005b83811015613d0957815481890152600182019150602081019050613cea565b808801955050505b50505092915050565b60006020820190508181036000830152613d348184613c96565b905092915050565b7f4e487b7100000000000000000000000000000000000000000000000000000000600052603260045260246000fd5b7f4e487b7100000000000000000000000000000000000000000000000000000000600052601160045260246000fd5b6000613da5826132ac565b91507fffffffffffffffffffffffffffffffffffffffffffffffffffffffffffffffff8203613dd757613dd6613d6b565b5b600182019050919050565b6000613ded826132ac565b9150613df8836132ac565b9250828203905081811115613e1057613e0f613d6b565b5b92915050565b7f4e487b7100000000000000000000000000000000000000000000000000000000600052603160045260246000fd5b60006040820190508181036000830152613e5f818561309b565b9050613e6e60208301846133a7565b9392505050565b6000606082019050613e8a60008301866133a7565b613e9760208301856133a7565b613ea4604083018461302b565b949350505050565b600060208284031215613ec257613ec1612e86565b5b6000613ed08482850161371e565b91505092915050565b7f4e6f7420656e6f75676820736861726520686f6c646572732121000000000000600082015250565b6000613f0f601a83613060565b9150613f1a82613ed9565b602082019050919050565b60006020820190508181036000830152613f3e81613f02565b9050919050565b600081549050613f5481613842565b9050919050565b60008190508160005260206000209050919050565b818103613f7e575050614056565b613f8782613f45565b67ffffffffffffffff811115613fa057613f9f612eab565b5b613faa8254613842565b613fb5828285613a4c565b6000601f831160018114613fe45760008415613fd2578287015490505b613fdc8582613abd565b86555061404f565b601f198416613ff287613f5b565b9650613ffd8661392d565b60005b8281101561402557848901548255600182019150600185019450602081019050614000565b86831015614042578489015461403e601f891682613a9f565b8355505b6001600288020188555050505b5050505050505b565b600060608201905061406d60008301866133a7565b61407a60208301856133a7565b818103604083015261408c8184613c96565b9050949350505050565b60006040820190506140ab60008301856133a7565b81810360208301526140bd818461309b565b90509392505050565b600060608201905081810360008301526140e0818661309b565b90506140ef60208301856133a7565b6140fc60408301846133a7565b949350505050565b600060408201905061411960008301856133a7565b61412660208301846133a7565b939250505056fea264697066735822122017550faf6bb523658524f105340f87625610fa36563610fb89e9dd3d50e6967d64736f6c63430008100033",
  "immutableReferences": {
    "4": [
      {
        "length": 32,
        "start": 1471
      },
      {
        "length": 32,
        "start": 1862
      },
      {
        "length": 32,
        "start": 2066
      },
      {
        "length": 32,
        "start": 2371
      },
      {
        "length": 32,
        "start": 2730
      },
      {
        "length": 32,
        "start": 3410
      },
      {
        "length": 32,
        "start": 3685
      },
      {
        "length": 32,
        "start": 3882
      },
      {
        "length": 32,
        "start": 4349
      },
      {
        "length": 32,
        "start": 5130
      },
      {
        "length": 32,
        "start": 5516
      },
      {
        "length": 32,
        "start": 5934
      },
      {
        "length": 32,
        "start": 6333
      },
      {
        "length": 32,
        "start": 6535
      },
      {
        "length": 32,
        "start": 6656
      },
      {
        "length": 32,
        "start": 6965
      },
      {
        "length": 32,
        "start": 7133
      },
      {
        "length": 32,
        "start": 7335
      },
      {
        "length": 32,
        "start": 7456
      },
      {
        "length": 32,
        "start": 7742
      },
      {
        "length": 32,
        "start": 8057
      },
      {
        "length": 32,
        "start": 8634
      },
      {
        "length": 32,
        "start": 8934
      },
      {
        "length": 32,
        "start": 9496
      },
      {
        "length": 32,
        "start": 9699
      },
      {
        "length": 32,
        "start": 9991
      },
      {
        "length": 32,
        "start": 10308
      },
      {
        "length": 32,
        "start": 10733
      },
      {
        "length": 32,
        "start": 10942
      },
      {
        "length": 32,
        "start": 11226
      }
    ],
    "34": [
      {
        "length": 32,
        "start": 9732
      }
    ],
    "37": [
      {
        "length": 32,
        "start": 1615
      },
      {
        "length": 32,
        "start": 2006
      },
      {
        "length": 32,
        "start": 2208
      },
      {
        "length": 32,
        "start": 3250
      },
      {
        "length": 32,
        "start": 3625
      },
      {
        "length": 32,
        "start": 3822
      },
      {
        "length": 32,
        "start": 5873
      },
      {
        "length": 32,
        "start": 6475
      },
      {
        "length": 32,
        "start": 6800
      },
      {
        "length": 32,
        "start": 7275
      },
      {
        "length": 32,
        "start": 8574
      },
      {
        "length": 32,
        "start": 9351
      },
      {
        "length": 32,
        "start": 9638
      },
      {
        "length": 32,
        "start": 10673
      }
    ]
  },
  "source": "//SPDX-License-Identifier: MIT\r\npragma solidity ^0.8.16;\r\n\r\nimport \"./PublicContract.sol\";\r\n// contract of a node\r\ncontract Node {\r\n\r\n    address immutable private owner;  //Owner address\r\n\r\n    string private userName; //my user name after registering\r\n\r\n    address[] private requestedShareHolders; //temporary list of share holders\r\n\r\n    address[] private  shareHolders; //My secret holders who accepted the invitation\r\n\r\n    address[]private rejectedShareHolders;  //the holders who rejected the invitation\r\n\r\n    string[] private shares;    //Shares list belonging to the user \r\n\r\n    mapping(address => string) private shareHoldersMap; //My secret baring holders\r\n\r\n    mapping(address => string) private sharesMap; //The secrets I'm holding\r\n\r\n    address[] private secretOwners;  //The owners of the secrets that I'm holding \r\n\r\n    string[] private regeneratedShares;      //regenerated shares as a requester\r\n    \r\n    address immutable private myContractAddress; //mycontract address \r\n\r\n    PublicContract immutable private defaultPublicContract; //Public contract obeject\r\n\r\n    string public myState;     // States : NODE_CREATED/SHAREHOLDER_REQUESTED/SHAREHOLDER_ACCEPTED\r\n\r\n    string  private otpHash;  //otp hash value to confirm the user \r\n\r\n    string private encryptedVault; //encrypted vault releases when all shareholders accepted \r\n\r\n    //todo don't defined the public contract in the constructor\r\n    constructor() { \r\n        owner = msg.sender;\r\n        //Hard coded deployment of the public contract\r\n        defaultPublicContract=PublicContract(0xd9145CCE52D386f254917e481eB44e9943F39138);\r\n        myContractAddress = address(this);\r\n        myState=\"NODE_CREATED\";\r\n\r\n    }\r\n    // struct AddHolderRequest{\r\n    //     address secretOwner;\r\n    //     address shareHolder;\r\n    // }\r\n\r\n    // msg.data (bytes): complete calldata\r\n    // msg.gas (uint): remaining gas\r\n    // msg.sender (address): sender of the message (current call)\r\n    // msg.sig (bytes4): first four bytes of the calldata (i.e. function identifier)\r\n    // msg.value (uint): number of wei sent with the message\r\n\r\n//modifiers \r\n    modifier onlyOwner() {\r\n        require(msg.sender == owner, \"Only owner has the privilege\");\r\n        _;\r\n    }\r\n    modifier checkIsRegistered() {\r\n\trequire(isRegistered(), \"Owner has to register to public contract\");\r\n\t_;\r\n    }\r\n\r\n//function to check the userName is already registered \r\n    function isUserNameExist(string memory tempUserName)public view returns(bool){\r\n        return  defaultPublicContract.isExists(tempUserName);\r\n    }\r\n\r\n//function to check the user if this contract is registered or not \r\n    function isRegistered()public view returns(bool){\r\n       return  defaultPublicContract.isExists(userName);\r\n    }\r\n\r\n//Every node should register with a name into the public contract \r\n    function registerToPublicContract(string memory name)public onlyOwner{\r\n        defaultPublicContract.register(name,owner,myContractAddress);\r\n        userName=name;\r\n        return;\r\n\r\n    }\r\n//get contract address when knowing the public address\r\n    function getContractAddressOfPublicAddress(address publicAddress)public view onlyOwner returns (address){\r\n       address contractAddress= defaultPublicContract.getContractAddressByPublicAddress(publicAddress);\r\n       return contractAddress;\r\n    }\r\n//get my user name \r\n    function getUserName()public view onlyOwner returns(string memory){\r\n        return userName;\r\n    }\r\n\r\n//get otp hash value\r\n    function getOtp()public onlyOwner view returns(string memory){\r\n        return otpHash;\r\n    }\r\n\r\n//compare otpHash value \r\n    function compareOtpHash(string memory tempOtp)public view returns(bool){\r\n        if(keccak256(bytes(tempOtp)) == keccak256(bytes(otpHash))){\r\n            return true;\r\n        }else{\r\n            return false;\r\n        }\r\n        \r\n    }\r\n//set otp hash value\r\n    function setOtpHash(string memory otp)public {\r\n        otpHash=otp;\r\n    }\r\n\r\n//set vault hash value\r\n    function setEncryptedVault(string memory vault)public {\r\n        encryptedVault=vault;\r\n    }\r\n//!Share Holder's role-------------------------------------------------------------------------//\r\n\r\n//Check the requests from the secret owner to a node to add as a share holder\r\n    function checkRequestsForBeAHolder()public onlyOwner view returns (address[] memory){\r\n    address[] memory _requestsForMe = defaultPublicContract.checkRequestsByShareholder(owner);\r\n    return _requestsForMe;\r\n    }\r\n\r\n//Accept the share holder invitation\r\n    function acceptInvitation(address secretOwner) public onlyOwner  {\r\n        defaultPublicContract.respondToBeShareHolder(owner,secretOwner,true);\r\n    }\r\n//Reject the share holder invitation\r\n    function rejectInvitation(address secretOwner) public onlyOwner {\r\n       defaultPublicContract.respondToBeShareHolder(owner,secretOwner,false);\r\n        \r\n    }\r\n\r\n//Take the secret form the secret owner and write the share in the shares map \r\n//( this is access though the public contract by the secret owner ) \r\n\r\n    function takeTheSecretFromTheOwner(address ownerAddress,string memory sharedString) public{\r\n        secretOwners.push(ownerAddress);\r\n        sharesMap[ownerAddress]=sharedString;\r\n    }\r\n\r\n\r\n//Check the requests from the requester to release the secret\r\n    function checkRequestsForShare()public onlyOwner view returns (address[] memory){\r\n    address[] memory _shareRequests = defaultPublicContract.checkRequestsForTheSeceret(secretOwners);\r\n    return _shareRequests;\r\n    }\r\n\r\n//release the secret to the requester\r\n    function releaseSecret(address secretOwnerAddress) public onlyOwner checkIsRegistered {\r\n        string memory myShare =sharesMap[secretOwnerAddress];\r\n        defaultPublicContract.releaseTheSecret(secretOwnerAddress,myShare);\r\n        \r\n    }\r\n\r\n\r\n    \r\n    \r\n\r\n//!Secret owners role----------------------------------------------------------------------//\r\n//Check all the temporary holders have accepted \r\n    function checkAcceptance()public onlyOwner returns(bool){\r\n        refreshHolderLists();\r\n        if(shareHolders.length>=requestedShareHolders.length){\r\n            return true;\r\n        }\r\n        return false;\r\n    }\r\n\r\n//Get my state\r\n    function getMyState()public view onlyOwner returns(string memory){\r\n        return myState;\r\n    }\r\n\r\n//refresh my state\r\n    function refreshState()public onlyOwner {\r\n        //FUNCTION TO   check all the shareholders accepted \r\n        //if(myState ==\"SHAREHOLDER_REQUESTED\"){\r\n        if(keccak256(bytes(myState)) == keccak256(bytes(\"SHAREHOLDER_REQUESTED\"))){\r\n            if(checkAcceptance()){\r\n                myState=\"SHAREHOLDER_ACCEPTED\";\r\n            }\r\n        }\r\n    }\r\n//Addiing a share holder to a temporary list\r\n    function addTemporaryShareHolders(address payable shareHolder) public onlyOwner checkIsRegistered {\r\n        requestedShareHolders.push(shareHolder);\r\n        \r\n    }\r\n\r\n//add my shares to the contract \r\n    function addMyShares(string[] memory myShares)public onlyOwner{\r\n       shares =myShares ;\r\n    }\r\n\r\n//get my shares \r\n    function getMyShares() public onlyOwner view returns(string[] memory){\r\n        return shares;\r\n    }\r\n\r\n//Regenerate the secret after the responses from the holders \r\n    function getRequestedShareHolders() public view checkIsRegistered onlyOwner returns (address[] memory){\r\n        return requestedShareHolders;\r\n    }\r\n//get my share holders who accepted the request \r\n    function getShareHolders() public view returns (address[] memory)  {\r\n        return shareHolders;\r\n    }\r\n\r\n    //get my share holders who rejected the request \r\n    function getRejectedShareHolders() public view returns (address[] memory)  {\r\n        return rejectedShareHolders;\r\n    } \r\n\r\n\r\n\r\n    function remove(uint256 index) public {\r\n        // Move the last element into the place to delete\r\n        requestedShareHolders[index] = requestedShareHolders[requestedShareHolders.length - 1];\r\n        // Remove the last element\r\n        requestedShareHolders.pop();\r\n    }\r\n\r\n//Removing a share holder from the list \r\n    function removeShareHolders(address payable shareHolder) public onlyOwner checkIsRegistered {\r\n        uint256 j = 0;\r\n        for (uint256 i=0; i < requestedShareHolders.length; i++) {\r\n            if (requestedShareHolders[i] == shareHolder) {\r\n                j=i;\r\n                break;\r\n            }\r\n        }\r\n        remove(j);\r\n    }\r\n\r\n\r\n\r\n//Make the be holder requests \r\n    function makingHolderRequests() public onlyOwner checkIsRegistered{\r\n        myState=\"SHAREHOLDER_REQUESTED\";\r\n        for (uint256 i=0; i<requestedShareHolders.length; i++){\r\n            address temporaryHolder= requestedShareHolders[i];\r\n            defaultPublicContract.makeARequestToBeAShareHolder(owner,temporaryHolder);\r\n\r\n        }\r\n    }\r\n\r\n//check the holder request acceptance and make the share holders list \r\n    function refreshHolderLists()public  onlyOwner checkIsRegistered{\r\n        address[] memory _requestAcceptedHolders=defaultPublicContract.getRequestAcceptedHoldersList(owner);\r\n        address[] memory _requestRejectedHolders=defaultPublicContract.getRequestRejectedHoldersList(owner);  \r\n\r\n        for (uint256 i = 0; i<_requestAcceptedHolders.length; i++){\r\n            address temporaryHolder= _requestAcceptedHolders[i];\r\n            shareHolders.push(temporaryHolder);\r\n            //shareHolders[i]=temporaryHolder;\r\n\r\n        }\r\n        for (uint256 i = 0; i<_requestRejectedHolders.length; i++){\r\n            address temporaryHolder= _requestRejectedHolders[i];\r\n            rejectedShareHolders.push(temporaryHolder);\r\n            //shareHolders[i]=temporaryHolder;\r\n\r\n        }\r\n    }\r\n\r\n//Distribute the share function \r\n//Need to improve this with validations \r\n    function distribute(string memory otp,string memory vault) public onlyOwner checkIsRegistered{\r\n        setOtpHash(otp);\r\n        setEncryptedVault(vault);\r\n        refreshHolderLists();\r\n        require(shares.length <= shareHolders.length, \"Not enough share holders!!\");\r\n        if (shares.length <= shareHolders.length) {\r\n            for (uint256 i = 0; i < shares.length; i++) {\r\n                shareHoldersMap[shareHolders[i]] = shares[i]; \r\n                defaultPublicContract.makeSharesAccessibleToTheHolders(owner,shareHolders[i],shares[i]);\r\n            }\r\n        }\r\n        myState=\"SHARES_DISTRIBUTED\";\r\n\r\n    }\r\n\r\n//requesting the shares from share holders \r\n    function requestSharesFromHolders(string memory name) public  checkIsRegistered {\r\n        defaultPublicContract.makeARequestToGetShares(name,owner);\r\n        return ;\r\n    }\r\n\r\n//saves the share to the requested nodes regenerated shsres list\r\n    function saveToRegeneratedShares(string memory share)public checkIsRegistered{\r\n        regeneratedShares.push(share);\r\n        return;\r\n    }\r\n\r\n//Regenerate the secret after the responses from the holders \r\n    function regenerate() public view checkIsRegistered onlyOwner returns (string[] memory){\r\n        //This should generate from the other nodes \r\n        return regeneratedShares;\r\n    }\r\n// //Repay the gas fee to the holders \r\n//     function repayGasFee()public onlyOwner{\r\n\r\n//     }\r\n\r\n\r\n}\r\n\r\n",
  "sourcePath": "F:\\Sadaru Kavisha\\Semester 7\\Fyp\\Final Project\\smart-contract-evaluation\\contracts\\Node.sol",
  "compiler": {
    "name": "solc",
    "version": "0.8.16+commit.07a7930e.Emscripten.clang"
  },
  "schemaVersion": "3.4.11",
  "updatedAt": "2023-02-22T06:44:31.730Z",
  "devdoc": {
    "kind": "dev",
    "methods": {},
    "version": 1
  },
  "userdoc": {
    "kind": "user",
    "methods": {},
    "version": 1
  }
}