{
  "contractName": "Node",
  "abi": [
    {
      "inputs": [],
      "stateMutability": "nonpayable",
      "type": "constructor"
    },
    {
      "inputs": [],
      "name": "myState",
      "outputs": [
        {
          "internalType": "string",
          "name": "",
          "type": "string"
        }
      ],
      "stateMutability": "view",
      "type": "function"
    },
    {
      "inputs": [
        {
          "internalType": "string",
          "name": "tempUserName",
          "type": "string"
        }
      ],
      "name": "isUserNameExist",
      "outputs": [
        {
          "internalType": "bool",
          "name": "",
          "type": "bool"
        }
      ],
      "stateMutability": "view",
      "type": "function"
    },
    {
      "inputs": [],
      "name": "isRegistered",
      "outputs": [
        {
          "internalType": "bool",
          "name": "",
          "type": "bool"
        }
      ],
      "stateMutability": "view",
      "type": "function"
    },
    {
      "inputs": [
        {
          "internalType": "string",
          "name": "name",
          "type": "string"
        }
      ],
      "name": "registerToPublicContract",
      "outputs": [],
      "stateMutability": "nonpayable",
      "type": "function"
    },
    {
      "inputs": [
        {
          "internalType": "address",
          "name": "publicAddress",
          "type": "address"
        }
      ],
      "name": "getContractAddressOfPublicAddress",
      "outputs": [
        {
          "internalType": "address",
          "name": "",
          "type": "address"
        }
      ],
      "stateMutability": "view",
      "type": "function"
    },
    {
      "inputs": [],
      "name": "getUserName",
      "outputs": [
        {
          "internalType": "string",
          "name": "",
          "type": "string"
        }
      ],
      "stateMutability": "view",
      "type": "function"
    },
    {
      "inputs": [],
      "name": "checkRequestsForBeAHolder",
      "outputs": [
        {
          "internalType": "address[]",
          "name": "",
          "type": "address[]"
        }
      ],
      "stateMutability": "view",
      "type": "function"
    },
    {
      "inputs": [
        {
          "internalType": "address",
          "name": "secretOwner",
          "type": "address"
        }
      ],
      "name": "acceptInvitation",
      "outputs": [],
      "stateMutability": "nonpayable",
      "type": "function"
    },
    {
      "inputs": [
        {
          "internalType": "address",
          "name": "secretOwner",
          "type": "address"
        }
      ],
      "name": "rejectInvitation",
      "outputs": [],
      "stateMutability": "nonpayable",
      "type": "function"
    },
    {
      "inputs": [
        {
          "internalType": "address",
          "name": "ownerAddress",
          "type": "address"
        },
        {
          "internalType": "string",
          "name": "sharedString",
          "type": "string"
        }
      ],
      "name": "takeTheSecretFromTheOwner",
      "outputs": [],
      "stateMutability": "nonpayable",
      "type": "function"
    },
    {
      "inputs": [],
      "name": "checkRequestsForShare",
      "outputs": [
        {
          "internalType": "address[]",
          "name": "",
          "type": "address[]"
        }
      ],
      "stateMutability": "view",
      "type": "function"
    },
    {
      "inputs": [
        {
          "internalType": "address",
          "name": "secretOwnerAddress",
          "type": "address"
        }
      ],
      "name": "releaseSecret",
      "outputs": [],
      "stateMutability": "nonpayable",
      "type": "function"
    },
    {
      "inputs": [],
      "name": "checkAcceptance",
      "outputs": [
        {
          "internalType": "bool",
          "name": "",
          "type": "bool"
        }
      ],
      "stateMutability": "nonpayable",
      "type": "function"
    },
    {
      "inputs": [],
      "name": "getMyState",
      "outputs": [
        {
          "internalType": "string",
          "name": "",
          "type": "string"
        }
      ],
      "stateMutability": "view",
      "type": "function"
    },
    {
      "inputs": [],
      "name": "refreshState",
      "outputs": [],
      "stateMutability": "nonpayable",
      "type": "function"
    },
    {
      "inputs": [
        {
          "internalType": "address payable",
          "name": "shareHolder",
          "type": "address"
        }
      ],
      "name": "addTemporaryShareHolders",
      "outputs": [],
      "stateMutability": "nonpayable",
      "type": "function"
    },
    {
      "inputs": [
        {
          "internalType": "string[]",
          "name": "myShares",
          "type": "string[]"
        }
      ],
      "name": "addMyShares",
      "outputs": [],
      "stateMutability": "nonpayable",
      "type": "function"
    },
    {
      "inputs": [],
      "name": "getMyShares",
      "outputs": [
        {
          "internalType": "string[]",
          "name": "",
          "type": "string[]"
        }
      ],
      "stateMutability": "view",
      "type": "function"
    },
    {
      "inputs": [],
      "name": "getRequestedShareHolders",
      "outputs": [
        {
          "internalType": "address[]",
          "name": "",
          "type": "address[]"
        }
      ],
      "stateMutability": "view",
      "type": "function"
    },
    {
      "inputs": [],
      "name": "getShareHolders",
      "outputs": [
        {
          "internalType": "address[]",
          "name": "",
          "type": "address[]"
        }
      ],
      "stateMutability": "view",
      "type": "function"
    },
    {
      "inputs": [],
      "name": "getRejectedShareHolders",
      "outputs": [
        {
          "internalType": "address[]",
          "name": "",
          "type": "address[]"
        }
      ],
      "stateMutability": "view",
      "type": "function"
    },
    {
      "inputs": [
        {
          "internalType": "uint256",
          "name": "index",
          "type": "uint256"
        }
      ],
      "name": "remove",
      "outputs": [],
      "stateMutability": "nonpayable",
      "type": "function"
    },
    {
      "inputs": [
        {
          "internalType": "address payable",
          "name": "shareHolder",
          "type": "address"
        }
      ],
      "name": "removeShareHolders",
      "outputs": [],
      "stateMutability": "nonpayable",
      "type": "function"
    },
    {
      "inputs": [],
      "name": "makingHolderRequests",
      "outputs": [],
      "stateMutability": "nonpayable",
      "type": "function"
    },
    {
      "inputs": [],
      "name": "refreshHolderLists",
      "outputs": [],
      "stateMutability": "nonpayable",
      "type": "function"
    },
    {
      "inputs": [],
      "name": "distribute",
      "outputs": [],
      "stateMutability": "nonpayable",
      "type": "function"
    },
    {
      "inputs": [
        {
          "internalType": "string",
          "name": "name",
          "type": "string"
        }
      ],
      "name": "requestSharesFromHolders",
      "outputs": [],
      "stateMutability": "nonpayable",
      "type": "function"
    },
    {
      "inputs": [
        {
          "internalType": "string",
          "name": "share",
          "type": "string"
        }
      ],
      "name": "saveToRegeneratedShares",
      "outputs": [],
      "stateMutability": "nonpayable",
      "type": "function"
    },
    {
      "inputs": [],
      "name": "regenerate",
      "outputs": [
        {
          "internalType": "string[]",
          "name": "",
          "type": "string[]"
        }
      ],
      "stateMutability": "view",
      "type": "function"
    }
  ],
  "bytecode": "0x60e06040523480156200001157600080fd5b503373ffffffffffffffffffffffffffffffffffffffff1660808173ffffffffffffffffffffffffffffffffffffffff168152505073d9145cce52d386f254917e481eb44e9943f3913873ffffffffffffffffffffffffffffffffffffffff1660c08173ffffffffffffffffffffffffffffffffffffffff16815250503073ffffffffffffffffffffffffffffffffffffffff1660a08173ffffffffffffffffffffffffffffffffffffffff16815250506040518060400160405280600c81526020017f4e4f44455f4352454154454400000000000000000000000000000000000000008152506009908162000108919062000389565b5062000470565b600081519050919050565b7f4e487b7100000000000000000000000000000000000000000000000000000000600052604160045260246000fd5b7f4e487b7100000000000000000000000000000000000000000000000000000000600052602260045260246000fd5b600060028204905060018216806200019157607f821691505b602082108103620001a757620001a662000149565b5b50919050565b60008190508160005260206000209050919050565b60006020601f8301049050919050565b600082821b905092915050565b600060088302620002117fffffffffffffffffffffffffffffffffffffffffffffffffffffffffffffffff82620001d2565b6200021d8683620001d2565b95508019841693508086168417925050509392505050565b6000819050919050565b6000819050919050565b60006200026a620002646200025e8462000235565b6200023f565b62000235565b9050919050565b6000819050919050565b620002868362000249565b6200029e620002958262000271565b848454620001df565b825550505050565b600090565b620002b5620002a6565b620002c28184846200027b565b505050565b5b81811015620002ea57620002de600082620002ab565b600181019050620002c8565b5050565b601f82111562000339576200030381620001ad565b6200030e84620001c2565b810160208510156200031e578190505b620003366200032d85620001c2565b830182620002c7565b50505b505050565b600082821c905092915050565b60006200035e600019846008026200033e565b1980831691505092915050565b60006200037983836200034b565b9150826002028217905092915050565b62000394826200010f565b67ffffffffffffffff811115620003b057620003af6200011a565b5b620003bc825462000178565b620003c9828285620002ee565b600060209050601f831160018114620004015760008415620003ec578287015190505b620003f885826200036b565b86555062000468565b601f1984166200041186620001ad565b60005b828110156200043b5784890151825560018201915060208501945060208101905062000414565b868310156200045b578489015162000457601f8916826200034b565b8355505b6001600288020188555050505b505050505050565b60805160a05160c051613e94620005bf6000396000818161058b015281816106c60152818161079001528181610b8f01528181610d0601528181610dcb015281816115ce015281816118280152818161196d01528181611b4801528181611ed701528181611ff601528181612401015261281b015260006120540152600081816104fb0152818161063601528181610702015281816108330152818161099a01528181610c2f01528181610d4201528181610e0701528181610fda015281816112e7015281816114690152818161160b0152818161179a01528181611864015281816118dd01528181611a1201528181611aba01528181611b8401528181611bfb01528181611d3601528181611f680152818161203301528181612157015281816122940152818161243d0152818161250e015281816126280152818161285701526129830152613e946000f3fe608060405234801561001057600080fd5b50600436106101ce5760003560e01c80638477d9f311610104578063c0befa53116100a2578063dab0177e11610071578063dab0177e146104a7578063dbe4418f146104b1578063e4fc6b6d146104cf578063ecd63043146104d9576101ce565b8063c0befa5314610449578063c692f73814610465578063d65ec85514610481578063d849e94f1461049d576101ce565b8063983080e5116100de578063983080e5146103c5578063a0cd9ce8146103f5578063aa8f307514610411578063b9657d131461042d576101ce565b80638477d9f31461036d5780638bf1799f1461038b5780639018c818146103a9576101ce565b806322cc8155116101715780634cc822151161014b5780634cc82215146102fb57806350e781911461031757806358ce3740146103335780637705841814610351576101ce565b806322cc8155146102b75780633e83fe36146102c15780634a9ae94a146102df576101ce565b806312958f1c116101ad57806312958f1c1461023f57806317377f681461025d57806320a2f7351461027b5780632236684414610299576101ce565b806252c632146101d35780630d2baaa1146101f15780630f64dd1b1461020f575b600080fd5b6101db6104f7565b6040516101e89190612c03565b60405180910390f35b6101f9610632565b6040516102069190612c03565b60405180910390f35b61022960048036038101906102249190612d7f565b61078c565b6040516102369190612de3565b60405180910390f35b61024761082f565b6040516102549190612e7d565b60405180910390f35b61026561094f565b6040516102729190612fab565b60405180910390f35b610283610afd565b6040516102909190612c03565b60405180910390f35b6102a1610b8b565b6040516102ae9190612de3565b60405180910390f35b6102bf610c2d565b005b6102c9610fd6565b6040516102d69190612fab565b60405180910390f35b6102f960048036038101906102f49190612ff9565b61113d565b005b6103156004803603810190610310919061308b565b6111f1565b005b610331600480360381019061032c91906130f6565b6112e5565b005b61033b611465565b6040516103489190612e7d565b60405180910390f35b61036b60048036038101906103669190612d7f565b611585565b005b61037561167c565b6040516103829190612c03565b60405180910390f35b61039361170a565b6040516103a09190612e7d565b60405180910390f35b6103c360048036038101906103be9190613123565b611798565b005b6103df60048036038101906103da9190613123565b6118d9565b6040516103ec919061315f565b60405180910390f35b61040f600480360381019061040a9190613260565b611a10565b005b61042b60048036038101906104269190613123565b611ab8565b005b610447600480360381019061044291906130f6565b611bf9565b005b610463600480360381019061045e9190613123565b611d34565b005b61047f600480360381019061047a9190612d7f565b611f66565b005b61049b60048036038101906104969190612d7f565b6120d6565b005b6104a5612155565b005b6104af612292565b005b6104b96124c3565b6040516104c69190612c03565b60405180910390f35b6104d7612626565b005b6104e161297f565b6040516104ee9190612de3565b60405180910390f35b60607f000000000000000000000000000000000000000000000000000000000000000073ffffffffffffffffffffffffffffffffffffffff163373ffffffffffffffffffffffffffffffffffffffff1614610587576040517f08c379a000000000000000000000000000000000000000000000000000000000815260040161057e906132f5565b60405180910390fd5b60007f000000000000000000000000000000000000000000000000000000000000000073ffffffffffffffffffffffffffffffffffffffff1663c588234460076040518263ffffffff1660e01b81526004016105e39190613401565b600060405180830381865afa158015610600573d6000803e3d6000fd5b505050506040513d6000823e3d601f19601f8201168201806040525081019061062991906134fb565b90508091505090565b60607f000000000000000000000000000000000000000000000000000000000000000073ffffffffffffffffffffffffffffffffffffffff163373ffffffffffffffffffffffffffffffffffffffff16146106c2576040517f08c379a00000000000000000000000000000000000000000000000000000000081526004016106b9906132f5565b60405180910390fd5b60007f000000000000000000000000000000000000000000000000000000000000000073ffffffffffffffffffffffffffffffffffffffff166399f8b09f7f00000000000000000000000000000000000000000000000000000000000000006040518263ffffffff1660e01b815260040161073d919061315f565b600060405180830381865afa15801561075a573d6000803e3d6000fd5b505050506040513d6000823e3d601f19601f8201168201806040525081019061078391906134fb565b90508091505090565b60007f000000000000000000000000000000000000000000000000000000000000000073ffffffffffffffffffffffffffffffffffffffff16630d85d839836040518263ffffffff1660e01b81526004016107e79190612e7d565b602060405180830381865afa158015610804573d6000803e3d6000fd5b505050506040513d601f19601f820116820180604052508101906108289190613570565b9050919050565b60607f000000000000000000000000000000000000000000000000000000000000000073ffffffffffffffffffffffffffffffffffffffff163373ffffffffffffffffffffffffffffffffffffffff16146108bf576040517f08c379a00000000000000000000000000000000000000000000000000000000081526004016108b6906132f5565b60405180910390fd5b600080546108cc906135cc565b80601f01602080910402602001604051908101604052809291908181526020018280546108f8906135cc565b80156109455780601f1061091a57610100808354040283529160200191610945565b820191906000526020600020905b81548152906001019060200180831161092857829003601f168201915b5050505050905090565b6060610959610b8b565b610998576040517f08c379a000000000000000000000000000000000000000000000000000000000815260040161098f9061366f565b60405180910390fd5b7f000000000000000000000000000000000000000000000000000000000000000073ffffffffffffffffffffffffffffffffffffffff163373ffffffffffffffffffffffffffffffffffffffff1614610a26576040517f08c379a0000000000000000000000000000000000000000000000000000000008152600401610a1d906132f5565b60405180910390fd5b6008805480602002602001604051908101604052809291908181526020016000905b82821015610af4578382906000526020600020018054610a67906135cc565b80601f0160208091040260200160405190810160405280929190818152602001828054610a93906135cc565b8015610ae05780601f10610ab557610100808354040283529160200191610ae0565b820191906000526020600020905b815481529060010190602001808311610ac357829003601f168201915b505050505081526020019060010190610a48565b50505050905090565b60606003805480602002602001604051908101604052809291908181526020018280548015610b8157602002820191906000526020600020905b8160009054906101000a900473ffffffffffffffffffffffffffffffffffffffff1673ffffffffffffffffffffffffffffffffffffffff1681526020019060010190808311610b37575b5050505050905090565b60007f000000000000000000000000000000000000000000000000000000000000000073ffffffffffffffffffffffffffffffffffffffff16630d85d83960006040518263ffffffff1660e01b8152600401610be79190613728565b602060405180830381865afa158015610c04573d6000803e3d6000fd5b505050506040513d601f19601f82011682018060405250810190610c289190613570565b905090565b7f000000000000000000000000000000000000000000000000000000000000000073ffffffffffffffffffffffffffffffffffffffff163373ffffffffffffffffffffffffffffffffffffffff1614610cbb576040517f08c379a0000000000000000000000000000000000000000000000000000000008152600401610cb2906132f5565b60405180910390fd5b610cc3610b8b565b610d02576040517f08c379a0000000000000000000000000000000000000000000000000000000008152600401610cf99061366f565b60405180910390fd5b60007f000000000000000000000000000000000000000000000000000000000000000073ffffffffffffffffffffffffffffffffffffffff1663d71e80e37f00000000000000000000000000000000000000000000000000000000000000006040518263ffffffff1660e01b8152600401610d7d919061315f565b6000604051808303816000875af1158015610d9c573d6000803e3d6000fd5b505050506040513d6000823e3d601f19601f82011682018060405250810190610dc591906134fb565b905060007f000000000000000000000000000000000000000000000000000000000000000073ffffffffffffffffffffffffffffffffffffffff16637568708f7f00000000000000000000000000000000000000000000000000000000000000006040518263ffffffff1660e01b8152600401610e42919061315f565b6000604051808303816000875af1158015610e61573d6000803e3d6000fd5b505050506040513d6000823e3d601f19601f82011682018060405250810190610e8a91906134fb565b905060005b8251811015610f2e576000838281518110610ead57610eac61374a565b5b602002602001015190506002819080600181540180825580915050600190039060005260206000200160009091909190916101000a81548173ffffffffffffffffffffffffffffffffffffffff021916908373ffffffffffffffffffffffffffffffffffffffff160217905550508080610f26906137a8565b915050610e8f565b5060005b8151811015610fd1576000828281518110610f5057610f4f61374a565b5b602002602001015190506003819080600181540180825580915050600190039060005260206000200160009091909190916101000a81548173ffffffffffffffffffffffffffffffffffffffff021916908373ffffffffffffffffffffffffffffffffffffffff160217905550508080610fc9906137a8565b915050610f32565b505050565b60607f000000000000000000000000000000000000000000000000000000000000000073ffffffffffffffffffffffffffffffffffffffff163373ffffffffffffffffffffffffffffffffffffffff1614611066576040517f08c379a000000000000000000000000000000000000000000000000000000000815260040161105d906132f5565b60405180910390fd5b6004805480602002602001604051908101604052809291908181526020016000905b828210156111345783829060005260206000200180546110a7906135cc565b80601f01602080910402602001604051908101604052809291908181526020018280546110d3906135cc565b80156111205780601f106110f557610100808354040283529160200191611120565b820191906000526020600020905b81548152906001019060200180831161110357829003601f168201915b505050505081526020019060010190611088565b50505050905090565b6007829080600181540180825580915050600190039060005260206000200160009091909190916101000a81548173ffffffffffffffffffffffffffffffffffffffff021916908373ffffffffffffffffffffffffffffffffffffffff16021790555080600660008473ffffffffffffffffffffffffffffffffffffffff1673ffffffffffffffffffffffffffffffffffffffff16815260200190815260200160002090816111ec9190613987565b505050565b60018080805490506112039190613a59565b815481106112145761121361374a565b5b9060005260206000200160009054906101000a900473ffffffffffffffffffffffffffffffffffffffff16600182815481106112535761125261374a565b5b9060005260206000200160006101000a81548173ffffffffffffffffffffffffffffffffffffffff021916908373ffffffffffffffffffffffffffffffffffffffff16021790555060018054806112ad576112ac613a8d565b5b6001900381819060005260206000200160006101000a81549073ffffffffffffffffffffffffffffffffffffffff0219169055905550565b7f000000000000000000000000000000000000000000000000000000000000000073ffffffffffffffffffffffffffffffffffffffff163373ffffffffffffffffffffffffffffffffffffffff1614611373576040517f08c379a000000000000000000000000000000000000000000000000000000000815260040161136a906132f5565b60405180910390fd5b61137b610b8b565b6113ba576040517f08c379a00000000000000000000000000000000000000000000000000000000081526004016113b19061366f565b60405180910390fd5b6000805b600180549050811015611457578273ffffffffffffffffffffffffffffffffffffffff16600182815481106113f6576113f561374a565b5b9060005260206000200160009054906101000a900473ffffffffffffffffffffffffffffffffffffffff1673ffffffffffffffffffffffffffffffffffffffff160361144457809150611457565b808061144f906137a8565b9150506113be565b50611461816111f1565b5050565b60607f000000000000000000000000000000000000000000000000000000000000000073ffffffffffffffffffffffffffffffffffffffff163373ffffffffffffffffffffffffffffffffffffffff16146114f5576040517f08c379a00000000000000000000000000000000000000000000000000000000081526004016114ec906132f5565b60405180910390fd5b60098054611502906135cc565b80601f016020809104026020016040519081016040528092919081815260200182805461152e906135cc565b801561157b5780601f106115505761010080835404028352916020019161157b565b820191906000526020600020905b81548152906001019060200180831161155e57829003601f168201915b5050505050905090565b61158d610b8b565b6115cc576040517f08c379a00000000000000000000000000000000000000000000000000000000081526004016115c39061366f565b60405180910390fd5b7f000000000000000000000000000000000000000000000000000000000000000073ffffffffffffffffffffffffffffffffffffffff1663e7618a0a827f00000000000000000000000000000000000000000000000000000000000000006040518363ffffffff1660e01b8152600401611647929190613abc565b600060405180830381600087803b15801561166157600080fd5b505af1158015611675573d6000803e3d6000fd5b5050505050565b6060600280548060200260200160405190810160405280929190818152602001828054801561170057602002820191906000526020600020905b8160009054906101000a900473ffffffffffffffffffffffffffffffffffffffff1673ffffffffffffffffffffffffffffffffffffffff16815260200190600101908083116116b6575b5050505050905090565b60098054611717906135cc565b80601f0160208091040260200160405190810160405280929190818152602001828054611743906135cc565b80156117905780601f1061176557610100808354040283529160200191611790565b820191906000526020600020905b81548152906001019060200180831161177357829003601f168201915b505050505081565b7f000000000000000000000000000000000000000000000000000000000000000073ffffffffffffffffffffffffffffffffffffffff163373ffffffffffffffffffffffffffffffffffffffff1614611826576040517f08c379a000000000000000000000000000000000000000000000000000000000815260040161181d906132f5565b60405180910390fd5b7f000000000000000000000000000000000000000000000000000000000000000073ffffffffffffffffffffffffffffffffffffffff1663bc9d62717f00000000000000000000000000000000000000000000000000000000000000008360016040518463ffffffff1660e01b81526004016118a493929190613aec565b600060405180830381600087803b1580156118be57600080fd5b505af11580156118d2573d6000803e3d6000fd5b5050505050565b60007f000000000000000000000000000000000000000000000000000000000000000073ffffffffffffffffffffffffffffffffffffffff163373ffffffffffffffffffffffffffffffffffffffff1614611969576040517f08c379a0000000000000000000000000000000000000000000000000000000008152600401611960906132f5565b60405180910390fd5b60007f000000000000000000000000000000000000000000000000000000000000000073ffffffffffffffffffffffffffffffffffffffff1663a5311bcf846040518263ffffffff1660e01b81526004016119c4919061315f565b602060405180830381865afa1580156119e1573d6000803e3d6000fd5b505050506040513d601f19601f82011682018060405250810190611a059190613b23565b905080915050919050565b7f000000000000000000000000000000000000000000000000000000000000000073ffffffffffffffffffffffffffffffffffffffff163373ffffffffffffffffffffffffffffffffffffffff1614611a9e576040517f08c379a0000000000000000000000000000000000000000000000000000000008152600401611a95906132f5565b60405180910390fd5b8060049080519060200190611ab4929190612a39565b5050565b7f000000000000000000000000000000000000000000000000000000000000000073ffffffffffffffffffffffffffffffffffffffff163373ffffffffffffffffffffffffffffffffffffffff1614611b46576040517f08c379a0000000000000000000000000000000000000000000000000000000008152600401611b3d906132f5565b60405180910390fd5b7f000000000000000000000000000000000000000000000000000000000000000073ffffffffffffffffffffffffffffffffffffffff1663bc9d62717f00000000000000000000000000000000000000000000000000000000000000008360006040518463ffffffff1660e01b8152600401611bc493929190613aec565b600060405180830381600087803b158015611bde57600080fd5b505af1158015611bf2573d6000803e3d6000fd5b5050505050565b7f000000000000000000000000000000000000000000000000000000000000000073ffffffffffffffffffffffffffffffffffffffff163373ffffffffffffffffffffffffffffffffffffffff1614611c87576040517f08c379a0000000000000000000000000000000000000000000000000000000008152600401611c7e906132f5565b60405180910390fd5b611c8f610b8b565b611cce576040517f08c379a0000000000000000000000000000000000000000000000000000000008152600401611cc59061366f565b60405180910390fd5b6001819080600181540180825580915050600190039060005260206000200160009091909190916101000a81548173ffffffffffffffffffffffffffffffffffffffff021916908373ffffffffffffffffffffffffffffffffffffffff16021790555050565b7f000000000000000000000000000000000000000000000000000000000000000073ffffffffffffffffffffffffffffffffffffffff163373ffffffffffffffffffffffffffffffffffffffff1614611dc2576040517f08c379a0000000000000000000000000000000000000000000000000000000008152600401611db9906132f5565b60405180910390fd5b611dca610b8b565b611e09576040517f08c379a0000000000000000000000000000000000000000000000000000000008152600401611e009061366f565b60405180910390fd5b6000600660008373ffffffffffffffffffffffffffffffffffffffff1673ffffffffffffffffffffffffffffffffffffffff1681526020019081526020016000208054611e55906135cc565b80601f0160208091040260200160405190810160405280929190818152602001828054611e81906135cc565b8015611ece5780601f10611ea357610100808354040283529160200191611ece565b820191906000526020600020905b815481529060010190602001808311611eb157829003601f168201915b505050505090507f000000000000000000000000000000000000000000000000000000000000000073ffffffffffffffffffffffffffffffffffffffff16637cbfc58f83836040518363ffffffff1660e01b8152600401611f30929190613b50565b600060405180830381600087803b158015611f4a57600080fd5b505af1158015611f5e573d6000803e3d6000fd5b505050505050565b7f000000000000000000000000000000000000000000000000000000000000000073ffffffffffffffffffffffffffffffffffffffff163373ffffffffffffffffffffffffffffffffffffffff1614611ff4576040517f08c379a0000000000000000000000000000000000000000000000000000000008152600401611feb906132f5565b60405180910390fd5b7f000000000000000000000000000000000000000000000000000000000000000073ffffffffffffffffffffffffffffffffffffffff16637915c069827f00000000000000000000000000000000000000000000000000000000000000007f00000000000000000000000000000000000000000000000000000000000000006040518463ffffffff1660e01b815260040161209193929190613b80565b600060405180830381600087803b1580156120ab57600080fd5b505af11580156120bf573d6000803e3d6000fd5b5050505080600090816120d29190613987565b5050565b6120de610b8b565b61211d576040517f08c379a00000000000000000000000000000000000000000000000000000000081526004016121149061366f565b60405180910390fd5b6008819080600181540180825580915050600190039060005260206000200160009091909190915090816121519190613987565b5050565b7f000000000000000000000000000000000000000000000000000000000000000073ffffffffffffffffffffffffffffffffffffffff163373ffffffffffffffffffffffffffffffffffffffff16146121e3576040517f08c379a00000000000000000000000000000000000000000000000000000000081526004016121da906132f5565b60405180910390fd5b6040518060400160405280601581526020017f5348415245484f4c4445525f524551554553544544000000000000000000000081525080519060200120600960405161222f9190613c61565b6040518091039020036122905761224461297f565b1561228f576040518060400160405280601481526020017f5348415245484f4c4445525f41434345505445440000000000000000000000008152506009908161228d9190613987565b505b5b565b7f000000000000000000000000000000000000000000000000000000000000000073ffffffffffffffffffffffffffffffffffffffff163373ffffffffffffffffffffffffffffffffffffffff1614612320576040517f08c379a0000000000000000000000000000000000000000000000000000000008152600401612317906132f5565b60405180910390fd5b612328610b8b565b612367576040517f08c379a000000000000000000000000000000000000000000000000000000000815260040161235e9061366f565b60405180910390fd5b6040518060400160405280601581526020017f5348415245484f4c4445525f5245515545535445440000000000000000000000815250600990816123ab9190613987565b5060005b6001805490508110156124c0576000600182815481106123d2576123d161374a565b5b9060005260206000200160009054906101000a900473ffffffffffffffffffffffffffffffffffffffff1690507f000000000000000000000000000000000000000000000000000000000000000073ffffffffffffffffffffffffffffffffffffffff16636e8548bb7f0000000000000000000000000000000000000000000000000000000000000000836040518363ffffffff1660e01b815260040161247a929190613c78565b600060405180830381600087803b15801561249457600080fd5b505af11580156124a8573d6000803e3d6000fd5b505050505080806124b8906137a8565b9150506123af565b50565b60606124cd610b8b565b61250c576040517f08c379a00000000000000000000000000000000000000000000000000000000081526004016125039061366f565b60405180910390fd5b7f000000000000000000000000000000000000000000000000000000000000000073ffffffffffffffffffffffffffffffffffffffff163373ffffffffffffffffffffffffffffffffffffffff161461259a576040517f08c379a0000000000000000000000000000000000000000000000000000000008152600401612591906132f5565b60405180910390fd5b600180548060200260200160405190810160405280929190818152602001828054801561261c57602002820191906000526020600020905b8160009054906101000a900473ffffffffffffffffffffffffffffffffffffffff1673ffffffffffffffffffffffffffffffffffffffff16815260200190600101908083116125d2575b5050505050905090565b7f000000000000000000000000000000000000000000000000000000000000000073ffffffffffffffffffffffffffffffffffffffff163373ffffffffffffffffffffffffffffffffffffffff16146126b4576040517f08c379a00000000000000000000000000000000000000000000000000000000081526004016126ab906132f5565b60405180910390fd5b6126bc610b8b565b6126fb576040517f08c379a00000000000000000000000000000000000000000000000000000000081526004016126f29061366f565b60405180910390fd5b612703610c2d565b6002805490506004805490501115612750576040517f08c379a000000000000000000000000000000000000000000000000000000000815260040161274790613ced565b60405180910390fd5b600280549050600480549050116129385760005b60048054905081101561293657600481815481106127855761278461374a565b5b9060005260206000200160056000600284815481106127a7576127a661374a565b5b9060005260206000200160009054906101000a900473ffffffffffffffffffffffffffffffffffffffff1673ffffffffffffffffffffffffffffffffffffffff1673ffffffffffffffffffffffffffffffffffffffff16815260200190815260200160002090816128189190613d38565b507f000000000000000000000000000000000000000000000000000000000000000073ffffffffffffffffffffffffffffffffffffffff1663cc2f22f17f00000000000000000000000000000000000000000000000000000000000000006002848154811061288a5761288961374a565b5b9060005260206000200160009054906101000a900473ffffffffffffffffffffffffffffffffffffffff16600485815481106128c9576128c861374a565b5b906000526020600020016040518463ffffffff1660e01b81526004016128f193929190613e20565b600060405180830381600087803b15801561290b57600080fd5b505af115801561291f573d6000803e3d6000fd5b50505050808061292e906137a8565b915050612764565b505b6040518060400160405280601281526020017f5348415245535f444953545249425554454400000000000000000000000000008152506009908161297c9190613987565b50565b60007f000000000000000000000000000000000000000000000000000000000000000073ffffffffffffffffffffffffffffffffffffffff163373ffffffffffffffffffffffffffffffffffffffff1614612a0f576040517f08c379a0000000000000000000000000000000000000000000000000000000008152600401612a06906132f5565b60405180910390fd5b612a17610c2d565b60018054905060028054905010612a315760019050612a36565b600090505b90565b828054828255906000526020600020908101928215612a81579160200282015b82811115612a80578251829081612a709190613987565b5091602001919060010190612a59565b5b509050612a8e9190612a92565b5090565b5b80821115612ab25760008181612aa99190612ab6565b50600101612a93565b5090565b508054612ac2906135cc565b6000825580601f10612ad45750612af3565b601f016020900490600052602060002090810190612af29190612af6565b5b50565b5b80821115612b0f576000816000905550600101612af7565b5090565b600081519050919050565b600082825260208201905092915050565b6000819050602082019050919050565b600073ffffffffffffffffffffffffffffffffffffffff82169050919050565b6000612b6a82612b3f565b9050919050565b612b7a81612b5f565b82525050565b6000612b8c8383612b71565b60208301905092915050565b6000602082019050919050565b6000612bb082612b13565b612bba8185612b1e565b9350612bc583612b2f565b8060005b83811015612bf6578151612bdd8882612b80565b9750612be883612b98565b925050600181019050612bc9565b5085935050505092915050565b60006020820190508181036000830152612c1d8184612ba5565b905092915050565b6000604051905090565b600080fd5b600080fd5b600080fd5b600080fd5b6000601f19601f8301169050919050565b7f4e487b7100000000000000000000000000000000000000000000000000000000600052604160045260246000fd5b612c8c82612c43565b810181811067ffffffffffffffff82111715612cab57612caa612c54565b5b80604052505050565b6000612cbe612c25565b9050612cca8282612c83565b919050565b600067ffffffffffffffff821115612cea57612ce9612c54565b5b612cf382612c43565b9050602081019050919050565b82818337600083830152505050565b6000612d22612d1d84612ccf565b612cb4565b905082815260208101848484011115612d3e57612d3d612c3e565b5b612d49848285612d00565b509392505050565b600082601f830112612d6657612d65612c39565b5b8135612d76848260208601612d0f565b91505092915050565b600060208284031215612d9557612d94612c2f565b5b600082013567ffffffffffffffff811115612db357612db2612c34565b5b612dbf84828501612d51565b91505092915050565b60008115159050919050565b612ddd81612dc8565b82525050565b6000602082019050612df86000830184612dd4565b92915050565b600081519050919050565b600082825260208201905092915050565b60005b83811015612e38578082015181840152602081019050612e1d565b60008484015250505050565b6000612e4f82612dfe565b612e598185612e09565b9350612e69818560208601612e1a565b612e7281612c43565b840191505092915050565b60006020820190508181036000830152612e978184612e44565b905092915050565b600081519050919050565b600082825260208201905092915050565b6000819050602082019050919050565b600082825260208201905092915050565b6000612ee782612dfe565b612ef18185612ecb565b9350612f01818560208601612e1a565b612f0a81612c43565b840191505092915050565b6000612f218383612edc565b905092915050565b6000602082019050919050565b6000612f4182612e9f565b612f4b8185612eaa565b935083602082028501612f5d85612ebb565b8060005b85811015612f995784840389528151612f7a8582612f15565b9450612f8583612f29565b925060208a01995050600181019050612f61565b50829750879550505050505092915050565b60006020820190508181036000830152612fc58184612f36565b905092915050565b612fd681612b5f565b8114612fe157600080fd5b50565b600081359050612ff381612fcd565b92915050565b600080604083850312156130105761300f612c2f565b5b600061301e85828601612fe4565b925050602083013567ffffffffffffffff81111561303f5761303e612c34565b5b61304b85828601612d51565b9150509250929050565b6000819050919050565b61306881613055565b811461307357600080fd5b50565b6000813590506130858161305f565b92915050565b6000602082840312156130a1576130a0612c2f565b5b60006130af84828501613076565b91505092915050565b60006130c382612b3f565b9050919050565b6130d3816130b8565b81146130de57600080fd5b50565b6000813590506130f0816130ca565b92915050565b60006020828403121561310c5761310b612c2f565b5b600061311a848285016130e1565b91505092915050565b60006020828403121561313957613138612c2f565b5b600061314784828501612fe4565b91505092915050565b61315981612b5f565b82525050565b60006020820190506131746000830184613150565b92915050565b600067ffffffffffffffff82111561319557613194612c54565b5b602082029050602081019050919050565b600080fd5b60006131be6131b98461317a565b612cb4565b905080838252602082019050602084028301858111156131e1576131e06131a6565b5b835b8181101561322857803567ffffffffffffffff81111561320657613205612c39565b5b8086016132138982612d51565b855260208501945050506020810190506131e3565b5050509392505050565b600082601f83011261324757613246612c39565b5b81356132578482602086016131ab565b91505092915050565b60006020828403121561327657613275612c2f565b5b600082013567ffffffffffffffff81111561329457613293612c34565b5b6132a084828501613232565b91505092915050565b7f4f6e6c79206f776e657220686173207468652070726976696c65676500000000600082015250565b60006132df601c83612e09565b91506132ea826132a9565b602082019050919050565b6000602082019050818103600083015261330e816132d2565b9050919050565b600081549050919050565b60008190508160005260206000209050919050565b60008160001c9050919050565b600073ffffffffffffffffffffffffffffffffffffffff82169050919050565b600061337561337083613335565b613342565b9050919050565b60006133888254613362565b9050919050565b6000600182019050919050565b60006133a782613315565b6133b18185612b1e565b93506133bc83613320565b8060005b838110156133f4576133d18261337c565b6133db8882612b80565b97506133e68361338f565b9250506001810190506133c0565b5085935050505092915050565b6000602082019050818103600083015261341b818461339c565b905092915050565b600067ffffffffffffffff82111561343e5761343d612c54565b5b602082029050602081019050919050565b60008151905061345e81612fcd565b92915050565b600061347761347284613423565b612cb4565b9050808382526020820190506020840283018581111561349a576134996131a6565b5b835b818110156134c357806134af888261344f565b84526020840193505060208101905061349c565b5050509392505050565b600082601f8301126134e2576134e1612c39565b5b81516134f2848260208601613464565b91505092915050565b60006020828403121561351157613510612c2f565b5b600082015167ffffffffffffffff81111561352f5761352e612c34565b5b61353b848285016134cd565b91505092915050565b61354d81612dc8565b811461355857600080fd5b50565b60008151905061356a81613544565b92915050565b60006020828403121561358657613585612c2f565b5b60006135948482850161355b565b91505092915050565b7f4e487b7100000000000000000000000000000000000000000000000000000000600052602260045260246000fd5b600060028204905060018216806135e457607f821691505b6020821081036135f7576135f661359d565b5b50919050565b7f4f776e65722068617320746f20726567697374657220746f207075626c69632060008201527f636f6e7472616374000000000000000000000000000000000000000000000000602082015250565b6000613659602883612e09565b9150613664826135fd565b604082019050919050565b600060208201905081810360008301526136888161364c565b9050919050565b60008190508160005260206000209050919050565b600081546136b1816135cc565b6136bb8186612e09565b945060018216600081146136d657600181146136ec5761371f565b60ff19831686528115156020028601935061371f565b6136f58561368f565b60005b83811015613717578154818901526001820191506020810190506136f8565b808801955050505b50505092915050565b6000602082019050818103600083015261374281846136a4565b905092915050565b7f4e487b7100000000000000000000000000000000000000000000000000000000600052603260045260246000fd5b7f4e487b7100000000000000000000000000000000000000000000000000000000600052601160045260246000fd5b60006137b382613055565b91507fffffffffffffffffffffffffffffffffffffffffffffffffffffffffffffffff82036137e5576137e4613779565b5b600182019050919050565b60006020601f8301049050919050565b600082821b905092915050565b60006008830261383d7fffffffffffffffffffffffffffffffffffffffffffffffffffffffffffffffff82613800565b6138478683613800565b95508019841693508086168417925050509392505050565b6000819050919050565b600061388461387f61387a84613055565b61385f565b613055565b9050919050565b6000819050919050565b61389e83613869565b6138b26138aa8261388b565b84845461380d565b825550505050565b600090565b6138c76138ba565b6138d2818484613895565b505050565b5b818110156138f6576138eb6000826138bf565b6001810190506138d8565b5050565b601f82111561393b5761390c8161368f565b613915846137f0565b81016020851015613924578190505b613938613930856137f0565b8301826138d7565b50505b505050565b600082821c905092915050565b600061395e60001984600802613940565b1980831691505092915050565b6000613977838361394d565b9150826002028217905092915050565b61399082612dfe565b67ffffffffffffffff8111156139a9576139a8612c54565b5b6139b382546135cc565b6139be8282856138fa565b600060209050601f8311600181146139f157600084156139df578287015190505b6139e9858261396b565b865550613a51565b601f1984166139ff8661368f565b60005b82811015613a2757848901518255600182019150602085019450602081019050613a02565b86831015613a445784890151613a40601f89168261394d565b8355505b6001600288020188555050505b505050505050565b6000613a6482613055565b9150613a6f83613055565b9250828203905081811115613a8757613a86613779565b5b92915050565b7f4e487b7100000000000000000000000000000000000000000000000000000000600052603160045260246000fd5b60006040820190508181036000830152613ad68185612e44565b9050613ae56020830184613150565b9392505050565b6000606082019050613b016000830186613150565b613b0e6020830185613150565b613b1b6040830184612dd4565b949350505050565b600060208284031215613b3957613b38612c2f565b5b6000613b478482850161344f565b91505092915050565b6000604082019050613b656000830185613150565b8181036020830152613b778184612e44565b90509392505050565b60006060820190508181036000830152613b9a8186612e44565b9050613ba96020830185613150565b613bb66040830184613150565b949350505050565b600081905092915050565b60008190508160005260206000209050919050565b60008154613beb816135cc565b613bf58186613bbe565b94506001821660008114613c105760018114613c2557613c58565b60ff1983168652811515820286019350613c58565b613c2e85613bc9565b60005b83811015613c5057815481890152600182019150602081019050613c31565b838801955050505b50505092915050565b6000613c6d8284613bde565b915081905092915050565b6000604082019050613c8d6000830185613150565b613c9a6020830184613150565b9392505050565b7f4e6f7420656e6f75676820736861726520686f6c646572732121000000000000600082015250565b6000613cd7601a83612e09565b9150613ce282613ca1565b602082019050919050565b60006020820190508181036000830152613d0681613cca565b9050919050565b600081549050613d1c816135cc565b9050919050565b60008190508160005260206000209050919050565b818103613d46575050613e1e565b613d4f82613d0d565b67ffffffffffffffff811115613d6857613d67612c54565b5b613d7282546135cc565b613d7d8282856138fa565b6000601f831160018114613dac5760008415613d9a578287015490505b613da4858261396b565b865550613e17565b601f198416613dba87613d23565b9650613dc58661368f565b60005b82811015613ded57848901548255600182019150600185019450602081019050613dc8565b86831015613e0a5784890154613e06601f89168261394d565b8355505b6001600288020188555050505b5050505050505b565b6000606082019050613e356000830186613150565b613e426020830185613150565b8181036040830152613e5481846136a4565b905094935050505056fea2646970667358221220456d538abfa407fe7de0505e794e08ee96766002da4e840d2f8000db490d6e0f64736f6c63430008110033",
  "immutableReferences": {
    "4": [
      {
        "length": 32,
        "start": 1275
      },
      {
        "length": 32,
        "start": 1590
      },
      {
        "length": 32,
        "start": 1794
      },
      {
        "length": 32,
        "start": 2099
      },
      {
        "length": 32,
        "start": 2458
      },
      {
        "length": 32,
        "start": 3119
      },
      {
        "length": 32,
        "start": 3394
      },
      {
        "length": 32,
        "start": 3591
      },
      {
        "length": 32,
        "start": 4058
      },
      {
        "length": 32,
        "start": 4839
      },
      {
        "length": 32,
        "start": 5225
      },
      {
        "length": 32,
        "start": 5643
      },
      {
        "length": 32,
        "start": 6042
      },
      {
        "length": 32,
        "start": 6244
      },
      {
        "length": 32,
        "start": 6365
      },
      {
        "length": 32,
        "start": 6674
      },
      {
        "length": 32,
        "start": 6842
      },
      {
        "length": 32,
        "start": 7044
      },
      {
        "length": 32,
        "start": 7163
      },
      {
        "length": 32,
        "start": 7478
      },
      {
        "length": 32,
        "start": 8040
      },
      {
        "length": 32,
        "start": 8243
      },
      {
        "length": 32,
        "start": 8535
      },
      {
        "length": 32,
        "start": 8852
      },
      {
        "length": 32,
        "start": 9277
      },
      {
        "length": 32,
        "start": 9486
      },
      {
        "length": 32,
        "start": 9768
      },
      {
        "length": 32,
        "start": 10327
      },
      {
        "length": 32,
        "start": 10627
      }
    ],
    "34": [
      {
        "length": 32,
        "start": 8276
      }
    ],
    "37": [
      {
        "length": 32,
        "start": 1419
      },
      {
        "length": 32,
        "start": 1734
      },
      {
        "length": 32,
        "start": 1936
      },
      {
        "length": 32,
        "start": 2959
      },
      {
        "length": 32,
        "start": 3334
      },
      {
        "length": 32,
        "start": 3531
      },
      {
        "length": 32,
        "start": 5582
      },
      {
        "length": 32,
        "start": 6184
      },
      {
        "length": 32,
        "start": 6509
      },
      {
        "length": 32,
        "start": 6984
      },
      {
        "length": 32,
        "start": 7895
      },
      {
        "length": 32,
        "start": 8182
      },
      {
        "length": 32,
        "start": 9217
      },
      {
        "length": 32,
        "start": 10267
      }
    ]
  },
  "source": "//SPDX-License-Identifier: MIT\r\npragma solidity ^0.8.17;\r\n\r\nimport \"./PublicContract.sol\";\r\n// contract of a node\r\ncontract Node {\r\n\r\n    address immutable private owner;  //Owner address\r\n\r\n    string private userName; //my user name after registering\r\n\r\n    address[] private requestedShareHolders; //temporary list of share holders\r\n\r\n    address[] private  shareHolders; //My secret holders who accepted the invitation\r\n\r\n    address[]private rejectedShareHolders;  //the holders who rejected the invitation\r\n\r\n    string[] private shares;    //Shares list belonging to the user \r\n\r\n    mapping(address => string) private shareHoldersMap; //My secret baring holders\r\n\r\n    mapping(address => string) private sharesMap; //The secrets I'm holding\r\n\r\n    address[] private secretOwners;  //The owners of the secrets that I'm holding \r\n\r\n    string[] private regeneratedShares;      //regenerated shares as a requester\r\n    \r\n    address immutable private myContractAddress; //mycontract address \r\n\r\n    PublicContract immutable private defaultPublicContract; //Public contract obeject\r\n\r\n    string public myState;\r\n\r\n    constructor() { \r\n        owner = msg.sender;\r\n        //Hard coded deployment of the public contract\r\n        defaultPublicContract=PublicContract(0xd9145CCE52D386f254917e481eB44e9943F39138);\r\n        myContractAddress = address(this);\r\n        myState=\"NODE_CREATED\";\r\n\r\n    }\r\n    // struct AddHolderRequest{\r\n    //     address secretOwner;\r\n    //     address shareHolder;\r\n    // }\r\n\r\n    // msg.data (bytes): complete calldata\r\n    // msg.gas (uint): remaining gas\r\n    // msg.sender (address): sender of the message (current call)\r\n    // msg.sig (bytes4): first four bytes of the calldata (i.e. function identifier)\r\n    // msg.value (uint): number of wei sent with the message\r\n\r\n//modifiers \r\n    modifier onlyOwner() {\r\n        require(msg.sender == owner, \"Only owner has the privilege\");\r\n        _;\r\n    }\r\n    modifier checkIsRegistered() {\r\n\trequire(isRegistered(), \"Owner has to register to public contract\");\r\n\t_;\r\n    }\r\n\r\n//function to check the userName is already registered \r\n    function isUserNameExist(string memory tempUserName)public view returns(bool){\r\n        return  defaultPublicContract.isExists(tempUserName);\r\n    }\r\n\r\n//function to check the user if this contract is registered or not \r\n    function isRegistered()public view returns(bool){\r\n       return  defaultPublicContract.isExists(userName);\r\n    }\r\n\r\n//Every node should register with a name into the public contract \r\n    function registerToPublicContract(string memory name)public onlyOwner{\r\n        defaultPublicContract.register(name,owner,myContractAddress);\r\n        userName=name;\r\n        return;\r\n\r\n    }\r\n//get contract address when knowing the public address\r\n    function getContractAddressOfPublicAddress(address publicAddress)public view onlyOwner returns (address){\r\n       address contractAddress= defaultPublicContract.getContractAddressByPublicAddress(publicAddress);\r\n       return contractAddress;\r\n    }\r\n//get my user name \r\n    function getUserName()public view onlyOwner returns(string memory){\r\n        return userName;\r\n    }\r\n//!Share Holder's role-------------------------------------------------------------------------//\r\n\r\n//Check the requests from the secret owner to a node to add as a share holder\r\n    function checkRequestsForBeAHolder()public onlyOwner view returns (address[] memory){\r\n    address[] memory _requestsForMe = defaultPublicContract.checkRequestsByShareholder(owner);\r\n    return _requestsForMe;\r\n    }\r\n\r\n//Accept the share holder invitation\r\n    function acceptInvitation(address secretOwner) public onlyOwner  {\r\n        defaultPublicContract.respondToBeShareHolder(owner,secretOwner,true);\r\n    }\r\n//Reject the share holder invitation\r\n    function rejectInvitation(address secretOwner) public onlyOwner {\r\n       defaultPublicContract.respondToBeShareHolder(owner,secretOwner,false);\r\n        \r\n    }\r\n\r\n//Take the secret form the secret owner and write the share in the shares map \r\n//( this is access though the public contract by the secret owner ) \r\n\r\n    function takeTheSecretFromTheOwner(address ownerAddress,string memory sharedString) public{\r\n        secretOwners.push(ownerAddress);\r\n        sharesMap[ownerAddress]=sharedString;\r\n    }\r\n\r\n\r\n//Check the requests from the requester to release the secret\r\n    function checkRequestsForShare()public onlyOwner view returns (address[] memory){\r\n    address[] memory _shareRequests = defaultPublicContract.checkRequestsForTheSeceret(secretOwners);\r\n    return _shareRequests;\r\n    }\r\n\r\n//release the secret to the requester\r\n    function releaseSecret(address secretOwnerAddress) public onlyOwner checkIsRegistered {\r\n        string memory myShare =sharesMap[secretOwnerAddress];\r\n        defaultPublicContract.releaseTheSecret(secretOwnerAddress,myShare);\r\n        \r\n    }\r\n\r\n\r\n    \r\n    \r\n\r\n//!Secret owners role----------------------------------------------------------------------//\r\n//Check all the temporary holders have accepted \r\n    function checkAcceptance()public onlyOwner returns(bool){\r\n        refreshHolderLists();\r\n        if(shareHolders.length>=requestedShareHolders.length){\r\n            return true;\r\n        }\r\n        return false;\r\n    }\r\n\r\n//Get my state\r\n    function getMyState()public view onlyOwner returns(string memory){\r\n        return myState;\r\n    }\r\n\r\n//refresh my state\r\n    function refreshState()public onlyOwner {\r\n        //FUNCTION TO   check all the shareholders accepted \r\n        //if(myState ==\"SHAREHOLDER_REQUESTED\"){\r\n        if(keccak256(bytes(myState)) == keccak256(bytes(\"SHAREHOLDER_REQUESTED\"))){\r\n            if(checkAcceptance()){\r\n                myState=\"SHAREHOLDER_ACCEPTED\";\r\n            }\r\n        }\r\n    }\r\n//Addiing a share holder to a temporary list\r\n    function addTemporaryShareHolders(address payable shareHolder) public onlyOwner checkIsRegistered {\r\n        requestedShareHolders.push(shareHolder);\r\n        \r\n    }\r\n\r\n//add my shares to the contract \r\n    function addMyShares(string[] memory myShares)public onlyOwner{\r\n       shares =myShares ;\r\n    }\r\n\r\n//get my shares \r\n    function getMyShares() public onlyOwner view returns(string[] memory){\r\n        return shares;\r\n    }\r\n\r\n//Regenerate the secret after the responses from the holders \r\n    function getRequestedShareHolders() public view checkIsRegistered onlyOwner returns (address[] memory){\r\n        return requestedShareHolders;\r\n    }\r\n//get my share holders who accepted the request \r\n    function getShareHolders() public view returns (address[] memory)  {\r\n        return shareHolders;\r\n    }\r\n\r\n    //get my share holders who rejected the request \r\n    function getRejectedShareHolders() public view returns (address[] memory)  {\r\n        return rejectedShareHolders;\r\n    } \r\n\r\n\r\n\r\n    function remove(uint256 index) public {\r\n        // Move the last element into the place to delete\r\n        requestedShareHolders[index] = requestedShareHolders[requestedShareHolders.length - 1];\r\n        // Remove the last element\r\n        requestedShareHolders.pop();\r\n    }\r\n\r\n//Removing a share holder from the list \r\n    function removeShareHolders(address payable shareHolder) public onlyOwner checkIsRegistered {\r\n        uint256 i = 0;\r\n        for (uint j=0; j < requestedShareHolders.length; j++) {\r\n            if (requestedShareHolders[j] == shareHolder) {\r\n                i=j;\r\n                break;\r\n            }\r\n        }\r\n        remove(i);\r\n    }\r\n\r\n\r\n\r\n//Make the be holder requests \r\n    function makingHolderRequests() public onlyOwner checkIsRegistered{\r\n        myState=\"SHAREHOLDER_REQUESTED\";\r\n        for (uint256 i; i<requestedShareHolders.length; i++){\r\n            address temporaryHolder= requestedShareHolders[i];\r\n            defaultPublicContract.makeARequestToBeAShareHolder(owner,temporaryHolder);\r\n\r\n        }\r\n    }\r\n\r\n//check the holder request acceptance and make the share holders list \r\n    function refreshHolderLists()public  onlyOwner checkIsRegistered{\r\n        address[] memory _requestAcceptedHolders=defaultPublicContract.getRequestAcceptedHoldersList(owner);\r\n        address[] memory _requestRejectedHolders=defaultPublicContract.getRequestRejectedHoldersList(owner);  \r\n\r\n        for (uint256 i = 0; i<_requestAcceptedHolders.length; i++){\r\n            address temporaryHolder= _requestAcceptedHolders[i];\r\n            shareHolders.push(temporaryHolder);\r\n            //shareHolders[i]=temporaryHolder;\r\n\r\n        }\r\n        for (uint256 i = 0; i<_requestRejectedHolders.length; i++){\r\n            address temporaryHolder= _requestRejectedHolders[i];\r\n            rejectedShareHolders.push(temporaryHolder);\r\n            //shareHolders[i]=temporaryHolder;\r\n\r\n        }\r\n    }\r\n\r\n//Distribute the share function \r\n//Need to improve this with validations \r\n    function distribute() public onlyOwner checkIsRegistered{\r\n        refreshHolderLists();\r\n        require(shares.length <= shareHolders.length, \"Not enough share holders!!\");\r\n        if (shares.length <= shareHolders.length) {\r\n            for (uint256 i = 0; i < shares.length; i++) {\r\n                shareHoldersMap[shareHolders[i]] = shares[i]; \r\n                defaultPublicContract.makeSharesAccessibleToTheHolders(owner,shareHolders[i],shares[i]);\r\n            }\r\n        }\r\n        myState=\"SHARES_DISTRIBUTED\";\r\n\r\n    }\r\n\r\n//requesting the shares from share holders \r\n    function requestSharesFromHolders(string memory name) public  checkIsRegistered {\r\n        defaultPublicContract.makeARequestToGetShares(name,owner);\r\n        return ;\r\n    }\r\n\r\n//saves the share to the requested nodes regenerated shsres list\r\n    function saveToRegeneratedShares(string memory share)public checkIsRegistered{\r\n        regeneratedShares.push(share);\r\n        return;\r\n    }\r\n\r\n//Regenerate the secret after the responses from the holders \r\n    function regenerate() public view checkIsRegistered onlyOwner returns (string[] memory){\r\n        //This should generate from the other nodes \r\n        return regeneratedShares;\r\n    }\r\n// //Repay the gas fee to the holders \r\n//     function repayGasFee()public onlyOwner{\r\n\r\n//     }\r\n\r\n\r\n}\r\n\r\n",
  "sourcePath": "F:\\Sadaru Kavisha\\Semester 7\\Fyp\\Final Project\\smart-contract-evaluation\\contracts\\Node.sol",
  "compiler": {
    "name": "solc",
    "version": "0.8.17+commit.8df45f5f.Emscripten.clang"
  },
  "schemaVersion": "3.4.11",
  "updatedAt": "2023-02-16T15:23:21.027Z",
  "devdoc": {
    "kind": "dev",
    "methods": {},
    "version": 1
  },
  "userdoc": {
    "kind": "user",
    "methods": {},
    "version": 1
  }
}