{
  "contractName": "PublicContract",
  "abi": [
    {
      "inputs": [
        {
          "internalType": "string",
          "name": "name",
          "type": "string"
        }
      ],
      "name": "isExists",
      "outputs": [
        {
          "internalType": "bool",
          "name": "",
          "type": "bool"
        }
      ],
      "stateMutability": "view",
      "type": "function"
    },
    {
      "inputs": [
        {
          "internalType": "string",
          "name": "name",
          "type": "string"
        },
        {
          "internalType": "address",
          "name": "publicAddress",
          "type": "address"
        },
        {
          "internalType": "address",
          "name": "myContractAddress",
          "type": "address"
        }
      ],
      "name": "register",
      "outputs": [],
      "stateMutability": "nonpayable",
      "type": "function"
    },
    {
      "inputs": [
        {
          "internalType": "string",
          "name": "name",
          "type": "string"
        }
      ],
      "name": "getContractAddressByName",
      "outputs": [
        {
          "components": [
            {
              "internalType": "address",
              "name": "publicAddress",
              "type": "address"
            },
            {
              "internalType": "address",
              "name": "contractAddress",
              "type": "address"
            }
          ],
          "internalType": "struct PublicContract.SampleNode",
          "name": "",
          "type": "tuple"
        }
      ],
      "stateMutability": "view",
      "type": "function"
    },
    {
      "inputs": [
        {
          "internalType": "address",
          "name": "publicAddress",
          "type": "address"
        }
      ],
      "name": "getContractAddressByPublicAddress",
      "outputs": [
        {
          "internalType": "address",
          "name": "",
          "type": "address"
        }
      ],
      "stateMutability": "view",
      "type": "function"
    },
    {
      "inputs": [
        {
          "internalType": "address",
          "name": "holderAddress",
          "type": "address"
        }
      ],
      "name": "checkRequestsByShareholder",
      "outputs": [
        {
          "internalType": "address[]",
          "name": "",
          "type": "address[]"
        }
      ],
      "stateMutability": "view",
      "type": "function"
    },
    {
      "inputs": [
        {
          "internalType": "address",
          "name": "holderAddress",
          "type": "address"
        }
      ],
      "name": "getSecretOwnerAddressesCountInHolderRequests",
      "outputs": [
        {
          "internalType": "uint256",
          "name": "",
          "type": "uint256"
        }
      ],
      "stateMutability": "view",
      "type": "function"
    },
    {
      "inputs": [
        {
          "internalType": "address[]",
          "name": "secretOwners",
          "type": "address[]"
        }
      ],
      "name": "checkRequestsForTheSeceret",
      "outputs": [
        {
          "internalType": "address[]",
          "name": "",
          "type": "address[]"
        }
      ],
      "stateMutability": "view",
      "type": "function"
    },
    {
      "inputs": [
        {
          "internalType": "address[]",
          "name": "secretOwners",
          "type": "address[]"
        }
      ],
      "name": "getSecretOwnerAddressesCountInSecretRequests",
      "outputs": [
        {
          "internalType": "uint256",
          "name": "",
          "type": "uint256"
        }
      ],
      "stateMutability": "view",
      "type": "function"
    },
    {
      "inputs": [
        {
          "internalType": "address",
          "name": "secretOwner",
          "type": "address"
        },
        {
          "internalType": "string",
          "name": "sharedString",
          "type": "string"
        }
      ],
      "name": "releaseTheSecret",
      "outputs": [],
      "stateMutability": "nonpayable",
      "type": "function"
    },
    {
      "inputs": [
        {
          "internalType": "uint256",
          "name": "index",
          "type": "uint256"
        }
      ],
      "name": "removeFromHolderRequestList",
      "outputs": [],
      "stateMutability": "nonpayable",
      "type": "function"
    },
    {
      "inputs": [
        {
          "internalType": "uint256",
          "name": "index",
          "type": "uint256"
        }
      ],
      "name": "removeFromHolderAcceptedList",
      "outputs": [],
      "stateMutability": "nonpayable",
      "type": "function"
    },
    {
      "inputs": [
        {
          "internalType": "uint256",
          "name": "index",
          "type": "uint256"
        }
      ],
      "name": "removeFromHolderRejectedList",
      "outputs": [],
      "stateMutability": "nonpayable",
      "type": "function"
    },
    {
      "inputs": [
        {
          "internalType": "address",
          "name": "shareHolder",
          "type": "address"
        },
        {
          "internalType": "address",
          "name": "secretOwner",
          "type": "address"
        },
        {
          "internalType": "bool",
          "name": "acceptance",
          "type": "bool"
        }
      ],
      "name": "respondToBeShareHolder",
      "outputs": [],
      "stateMutability": "nonpayable",
      "type": "function"
    },
    {
      "inputs": [
        {
          "internalType": "address",
          "name": "secretOwner",
          "type": "address"
        },
        {
          "internalType": "address",
          "name": "holder",
          "type": "address"
        }
      ],
      "name": "makeARequestToBeAShareHolder",
      "outputs": [],
      "stateMutability": "nonpayable",
      "type": "function"
    },
    {
      "inputs": [
        {
          "internalType": "address",
          "name": "ownerAddress",
          "type": "address"
        }
      ],
      "name": "getSecretHolderAddressesCountInAcceptedHoldersList",
      "outputs": [
        {
          "internalType": "uint256",
          "name": "",
          "type": "uint256"
        }
      ],
      "stateMutability": "view",
      "type": "function"
    },
    {
      "inputs": [
        {
          "internalType": "address",
          "name": "secretOwner",
          "type": "address"
        }
      ],
      "name": "getRequestAcceptedHoldersList",
      "outputs": [
        {
          "internalType": "address[]",
          "name": "",
          "type": "address[]"
        }
      ],
      "stateMutability": "nonpayable",
      "type": "function"
    },
    {
      "inputs": [
        {
          "internalType": "address",
          "name": "ownerAddress",
          "type": "address"
        }
      ],
      "name": "getSecretHolderAddressesCountInRejectedHoldersList",
      "outputs": [
        {
          "internalType": "uint256",
          "name": "",
          "type": "uint256"
        }
      ],
      "stateMutability": "view",
      "type": "function"
    },
    {
      "inputs": [
        {
          "internalType": "address",
          "name": "secretOwner",
          "type": "address"
        }
      ],
      "name": "getRequestRejectedHoldersList",
      "outputs": [
        {
          "internalType": "address[]",
          "name": "",
          "type": "address[]"
        }
      ],
      "stateMutability": "nonpayable",
      "type": "function"
    },
    {
      "inputs": [
        {
          "internalType": "address",
          "name": "secretOwner",
          "type": "address"
        },
        {
          "internalType": "address",
          "name": "holder",
          "type": "address"
        },
        {
          "internalType": "string",
          "name": "sharedString",
          "type": "string"
        }
      ],
      "name": "makeSharesAccessibleToTheHolders",
      "outputs": [],
      "stateMutability": "nonpayable",
      "type": "function"
    },
    {
      "inputs": [
        {
          "internalType": "string",
          "name": "name",
          "type": "string"
        },
        {
          "internalType": "address",
          "name": "requesterAddress",
          "type": "address"
        }
      ],
      "name": "makeARequestToGetShares",
      "outputs": [],
      "stateMutability": "nonpayable",
      "type": "function"
    }
  ],
  "bytecode": "0x608060405234801561001057600080fd5b5061334c806100206000396000f3fe608060405234801561001057600080fd5b506004361061012c5760003560e01c806382760fca116100ad578063c588234411610071578063c588234414610389578063cc2f22f1146103b9578063d71e80e3146103d5578063e7618a0a14610405578063ec6ea3aa146104215761012c565b806382760fca146102c157806395f32d8d146102f157806399f8b09f1461030d578063a5311bcf1461033d578063bc9d62711461036d5761012c565b80636e8548bb116100f45780636e8548bb1461020d57806374cf3e51146102295780637568708f146102595780637915c069146102895780637cbfc58f146102a55761012c565b8063029253b81461013157806309da40ae1461014d5780630d85d8391461017d57806314338f9d146101ad57806354f5fcba146101dd575b600080fd5b61014b6004803603810190610146919061260a565b61043d565b005b610167600480360381019061016291906127ee565b6105df565b6040516101749190612846565b60405180910390f35b61019760048036038101906101929190612916565b61080a565b6040516101a4919061297a565b60405180910390f35b6101c760048036038101906101c29190612995565b610893565b6040516101d49190612846565b60405180910390f35b6101f760048036038101906101f29190612995565b6109ec565b6040516102049190612846565b60405180910390f35b610227600480360381019061022291906129c2565b610b45565b005b610243600480360381019061023e9190612995565b610c4b565b6040516102509190612846565b60405180910390f35b610273600480360381019061026e9190612995565b610da4565b6040516102809190612ac0565b60405180910390f35b6102a3600480360381019061029e9190612ae2565b610fb0565b005b6102bf60048036038101906102ba9190612b51565b611171565b005b6102db60048036038101906102d69190612916565b611420565b6040516102e89190612bdc565b60405180910390f35b61030b6004803603810190610306919061260a565b61150a565b005b61032760048036038101906103229190612995565b6116ac565b6040516103349190612ac0565b60405180910390f35b61035760048036038101906103529190612995565b6118af565b6040516103649190612c06565b60405180910390f35b61038760048036038101906103829190612c4d565b611917565b005b6103a3600480360381019061039e91906127ee565b611c1f565b6040516103b09190612ac0565b60405180910390f35b6103d360048036038101906103ce9190612ca0565b611ef0565b005b6103ef60048036038101906103ea9190612995565b611fcc565b6040516103fc9190612ac0565b60405180910390f35b61041f600480360381019061041a9190612d0f565b6121d8565b005b61043b6004803603810190610436919061260a565b6123d8565b005b600460016004805490506104519190612d9a565b8154811061046257610461612dce565b5b90600052602060002090600202016004828154811061048457610483612dce565b5b90600052602060002090600202016000820160009054906101000a900473ffffffffffffffffffffffffffffffffffffffff168160000160006101000a81548173ffffffffffffffffffffffffffffffffffffffff021916908373ffffffffffffffffffffffffffffffffffffffff1602179055506001820160009054906101000a900473ffffffffffffffffffffffffffffffffffffffff168160010160006101000a81548173ffffffffffffffffffffffffffffffffffffffff021916908373ffffffffffffffffffffffffffffffffffffffff160217905550905050600480548061057557610574612dfd565b5b6001900381819060005260206000209060020201600080820160006101000a81549073ffffffffffffffffffffffffffffffffffffffff02191690556001820160006101000a81549073ffffffffffffffffffffffffffffffffffffffff02191690555050905550565b6000806000905060005b835181101561080057600084828151811061060757610606612dce565b5b6020026020010151905060005b6003805490508110156107eb5760006003828154811061063757610636612dce565b5b90600052602060002090600302016040518060600160405290816000820160009054906101000a900473ffffffffffffffffffffffffffffffffffffffff1673ffffffffffffffffffffffffffffffffffffffff1673ffffffffffffffffffffffffffffffffffffffff1681526020016001820180546106b690612e5b565b80601f01602080910402602001604051908101604052809291908181526020018280546106e290612e5b565b801561072f5780601f106107045761010080835404028352916020019161072f565b820191906000526020600020905b81548152906001019060200180831161071257829003601f168201915b505050505081526020016002820160009054906101000a900473ffffffffffffffffffffffffffffffffffffffff1673ffffffffffffffffffffffffffffffffffffffff1673ffffffffffffffffffffffffffffffffffffffff168152505090508273ffffffffffffffffffffffffffffffffffffffff16816040015173ffffffffffffffffffffffffffffffffffffffff16036107d7576001856107d49190612e8c565b94505b5080806107e390612ec0565b915050610614565b505080806107f890612ec0565b9150506105e9565b5080915050919050565b60008073ffffffffffffffffffffffffffffffffffffffff166001836040516108339190612f79565b908152602001604051809103902060000160009054906101000a900473ffffffffffffffffffffffffffffffffffffffff1673ffffffffffffffffffffffffffffffffffffffff1603610889576000905061088e565b600190505b919050565b6000806000905060005b6005805490508110156109e2576000600582815481106108c0576108bf612dce565b5b90600052602060002090600202016040518060400160405290816000820160009054906101000a900473ffffffffffffffffffffffffffffffffffffffff1673ffffffffffffffffffffffffffffffffffffffff1673ffffffffffffffffffffffffffffffffffffffff1681526020016001820160009054906101000a900473ffffffffffffffffffffffffffffffffffffffff1673ffffffffffffffffffffffffffffffffffffffff1673ffffffffffffffffffffffffffffffffffffffff168152505090508473ffffffffffffffffffffffffffffffffffffffff16816000015173ffffffffffffffffffffffffffffffffffffffff16036109ce576001836109cb9190612e8c565b92505b5080806109da90612ec0565b91505061089d565b5080915050919050565b6000806000905060005b600480549050811015610b3b57600060048281548110610a1957610a18612dce565b5b90600052602060002090600202016040518060400160405290816000820160009054906101000a900473ffffffffffffffffffffffffffffffffffffffff1673ffffffffffffffffffffffffffffffffffffffff1673ffffffffffffffffffffffffffffffffffffffff1681526020016001820160009054906101000a900473ffffffffffffffffffffffffffffffffffffffff1673ffffffffffffffffffffffffffffffffffffffff1673ffffffffffffffffffffffffffffffffffffffff168152505090508473ffffffffffffffffffffffffffffffffffffffff16816000015173ffffffffffffffffffffffffffffffffffffffff1603610b2757600183610b249190612e8c565b92505b508080610b3390612ec0565b9150506109f6565b5080915050919050565b600060405180604001604052808473ffffffffffffffffffffffffffffffffffffffff1681526020018373ffffffffffffffffffffffffffffffffffffffff168152509050600281908060018154018082558091505060019003906000526020600020906002020160009091909190915060008201518160000160006101000a81548173ffffffffffffffffffffffffffffffffffffffff021916908373ffffffffffffffffffffffffffffffffffffffff16021790555060208201518160010160006101000a81548173ffffffffffffffffffffffffffffffffffffffff021916908373ffffffffffffffffffffffffffffffffffffffff1602179055505050505050565b6000806000905060005b600280549050811015610d9a57600060028281548110610c7857610c77612dce565b5b90600052602060002090600202016040518060400160405290816000820160009054906101000a900473ffffffffffffffffffffffffffffffffffffffff1673ffffffffffffffffffffffffffffffffffffffff1673ffffffffffffffffffffffffffffffffffffffff1681526020016001820160009054906101000a900473ffffffffffffffffffffffffffffffffffffffff1673ffffffffffffffffffffffffffffffffffffffff1673ffffffffffffffffffffffffffffffffffffffff168152505090508473ffffffffffffffffffffffffffffffffffffffff16816020015173ffffffffffffffffffffffffffffffffffffffff1603610d8657600183610d839190612e8c565b92505b508080610d9290612ec0565b915050610c55565b5080915050919050565b60606000610db183610893565b90506000808267ffffffffffffffff811115610dd057610dcf61264d565b5b604051908082528060200260200182016040528015610dfe5781602001602082028036833780820191505090505b50905060005b600580549050811015610fa457600060058281548110610e2757610e26612dce565b5b90600052602060002090600202016040518060400160405290816000820160009054906101000a900473ffffffffffffffffffffffffffffffffffffffff1673ffffffffffffffffffffffffffffffffffffffff1673ffffffffffffffffffffffffffffffffffffffff1681526020016001820160009054906101000a900473ffffffffffffffffffffffffffffffffffffffff1673ffffffffffffffffffffffffffffffffffffffff1673ffffffffffffffffffffffffffffffffffffffff168152505090508673ffffffffffffffffffffffffffffffffffffffff16816000015173ffffffffffffffffffffffffffffffffffffffff1603610f9057610f2e8261150a565b8060200151838581518110610f4657610f45612dce565b5b602002602001019073ffffffffffffffffffffffffffffffffffffffff16908173ffffffffffffffffffffffffffffffffffffffff1681525050600184610f8d9190612e8c565b93505b508080610f9c90612ec0565b915050610e04565b50809350505050919050565b610fb98361080a565b15610ff9576040517f08c379a0000000000000000000000000000000000000000000000000000000008152600401610ff090612fed565b60405180910390fd5b806000808473ffffffffffffffffffffffffffffffffffffffff1673ffffffffffffffffffffffffffffffffffffffff16815260200190815260200160002060006101000a81548173ffffffffffffffffffffffffffffffffffffffff021916908373ffffffffffffffffffffffffffffffffffffffff160217905550600060405180604001604052808473ffffffffffffffffffffffffffffffffffffffff1681526020018373ffffffffffffffffffffffffffffffffffffffff168152509050806001856040516110cc9190612f79565b908152602001604051809103902060008201518160000160006101000a81548173ffffffffffffffffffffffffffffffffffffffff021916908373ffffffffffffffffffffffffffffffffffffffff16021790555060208201518160010160006101000a81548173ffffffffffffffffffffffffffffffffffffffff021916908373ffffffffffffffffffffffffffffffffffffffff16021790555090505050505050565b60005b60038054905081101561141b5760006003828154811061119757611196612dce565b5b90600052602060002090600302016040518060600160405290816000820160009054906101000a900473ffffffffffffffffffffffffffffffffffffffff1673ffffffffffffffffffffffffffffffffffffffff1673ffffffffffffffffffffffffffffffffffffffff16815260200160018201805461121690612e5b565b80601f016020809104026020016040519081016040528092919081815260200182805461124290612e5b565b801561128f5780601f106112645761010080835404028352916020019161128f565b820191906000526020600020905b81548152906001019060200180831161127257829003601f168201915b505050505081526020016002820160009054906101000a900473ffffffffffffffffffffffffffffffffffffffff1673ffffffffffffffffffffffffffffffffffffffff1673ffffffffffffffffffffffffffffffffffffffff168152505090508373ffffffffffffffffffffffffffffffffffffffff16816040015173ffffffffffffffffffffffffffffffffffffffff16036114075760008160000151905060008060008373ffffffffffffffffffffffffffffffffffffffff1673ffffffffffffffffffffffffffffffffffffffff16815260200190815260200160002060009054906101000a900473ffffffffffffffffffffffffffffffffffffffff16905060008190508073ffffffffffffffffffffffffffffffffffffffff1663d65ec855876040518263ffffffff1660e01b81526004016113d19190613046565b600060405180830381600087803b1580156113eb57600080fd5b505af11580156113ff573d6000803e3d6000fd5b505050505050505b50808061141390612ec0565b915050611174565b505050565b61142861257a565b600060018360405161143a9190612f79565b90815260200160405180910390206040518060400160405290816000820160009054906101000a900473ffffffffffffffffffffffffffffffffffffffff1673ffffffffffffffffffffffffffffffffffffffff1673ffffffffffffffffffffffffffffffffffffffff1681526020016001820160009054906101000a900473ffffffffffffffffffffffffffffffffffffffff1673ffffffffffffffffffffffffffffffffffffffff1673ffffffffffffffffffffffffffffffffffffffff1681525050905080915050919050565b6005600160058054905061151e9190612d9a565b8154811061152f5761152e612dce565b5b90600052602060002090600202016005828154811061155157611550612dce565b5b90600052602060002090600202016000820160009054906101000a900473ffffffffffffffffffffffffffffffffffffffff168160000160006101000a81548173ffffffffffffffffffffffffffffffffffffffff021916908373ffffffffffffffffffffffffffffffffffffffff1602179055506001820160009054906101000a900473ffffffffffffffffffffffffffffffffffffffff168160010160006101000a81548173ffffffffffffffffffffffffffffffffffffffff021916908373ffffffffffffffffffffffffffffffffffffffff160217905550905050600580548061164257611641612dfd565b5b6001900381819060005260206000209060020201600080820160006101000a81549073ffffffffffffffffffffffffffffffffffffffff02191690556001820160006101000a81549073ffffffffffffffffffffffffffffffffffffffff02191690555050905550565b606060006116b983610c4b565b90506000808267ffffffffffffffff8111156116d8576116d761264d565b5b6040519080825280602002602001820160405280156117065781602001602082028036833780820191505090505b50905060005b6002805490508110156118a35760006002828154811061172f5761172e612dce565b5b90600052602060002090600202016040518060400160405290816000820160009054906101000a900473ffffffffffffffffffffffffffffffffffffffff1673ffffffffffffffffffffffffffffffffffffffff1673ffffffffffffffffffffffffffffffffffffffff1681526020016001820160009054906101000a900473ffffffffffffffffffffffffffffffffffffffff1673ffffffffffffffffffffffffffffffffffffffff1673ffffffffffffffffffffffffffffffffffffffff168152505090508673ffffffffffffffffffffffffffffffffffffffff16816020015173ffffffffffffffffffffffffffffffffffffffff160361188f57806000015183858151811061184557611844612dce565b5b602002602001019073ffffffffffffffffffffffffffffffffffffffff16908173ffffffffffffffffffffffffffffffffffffffff168152505060018461188c9190612e8c565b93505b50808061189b90612ec0565b91505061170c565b50809350505050919050565b60008060008373ffffffffffffffffffffffffffffffffffffffff1673ffffffffffffffffffffffffffffffffffffffff16815260200190815260200160002060009054906101000a900473ffffffffffffffffffffffffffffffffffffffff169050919050565b60005b600280549050811015611c195760006002828154811061193d5761193c612dce565b5b90600052602060002090600202016040518060400160405290816000820160009054906101000a900473ffffffffffffffffffffffffffffffffffffffff1673ffffffffffffffffffffffffffffffffffffffff1673ffffffffffffffffffffffffffffffffffffffff1681526020016001820160009054906101000a900473ffffffffffffffffffffffffffffffffffffffff1673ffffffffffffffffffffffffffffffffffffffff1673ffffffffffffffffffffffffffffffffffffffff168152505090508473ffffffffffffffffffffffffffffffffffffffff16816020015173ffffffffffffffffffffffffffffffffffffffff16148015611a7257508373ffffffffffffffffffffffffffffffffffffffff16816000015173ffffffffffffffffffffffffffffffffffffffff16145b15611c0557611a80826123d8565b8215611b4757600481908060018154018082558091505060019003906000526020600020906002020160009091909190915060008201518160000160006101000a81548173ffffffffffffffffffffffffffffffffffffffff021916908373ffffffffffffffffffffffffffffffffffffffff16021790555060208201518160010160006101000a81548173ffffffffffffffffffffffffffffffffffffffff021916908373ffffffffffffffffffffffffffffffffffffffff1602179055505050611c04565b600581908060018154018082558091505060019003906000526020600020906002020160009091909190915060008201518160000160006101000a81548173ffffffffffffffffffffffffffffffffffffffff021916908373ffffffffffffffffffffffffffffffffffffffff16021790555060208201518160010160006101000a81548173ffffffffffffffffffffffffffffffffffffffff021916908373ffffffffffffffffffffffffffffffffffffffff16021790555050505b5b508080611c1190612ec0565b91505061191a565b50505050565b60606000611c2c836105df565b90506000808267ffffffffffffffff811115611c4b57611c4a61264d565b5b604051908082528060200260200182016040528015611c795781602001602082028036833780820191505090505b50905060005b8551811015611ee4576000868281518110611c9d57611c9c612dce565b5b6020026020010151905060005b600380549050811015611ecf57600060038281548110611ccd57611ccc612dce565b5b90600052602060002090600302016040518060600160405290816000820160009054906101000a900473ffffffffffffffffffffffffffffffffffffffff1673ffffffffffffffffffffffffffffffffffffffff1673ffffffffffffffffffffffffffffffffffffffff168152602001600182018054611d4c90612e5b565b80601f0160208091040260200160405190810160405280929190818152602001828054611d7890612e5b565b8015611dc55780601f10611d9a57610100808354040283529160200191611dc5565b820191906000526020600020905b815481529060010190602001808311611da857829003601f168201915b505050505081526020016002820160009054906101000a900473ffffffffffffffffffffffffffffffffffffffff1673ffffffffffffffffffffffffffffffffffffffff1673ffffffffffffffffffffffffffffffffffffffff168152505090508273ffffffffffffffffffffffffffffffffffffffff16816040015173ffffffffffffffffffffffffffffffffffffffff1603611ebb5782858781518110611e7157611e70612dce565b5b602002602001019073ffffffffffffffffffffffffffffffffffffffff16908173ffffffffffffffffffffffffffffffffffffffff1681525050600186611eb89190612e8c565b95505b508080611ec790612ec0565b915050611caa565b50508080611edc90612ec0565b915050611c7f565b50809350505050919050565b60008060008473ffffffffffffffffffffffffffffffffffffffff1673ffffffffffffffffffffffffffffffffffffffff16815260200190815260200160002060009054906101000a900473ffffffffffffffffffffffffffffffffffffffff16905060008190508073ffffffffffffffffffffffffffffffffffffffff16634a9ae94a86856040518363ffffffff1660e01b8152600401611f93929190613068565b600060405180830381600087803b158015611fad57600080fd5b505af1158015611fc1573d6000803e3d6000fd5b505050505050505050565b60606000611fd9836109ec565b90506000808267ffffffffffffffff811115611ff857611ff761264d565b5b6040519080825280602002602001820160405280156120265781602001602082028036833780820191505090505b50905060005b6004805490508110156121cc5760006004828154811061204f5761204e612dce565b5b90600052602060002090600202016040518060400160405290816000820160009054906101000a900473ffffffffffffffffffffffffffffffffffffffff1673ffffffffffffffffffffffffffffffffffffffff1673ffffffffffffffffffffffffffffffffffffffff1681526020016001820160009054906101000a900473ffffffffffffffffffffffffffffffffffffffff1673ffffffffffffffffffffffffffffffffffffffff1673ffffffffffffffffffffffffffffffffffffffff168152505090508673ffffffffffffffffffffffffffffffffffffffff16816000015173ffffffffffffffffffffffffffffffffffffffff16036121b8576121568261043d565b806020015183858151811061216e5761216d612dce565b5b602002602001019073ffffffffffffffffffffffffffffffffffffffff16908173ffffffffffffffffffffffffffffffffffffffff16815250506001846121b59190612e8c565b93505b5080806121c490612ec0565b91505061202c565b50809350505050919050565b60006001836040516121ea9190612f79565b90815260200160405180910390206040518060400160405290816000820160009054906101000a900473ffffffffffffffffffffffffffffffffffffffff1673ffffffffffffffffffffffffffffffffffffffff1673ffffffffffffffffffffffffffffffffffffffff1681526020016001820160009054906101000a900473ffffffffffffffffffffffffffffffffffffffff1673ffffffffffffffffffffffffffffffffffffffff1673ffffffffffffffffffffffffffffffffffffffff16815250509050600060405180606001604052808473ffffffffffffffffffffffffffffffffffffffff168152602001858152602001836000015173ffffffffffffffffffffffffffffffffffffffff168152509050600381908060018154018082558091505060019003906000526020600020906003020160009091909190915060008201518160000160006101000a81548173ffffffffffffffffffffffffffffffffffffffff021916908373ffffffffffffffffffffffffffffffffffffffff16021790555060208201518160010190816123889190613244565b5060408201518160020160006101000a81548173ffffffffffffffffffffffffffffffffffffffff021916908373ffffffffffffffffffffffffffffffffffffffff160217905550505050505050565b600260016002805490506123ec9190612d9a565b815481106123fd576123fc612dce565b5b90600052602060002090600202016002828154811061241f5761241e612dce565b5b90600052602060002090600202016000820160009054906101000a900473ffffffffffffffffffffffffffffffffffffffff168160000160006101000a81548173ffffffffffffffffffffffffffffffffffffffff021916908373ffffffffffffffffffffffffffffffffffffffff1602179055506001820160009054906101000a900473ffffffffffffffffffffffffffffffffffffffff168160010160006101000a81548173ffffffffffffffffffffffffffffffffffffffff021916908373ffffffffffffffffffffffffffffffffffffffff16021790555090505060028054806125105761250f612dfd565b5b6001900381819060005260206000209060020201600080820160006101000a81549073ffffffffffffffffffffffffffffffffffffffff02191690556001820160006101000a81549073ffffffffffffffffffffffffffffffffffffffff02191690555050905550565b6040518060400160405280600073ffffffffffffffffffffffffffffffffffffffff168152602001600073ffffffffffffffffffffffffffffffffffffffff1681525090565b6000604051905090565b600080fd5b600080fd5b6000819050919050565b6125e7816125d4565b81146125f257600080fd5b50565b600081359050612604816125de565b92915050565b6000602082840312156126205761261f6125ca565b5b600061262e848285016125f5565b91505092915050565b600080fd5b6000601f19601f8301169050919050565b7f4e487b7100000000000000000000000000000000000000000000000000000000600052604160045260246000fd5b6126858261263c565b810181811067ffffffffffffffff821117156126a4576126a361264d565b5b80604052505050565b60006126b76125c0565b90506126c3828261267c565b919050565b600067ffffffffffffffff8211156126e3576126e261264d565b5b602082029050602081019050919050565b600080fd5b600073ffffffffffffffffffffffffffffffffffffffff82169050919050565b6000612724826126f9565b9050919050565b61273481612719565b811461273f57600080fd5b50565b6000813590506127518161272b565b92915050565b600061276a612765846126c8565b6126ad565b9050808382526020820190506020840283018581111561278d5761278c6126f4565b5b835b818110156127b657806127a28882612742565b84526020840193505060208101905061278f565b5050509392505050565b600082601f8301126127d5576127d4612637565b5b81356127e5848260208601612757565b91505092915050565b600060208284031215612804576128036125ca565b5b600082013567ffffffffffffffff811115612822576128216125cf565b5b61282e848285016127c0565b91505092915050565b612840816125d4565b82525050565b600060208201905061285b6000830184612837565b92915050565b600080fd5b600067ffffffffffffffff8211156128815761288061264d565b5b61288a8261263c565b9050602081019050919050565b82818337600083830152505050565b60006128b96128b484612866565b6126ad565b9050828152602081018484840111156128d5576128d4612861565b5b6128e0848285612897565b509392505050565b600082601f8301126128fd576128fc612637565b5b813561290d8482602086016128a6565b91505092915050565b60006020828403121561292c5761292b6125ca565b5b600082013567ffffffffffffffff81111561294a576129496125cf565b5b612956848285016128e8565b91505092915050565b60008115159050919050565b6129748161295f565b82525050565b600060208201905061298f600083018461296b565b92915050565b6000602082840312156129ab576129aa6125ca565b5b60006129b984828501612742565b91505092915050565b600080604083850312156129d9576129d86125ca565b5b60006129e785828601612742565b92505060206129f885828601612742565b9150509250929050565b600081519050919050565b600082825260208201905092915050565b6000819050602082019050919050565b612a3781612719565b82525050565b6000612a498383612a2e565b60208301905092915050565b6000602082019050919050565b6000612a6d82612a02565b612a778185612a0d565b9350612a8283612a1e565b8060005b83811015612ab3578151612a9a8882612a3d565b9750612aa583612a55565b925050600181019050612a86565b5085935050505092915050565b60006020820190508181036000830152612ada8184612a62565b905092915050565b600080600060608486031215612afb57612afa6125ca565b5b600084013567ffffffffffffffff811115612b1957612b186125cf565b5b612b25868287016128e8565b9350506020612b3686828701612742565b9250506040612b4786828701612742565b9150509250925092565b60008060408385031215612b6857612b676125ca565b5b6000612b7685828601612742565b925050602083013567ffffffffffffffff811115612b9757612b966125cf565b5b612ba3858286016128e8565b9150509250929050565b604082016000820151612bc36000850182612a2e565b506020820151612bd66020850182612a2e565b50505050565b6000604082019050612bf16000830184612bad565b92915050565b612c0081612719565b82525050565b6000602082019050612c1b6000830184612bf7565b92915050565b612c2a8161295f565b8114612c3557600080fd5b50565b600081359050612c4781612c21565b92915050565b600080600060608486031215612c6657612c656125ca565b5b6000612c7486828701612742565b9350506020612c8586828701612742565b9250506040612c9686828701612c38565b9150509250925092565b600080600060608486031215612cb957612cb86125ca565b5b6000612cc786828701612742565b9350506020612cd886828701612742565b925050604084013567ffffffffffffffff811115612cf957612cf86125cf565b5b612d05868287016128e8565b9150509250925092565b60008060408385031215612d2657612d256125ca565b5b600083013567ffffffffffffffff811115612d4457612d436125cf565b5b612d50858286016128e8565b9250506020612d6185828601612742565b9150509250929050565b7f4e487b7100000000000000000000000000000000000000000000000000000000600052601160045260246000fd5b6000612da5826125d4565b9150612db0836125d4565b9250828203905081811115612dc857612dc7612d6b565b5b92915050565b7f4e487b7100000000000000000000000000000000000000000000000000000000600052603260045260246000fd5b7f4e487b7100000000000000000000000000000000000000000000000000000000600052603160045260246000fd5b7f4e487b7100000000000000000000000000000000000000000000000000000000600052602260045260246000fd5b60006002820490506001821680612e7357607f821691505b602082108103612e8657612e85612e2c565b5b50919050565b6000612e97826125d4565b9150612ea2836125d4565b9250828201905080821115612eba57612eb9612d6b565b5b92915050565b6000612ecb826125d4565b91507fffffffffffffffffffffffffffffffffffffffffffffffffffffffffffffffff8203612efd57612efc612d6b565b5b600182019050919050565b600081519050919050565b600081905092915050565b60005b83811015612f3c578082015181840152602081019050612f21565b60008484015250505050565b6000612f5382612f08565b612f5d8185612f13565b9350612f6d818560208601612f1e565b80840191505092915050565b6000612f858284612f48565b915081905092915050565b600082825260208201905092915050565b7f4e616d6520616c72656164792065786973747300000000000000000000000000600082015250565b6000612fd7601383612f90565b9150612fe282612fa1565b602082019050919050565b6000602082019050818103600083015261300681612fca565b9050919050565b600061301882612f08565b6130228185612f90565b9350613032818560208601612f1e565b61303b8161263c565b840191505092915050565b60006020820190508181036000830152613060818461300d565b905092915050565b600060408201905061307d6000830185612bf7565b818103602083015261308f818461300d565b90509392505050565b60008190508160005260206000209050919050565b60006020601f8301049050919050565b600082821b905092915050565b6000600883026130fa7fffffffffffffffffffffffffffffffffffffffffffffffffffffffffffffffff826130bd565b61310486836130bd565b95508019841693508086168417925050509392505050565b6000819050919050565b600061314161313c613137846125d4565b61311c565b6125d4565b9050919050565b6000819050919050565b61315b83613126565b61316f61316782613148565b8484546130ca565b825550505050565b600090565b613184613177565b61318f818484613152565b505050565b5b818110156131b3576131a860008261317c565b600181019050613195565b5050565b601f8211156131f8576131c981613098565b6131d2846130ad565b810160208510156131e1578190505b6131f56131ed856130ad565b830182613194565b50505b505050565b600082821c905092915050565b600061321b600019846008026131fd565b1980831691505092915050565b6000613234838361320a565b9150826002028217905092915050565b61324d82612f08565b67ffffffffffffffff8111156132665761326561264d565b5b6132708254612e5b565b61327b8282856131b7565b600060209050601f8311600181146132ae576000841561329c578287015190505b6132a68582613228565b86555061330e565b601f1984166132bc86613098565b60005b828110156132e4578489015182556001820191506020850194506020810190506132bf565b8683101561330157848901516132fd601f89168261320a565b8355505b6001600288020188555050505b50505050505056fea2646970667358221220da485352302d2f8a18b35bf549d457dfd6ff20275c94cfb66c87770822fa2c2e64736f6c63430008100033",
  "immutableReferences": {},
  "source": "//SPDX-License-Identifier: MIT\r\npragma solidity ^0.8.16;\r\n\r\nimport \"./Node.sol\";\r\n//secretHolder \r\ncontract PublicContract {\r\n    //sample node \r\n    struct SampleNode{\r\n        address publicAddress;\r\n        address contractAddress;\r\n        \r\n    }\r\n\r\n    //Request type to add as a share holder\r\n    struct Request{\r\n        address secretOwner;\r\n        address shareHolder;\r\n    }\r\n\r\n    //Share structure\r\n    struct Share{\r\n        address secretOwner;\r\n        address shareHolder;\r\n        string sharedString;\r\n    }\r\n\r\n    //Request to release the secret \r\n    struct ShareRequest{\r\n        address requesterAddress;\r\n        string name;\r\n        address ownerAddress;\r\n    }\r\n\r\n    //address to contract address map\r\n    mapping (address => address ) private  myAddressToContractAddressMap;\r\n\r\n    //name to sample nodes map\r\n    mapping(string => SampleNode) private sampleNodesMap;\r\n\r\n    //be a holder requests list\r\n    Request[] private holderRequests;\r\n\r\n    //secret requesting list original owner's address and requester's address mapping\r\n    ShareRequest[] private secretRequests;\r\n\r\n    // //Released shares for holders\r\n    // Share[] assignedSharesForHolders;\r\n\r\n    // //Released Shares for owners \r\n    // Share[] releasedSharesByHolders;\r\n\r\n    //accepted requests to bea share holder \r\n    //Request[] public acceptedBeShareHolderRequests;\r\n    Request[] private acceptedShareHolderRequests;\r\n\r\n    //Cancelled requests to be a share holder\r\n    Request[] private rejectedShareHolderRequests;\r\n\r\n  \r\n//Check whether username already exist\r\n    function isExists(string memory name) public view returns (bool){\r\n        if(sampleNodesMap[name].publicAddress == address(0)){\r\n            return false;\r\n        }\r\n        return true;\r\n    }\r\n\r\n\r\n\r\n//Register to the public contract \r\n    function register(string memory  name,address publicAddress,address myContractAddress)public {\r\n        require(!isExists(name), \"Name already exists\");\r\n        //nodesMap[name]=node;\r\n        myAddressToContractAddressMap[publicAddress]=myContractAddress;\r\n        SampleNode memory registeringNode= SampleNode(publicAddress,myContractAddress);\r\n        sampleNodesMap[name]=registeringNode;\r\n        return;\r\n    }\r\n\r\n//Get node contract object using the name \r\n    function getContractAddressByName(string memory name) public view returns(SampleNode memory){\r\n        SampleNode memory new_node= sampleNodesMap[name];\r\n        return new_node;\r\n    }\r\n//Get contractAddress using the publicAddress\r\n    function getContractAddressByPublicAddress(address publicAddress) public view returns(address ){\r\n        return myAddressToContractAddressMap[publicAddress];\r\n    }\r\n\r\n//! Access public contract as a share holder --------------------------------------------------------\r\n\r\n//Check there are any requests to add me as a share holder\r\n    function checkRequestsByShareholder(address holderAddress)public view returns(address[] memory ) {\r\n        uint256 tot = getSecretOwnerAddressesCountInHolderRequests(holderAddress); // write a method named getSecretOwnerAddressesCount() to get secretOwnerAddresses count\r\n        uint256 count = 0;\r\n        address[] memory  _secretOwnerAddress= new address[](tot);\r\n        for (uint256 i = 0; i<holderRequests.length; i++){\r\n            Request memory request= holderRequests[i];\r\n            if (request.shareHolder==holderAddress){\r\n            _secretOwnerAddress[count] = request.secretOwner;\r\n            count = count + 1;\r\n            }\r\n\r\n        }\r\n     return _secretOwnerAddress;\r\n    }\r\n\r\n    function getSecretOwnerAddressesCountInHolderRequests(address holderAddress)public view returns(uint256) {\r\n        uint256  count = 0;\r\n        for (uint256 i=0; i<holderRequests.length; i++){\r\n            Request memory request= holderRequests[i];\r\n            if (request.shareHolder==holderAddress){\r\n                count = count + 1;\r\n            }\r\n\r\n        }\r\n        return count;\r\n    }\r\n\r\n//Check there is someone asking for the share from me \r\n    function checkRequestsForTheSeceret(address[]memory secretOwners)public view returns(address[] memory ) {\r\n        uint256 tot = getSecretOwnerAddressesCountInSecretRequests(secretOwners); // write a method named getSecretOwnerAddressesCount() to get secretOwnerAddresses count\r\n        uint256 count = 0;\r\n        address[] memory _secretOwnerAddresses = new address[](tot);\r\n    \r\n        for (uint256 i = 0; i<secretOwners.length; i++){\r\n            address  tempOwner=secretOwners[i];\r\n            for (uint256 j = 0; j<secretRequests.length; j++){\r\n                ShareRequest memory tempSecretRequest=secretRequests[j];\r\n                if (tempSecretRequest.ownerAddress==tempOwner){\r\n                    _secretOwnerAddresses[count] = tempOwner;\r\n                    count = count + 1;\r\n                }\r\n\r\n            }\r\n\r\n        }\r\n     return _secretOwnerAddresses;\r\n    }\r\n    \r\n\r\n    function getSecretOwnerAddressesCountInSecretRequests(address[]memory secretOwners)public view returns(uint256) {\r\n        uint256  count = 0;\r\n        for (uint256 i = 0; i<secretOwners.length; i++){\r\n           address  tempOwner =secretOwners[i];\r\n            for (uint256 j = 0; j<secretRequests.length; j++){\r\n                ShareRequest memory tempSecretRequest=secretRequests[j];\r\n                if (tempSecretRequest.ownerAddress==tempOwner){\r\n                    count = count + 1;\r\n                }\r\n\r\n            }\r\n\r\n        }\r\n        return count;\r\n    }\r\n//Give my release to the public \r\n    function releaseTheSecret(address secretOwner,string memory sharedString)public {\r\n         for (uint256 i = 0; i<secretRequests.length; i++){\r\n            ShareRequest memory tempSecretRequest=secretRequests[i];\r\n            if(tempSecretRequest.ownerAddress==secretOwner){\r\n                address requester= tempSecretRequest.requesterAddress;\r\n                address requesterContractAddress=myAddressToContractAddressMap[requester];\r\n                Node requesterContract= Node(requesterContractAddress);\r\n                requesterContract.saveToRegeneratedShares(sharedString);\r\n            }\r\n\r\n        }\r\n    }\r\n\r\n//remove from holder request list \r\n    function removeFromHolderRequestList(uint256 index) public {\r\n        // Move the last element into the place to delete\r\n        holderRequests[index] = holderRequests[holderRequests.length - 1];\r\n        // Remove the last element\r\n        holderRequests.pop();\r\n    }\r\n//remove from holder accepted list \r\n    function removeFromHolderAcceptedList(uint256 index) public {\r\n        // Move the last element into the place to delete\r\n        acceptedShareHolderRequests[index] = acceptedShareHolderRequests[acceptedShareHolderRequests.length - 1];\r\n        // Remove the last element\r\n        acceptedShareHolderRequests.pop();\r\n    }\r\n//remove from holder rejected list \r\n    function removeFromHolderRejectedList(uint256 index) public {\r\n        // Move the last element into the place to delete\r\n        rejectedShareHolderRequests[index] = rejectedShareHolderRequests[rejectedShareHolderRequests.length - 1];\r\n        // Remove the last element\r\n        rejectedShareHolderRequests.pop();\r\n    }\r\n\r\n//Respond to be the share holder \r\n    function respondToBeShareHolder(address shareHolder,address secretOwner,bool  acceptance)public {\r\n        \r\n        for (uint256 i = 0; i<holderRequests.length; i++){\r\n            Request memory request= holderRequests[i];\r\n            if (request.shareHolder==shareHolder && request.secretOwner==secretOwner){\r\n                removeFromHolderRequestList(i);\r\n                if (acceptance){\r\n                    acceptedShareHolderRequests.push(request);\r\n                }else{\r\n                    rejectedShareHolderRequests.push(request);\r\n                }\r\n            }\r\n        }\r\n    }\r\n\r\n\r\n\r\n\r\n//Access as a secret owner ----------------------------------------------------------------------\r\n\r\n//Make a request to add a node as a share holder\r\n    function makeARequestToBeAShareHolder(address secretOwner,address holder)public {\r\n        Request memory new_request= Request(secretOwner,holder);\r\n        holderRequests.push(new_request);\r\n\r\n\r\n }\r\n//get the count of the accepted holders list \r\n    function getSecretHolderAddressesCountInAcceptedHoldersList(address ownerAddress)public view returns(uint256) {\r\n        uint256  count = 0;\r\n \r\n        for (uint256 i = 0; i<acceptedShareHolderRequests.length; i++){\r\n            Request memory request= acceptedShareHolderRequests[i];\r\n            if (request.secretOwner==ownerAddress){\r\n                count = count + 1;\r\n            }\r\n\r\n        }\r\n        return count;\r\n    }\r\n\r\n//get the be holder request accepted holders list \r\n    function getRequestAcceptedHoldersList(address secretOwner)public returns(address[] memory) {\r\n        uint256 tot = getSecretHolderAddressesCountInAcceptedHoldersList(secretOwner); // write a method named getSecretOwnerAddressesCount() to get secretOwnerAddresses count\r\n        uint256 count = 0;\r\n        address[] memory _shareHolderAddresses = new address[](tot);\r\n        \r\n\r\n        for (uint256 i = 0; i<acceptedShareHolderRequests.length; i++){\r\n            Request memory request= acceptedShareHolderRequests[i];\r\n            if (request.secretOwner==secretOwner){\r\n                removeFromHolderAcceptedList(i);\r\n                _shareHolderAddresses[count] = request.shareHolder;\r\n                count = count + 1;\r\n            }\r\n\r\n        }\r\n     return _shareHolderAddresses;\r\n    }\r\n    //get the count of the accepted holders list \r\n    function getSecretHolderAddressesCountInRejectedHoldersList(address ownerAddress)public view returns(uint256) {\r\n        uint256  count = 0;\r\n        for (uint256 i = 0; i<rejectedShareHolderRequests.length; i++){\r\n            Request memory request= rejectedShareHolderRequests[i];\r\n            if (request.secretOwner==ownerAddress){\r\n                count = count + 1;\r\n            }\r\n\r\n        }\r\n        return count;\r\n    }\r\n    //get the be holder request rejected holders list \r\n    function getRequestRejectedHoldersList(address secretOwner)public returns(address[] memory) {\r\n        uint256 tot = getSecretHolderAddressesCountInRejectedHoldersList(secretOwner); // write a method named getSecretOwnerAddressesCount() to get secretOwnerAddresses count\r\n        uint256 count = 0;\r\n        address[] memory _shareHolderAddresses = new address[](tot);\r\n        \r\n\r\n        for (uint256 i = 0; i<rejectedShareHolderRequests.length; i++){\r\n            Request memory request= rejectedShareHolderRequests[i];\r\n            if (request.secretOwner==secretOwner){\r\n                removeFromHolderRejectedList(i);\r\n                _shareHolderAddresses[count] = request.shareHolder;\r\n                count = count + 1;\r\n            }\r\n\r\n        }\r\n     return _shareHolderAddresses;\r\n    }\r\n\r\n// Make shares accessible to the share holders \r\n    function makeSharesAccessibleToTheHolders(address secretOwner,address holder,string memory sharedString) public{\r\n        address myContractAddress= myAddressToContractAddressMap[holder];\r\n        Node distributingNode= Node(myContractAddress);\r\n        distributingNode.takeTheSecretFromTheOwner(secretOwner,sharedString);\r\n        return;\r\n    }\r\n\r\n//Make a request that I need the shares   \r\n    function makeARequestToGetShares(string memory name,address requesterAddress)public {\r\n        SampleNode memory sampleNode= sampleNodesMap[name];\r\n        ShareRequest memory shareRequest=ShareRequest(requesterAddress,name,sampleNode.publicAddress);\r\n        secretRequests.push(shareRequest);\r\n        return;\r\n\r\n    }\r\n\r\n\r\n    \r\n}\r\n",
  "sourcePath": "F:\\Sadaru Kavisha\\Semester 7\\Fyp\\Final Project\\smart-contract-evaluation\\contracts\\PublicContract.sol",
  "compiler": {
    "name": "solc",
    "version": "0.8.16+commit.07a7930e.Emscripten.clang"
  },
  "schemaVersion": "3.4.11",
  "updatedAt": "2023-02-18T10:49:39.756Z",
  "devdoc": {
    "kind": "dev",
    "methods": {},
    "version": 1
  },
  "userdoc": {
    "kind": "user",
    "methods": {},
    "version": 1
  }
}