{
  "contractName": "PublicContract",
  "abi": [
    {
      "inputs": [
        {
          "internalType": "string",
          "name": "name",
          "type": "string"
        }
      ],
      "name": "isExists",
      "outputs": [
        {
          "internalType": "bool",
          "name": "",
          "type": "bool"
        }
      ],
      "stateMutability": "view",
      "type": "function"
    },
    {
      "inputs": [
        {
          "internalType": "string",
          "name": "name",
          "type": "string"
        },
        {
          "internalType": "address",
          "name": "publicAddress",
          "type": "address"
        },
        {
          "internalType": "address",
          "name": "myContractAddress",
          "type": "address"
        }
      ],
      "name": "register",
      "outputs": [],
      "stateMutability": "nonpayable",
      "type": "function"
    },
    {
      "inputs": [
        {
          "internalType": "string",
          "name": "name",
          "type": "string"
        }
      ],
      "name": "getContractAddressByName",
      "outputs": [
        {
          "components": [
            {
              "internalType": "address",
              "name": "publicAddress",
              "type": "address"
            },
            {
              "internalType": "address",
              "name": "contractAddress",
              "type": "address"
            }
          ],
          "internalType": "struct PublicContract.SampleNode",
          "name": "",
          "type": "tuple"
        }
      ],
      "stateMutability": "view",
      "type": "function"
    },
    {
      "inputs": [
        {
          "internalType": "address",
          "name": "publicAddress",
          "type": "address"
        }
      ],
      "name": "getContractAddressByPublicAddress",
      "outputs": [
        {
          "internalType": "address",
          "name": "",
          "type": "address"
        }
      ],
      "stateMutability": "view",
      "type": "function"
    },
    {
      "inputs": [
        {
          "internalType": "address",
          "name": "holderAddress",
          "type": "address"
        }
      ],
      "name": "checkRequestsByShareholder",
      "outputs": [
        {
          "internalType": "address[]",
          "name": "",
          "type": "address[]"
        }
      ],
      "stateMutability": "view",
      "type": "function"
    },
    {
      "inputs": [
        {
          "internalType": "address",
          "name": "holderAddress",
          "type": "address"
        }
      ],
      "name": "getSecretOwnerAddressesCountInHolderRequests",
      "outputs": [
        {
          "internalType": "uint256",
          "name": "",
          "type": "uint256"
        }
      ],
      "stateMutability": "view",
      "type": "function"
    },
    {
      "inputs": [
        {
          "internalType": "address[]",
          "name": "secretOwners",
          "type": "address[]"
        }
      ],
      "name": "checkRequestsForTheSeceret",
      "outputs": [
        {
          "internalType": "address[]",
          "name": "",
          "type": "address[]"
        }
      ],
      "stateMutability": "view",
      "type": "function"
    },
    {
      "inputs": [
        {
          "internalType": "address[]",
          "name": "secretOwners",
          "type": "address[]"
        }
      ],
      "name": "getSecretOwnerAddressesCountInSecretRequests",
      "outputs": [
        {
          "internalType": "uint256",
          "name": "",
          "type": "uint256"
        }
      ],
      "stateMutability": "view",
      "type": "function"
    },
    {
      "inputs": [
        {
          "internalType": "address",
          "name": "secretOwner",
          "type": "address"
        },
        {
          "internalType": "string",
          "name": "sharedString",
          "type": "string"
        }
      ],
      "name": "releaseTheSecret",
      "outputs": [],
      "stateMutability": "nonpayable",
      "type": "function"
    },
    {
      "inputs": [
        {
          "internalType": "uint256",
          "name": "index",
          "type": "uint256"
        }
      ],
      "name": "removeFromHolderRequestList",
      "outputs": [],
      "stateMutability": "nonpayable",
      "type": "function"
    },
    {
      "inputs": [
        {
          "internalType": "address",
          "name": "shareHolder",
          "type": "address"
        },
        {
          "internalType": "address",
          "name": "secretOwner",
          "type": "address"
        },
        {
          "internalType": "bool",
          "name": "acceptance",
          "type": "bool"
        }
      ],
      "name": "respondToBeShareHolder",
      "outputs": [],
      "stateMutability": "nonpayable",
      "type": "function"
    },
    {
      "inputs": [
        {
          "internalType": "address",
          "name": "secretOwner",
          "type": "address"
        },
        {
          "internalType": "address",
          "name": "holder",
          "type": "address"
        }
      ],
      "name": "makeARequestToBeAShareHolder",
      "outputs": [],
      "stateMutability": "nonpayable",
      "type": "function"
    },
    {
      "inputs": [
        {
          "internalType": "address",
          "name": "ownerAddress",
          "type": "address"
        }
      ],
      "name": "getSecretHolderAddressesCountInAcceptedHoldersList",
      "outputs": [
        {
          "internalType": "uint256",
          "name": "",
          "type": "uint256"
        }
      ],
      "stateMutability": "view",
      "type": "function"
    },
    {
      "inputs": [
        {
          "internalType": "address",
          "name": "secretOwner",
          "type": "address"
        }
      ],
      "name": "getRequestAcceptedHoldersList",
      "outputs": [
        {
          "internalType": "address[]",
          "name": "",
          "type": "address[]"
        }
      ],
      "stateMutability": "nonpayable",
      "type": "function"
    },
    {
      "inputs": [
        {
          "internalType": "address",
          "name": "ownerAddress",
          "type": "address"
        }
      ],
      "name": "getSecretHolderAddressesCountInRejectedHoldersList",
      "outputs": [
        {
          "internalType": "uint256",
          "name": "",
          "type": "uint256"
        }
      ],
      "stateMutability": "view",
      "type": "function"
    },
    {
      "inputs": [
        {
          "internalType": "address",
          "name": "secretOwner",
          "type": "address"
        }
      ],
      "name": "getRequestRejectedHoldersList",
      "outputs": [
        {
          "internalType": "address[]",
          "name": "",
          "type": "address[]"
        }
      ],
      "stateMutability": "nonpayable",
      "type": "function"
    },
    {
      "inputs": [
        {
          "internalType": "address",
          "name": "secretOwner",
          "type": "address"
        },
        {
          "internalType": "address",
          "name": "holder",
          "type": "address"
        },
        {
          "internalType": "string",
          "name": "sharedString",
          "type": "string"
        }
      ],
      "name": "makeSharesAccessibleToTheHolders",
      "outputs": [],
      "stateMutability": "nonpayable",
      "type": "function"
    },
    {
      "inputs": [
        {
          "internalType": "string",
          "name": "name",
          "type": "string"
        },
        {
          "internalType": "address",
          "name": "requesterAddress",
          "type": "address"
        }
      ],
      "name": "makeARequestToGetShares",
      "outputs": [],
      "stateMutability": "nonpayable",
      "type": "function"
    }
  ],
  "bytecode": "0x608060405234801561001057600080fd5b50613302806100206000396000f3fe608060405234801561001057600080fd5b50600436106101165760003560e01c806382760fca116100a2578063c588234411610071578063c58823441461033b578063cc2f22f11461036b578063d71e80e314610387578063e7618a0a146103b7578063ec6ea3aa146103d357610116565b806382760fca1461028f57806399f8b09f146102bf578063a5311bcf146102ef578063bc9d62711461031f57610116565b80636e8548bb116100e95780636e8548bb146101db57806374cf3e51146101f75780637568708f146102275780637915c069146102575780637cbfc58f1461027357610116565b806309da40ae1461011b5780630d85d8391461014b57806314338f9d1461017b57806354f5fcba146101ab575b600080fd5b61013560048036038101906101309190612741565b6103ef565b60405161014291906127a3565b60405180910390f35b61016560048036038101906101609190612873565b61061a565b60405161017291906128d7565b60405180910390f35b610195600480360381019061019091906128f2565b6106a3565b6040516101a291906127a3565b60405180910390f35b6101c560048036038101906101c091906128f2565b6107fc565b6040516101d291906127a3565b60405180910390f35b6101f560048036038101906101f0919061291f565b610955565b005b610211600480360381019061020c91906128f2565b610a5b565b60405161021e91906127a3565b60405180910390f35b610241600480360381019061023c91906128f2565b610bb4565b60405161024e9190612a1d565b60405180910390f35b610271600480360381019061026c9190612a3f565b610f64565b005b61028d60048036038101906102889190612aae565b611125565b005b6102a960048036038101906102a49190612873565b6113d4565b6040516102b69190612b39565b60405180910390f35b6102d960048036038101906102d491906128f2565b6114be565b6040516102e69190612a1d565b60405180910390f35b610309600480360381019061030491906128f2565b6116c1565b6040516103169190612b63565b60405180910390f35b61033960048036038101906103349190612baa565b611729565b005b61035560048036038101906103509190612741565b611a31565b6040516103629190612a1d565b60405180910390f35b61038560048036038101906103809190612bfd565b611d02565b005b6103a1600480360381019061039c91906128f2565b611dde565b6040516103ae9190612a1d565b60405180910390f35b6103d160048036038101906103cc9190612c6c565b61218e565b005b6103ed60048036038101906103e89190612cf4565b61238e565b005b6000806000905060005b835181101561061057600084828151811061041757610416612d21565b5b6020026020010151905060005b6003805490508110156105fb5760006003828154811061044757610446612d21565b5b90600052602060002090600302016040518060600160405290816000820160009054906101000a900473ffffffffffffffffffffffffffffffffffffffff1673ffffffffffffffffffffffffffffffffffffffff1673ffffffffffffffffffffffffffffffffffffffff1681526020016001820180546104c690612d7f565b80601f01602080910402602001604051908101604052809291908181526020018280546104f290612d7f565b801561053f5780601f106105145761010080835404028352916020019161053f565b820191906000526020600020905b81548152906001019060200180831161052257829003601f168201915b505050505081526020016002820160009054906101000a900473ffffffffffffffffffffffffffffffffffffffff1673ffffffffffffffffffffffffffffffffffffffff1673ffffffffffffffffffffffffffffffffffffffff168152505090508273ffffffffffffffffffffffffffffffffffffffff16816040015173ffffffffffffffffffffffffffffffffffffffff16036105e7576001856105e49190612ddf565b94505b5080806105f390612e13565b915050610424565b5050808061060890612e13565b9150506103f9565b5080915050919050565b60008073ffffffffffffffffffffffffffffffffffffffff166001836040516106439190612ecc565b908152602001604051809103902060000160009054906101000a900473ffffffffffffffffffffffffffffffffffffffff1673ffffffffffffffffffffffffffffffffffffffff1603610699576000905061069e565b600190505b919050565b6000806000905060005b6005805490508110156107f2576000600582815481106106d0576106cf612d21565b5b90600052602060002090600202016040518060400160405290816000820160009054906101000a900473ffffffffffffffffffffffffffffffffffffffff1673ffffffffffffffffffffffffffffffffffffffff1673ffffffffffffffffffffffffffffffffffffffff1681526020016001820160009054906101000a900473ffffffffffffffffffffffffffffffffffffffff1673ffffffffffffffffffffffffffffffffffffffff1673ffffffffffffffffffffffffffffffffffffffff168152505090508473ffffffffffffffffffffffffffffffffffffffff16816000015173ffffffffffffffffffffffffffffffffffffffff16036107de576001836107db9190612ddf565b92505b5080806107ea90612e13565b9150506106ad565b5080915050919050565b6000806000905060005b60048054905081101561094b5760006004828154811061082957610828612d21565b5b90600052602060002090600202016040518060400160405290816000820160009054906101000a900473ffffffffffffffffffffffffffffffffffffffff1673ffffffffffffffffffffffffffffffffffffffff1673ffffffffffffffffffffffffffffffffffffffff1681526020016001820160009054906101000a900473ffffffffffffffffffffffffffffffffffffffff1673ffffffffffffffffffffffffffffffffffffffff1673ffffffffffffffffffffffffffffffffffffffff168152505090508473ffffffffffffffffffffffffffffffffffffffff16816000015173ffffffffffffffffffffffffffffffffffffffff1603610937576001836109349190612ddf565b92505b50808061094390612e13565b915050610806565b5080915050919050565b600060405180604001604052808473ffffffffffffffffffffffffffffffffffffffff1681526020018373ffffffffffffffffffffffffffffffffffffffff168152509050600281908060018154018082558091505060019003906000526020600020906002020160009091909190915060008201518160000160006101000a81548173ffffffffffffffffffffffffffffffffffffffff021916908373ffffffffffffffffffffffffffffffffffffffff16021790555060208201518160010160006101000a81548173ffffffffffffffffffffffffffffffffffffffff021916908373ffffffffffffffffffffffffffffffffffffffff1602179055505050505050565b6000806000905060005b600280549050811015610baa57600060028281548110610a8857610a87612d21565b5b90600052602060002090600202016040518060400160405290816000820160009054906101000a900473ffffffffffffffffffffffffffffffffffffffff1673ffffffffffffffffffffffffffffffffffffffff1673ffffffffffffffffffffffffffffffffffffffff1681526020016001820160009054906101000a900473ffffffffffffffffffffffffffffffffffffffff1673ffffffffffffffffffffffffffffffffffffffff1673ffffffffffffffffffffffffffffffffffffffff168152505090508473ffffffffffffffffffffffffffffffffffffffff16816020015173ffffffffffffffffffffffffffffffffffffffff1603610b9657600183610b939190612ddf565b92505b508080610ba290612e13565b915050610a65565b5080915050919050565b60606000610bc1836106a3565b90506000808267ffffffffffffffff811115610be057610bdf6125a0565b5b604051908082528060200260200182016040528015610c0e5781602001602082028036833780820191505090505b50905060005b600580549050811015610dab57600060058281548110610c3757610c36612d21565b5b90600052602060002090600202016040518060400160405290816000820160009054906101000a900473ffffffffffffffffffffffffffffffffffffffff1673ffffffffffffffffffffffffffffffffffffffff1673ffffffffffffffffffffffffffffffffffffffff1681526020016001820160009054906101000a900473ffffffffffffffffffffffffffffffffffffffff1673ffffffffffffffffffffffffffffffffffffffff1673ffffffffffffffffffffffffffffffffffffffff168152505090508673ffffffffffffffffffffffffffffffffffffffff16816000015173ffffffffffffffffffffffffffffffffffffffff1603610d97578060200151838581518110610d4d57610d4c612d21565b5b602002602001019073ffffffffffffffffffffffffffffffffffffffff16908173ffffffffffffffffffffffffffffffffffffffff1681525050600184610d949190612ddf565b93505b508080610da390612e13565b915050610c14565b5060005b600580549050811015610f5857600060058281548110610dd257610dd1612d21565b5b90600052602060002090600202016040518060400160405290816000820160009054906101000a900473ffffffffffffffffffffffffffffffffffffffff1673ffffffffffffffffffffffffffffffffffffffff1673ffffffffffffffffffffffffffffffffffffffff1681526020016001820160009054906101000a900473ffffffffffffffffffffffffffffffffffffffff1673ffffffffffffffffffffffffffffffffffffffff1673ffffffffffffffffffffffffffffffffffffffff168152505090508673ffffffffffffffffffffffffffffffffffffffff16816000015173ffffffffffffffffffffffffffffffffffffffff1603610f445760058281548110610ee457610ee3612d21565b5b9060005260206000209060020201600080820160006101000a81549073ffffffffffffffffffffffffffffffffffffffff02191690556001820160006101000a81549073ffffffffffffffffffffffffffffffffffffffff021916905550505b508080610f5090612e13565b915050610daf565b50809350505050919050565b610f6d8361061a565b15610fad576040517f08c379a0000000000000000000000000000000000000000000000000000000008152600401610fa490612f40565b60405180910390fd5b806000808473ffffffffffffffffffffffffffffffffffffffff1673ffffffffffffffffffffffffffffffffffffffff16815260200190815260200160002060006101000a81548173ffffffffffffffffffffffffffffffffffffffff021916908373ffffffffffffffffffffffffffffffffffffffff160217905550600060405180604001604052808473ffffffffffffffffffffffffffffffffffffffff1681526020018373ffffffffffffffffffffffffffffffffffffffff168152509050806001856040516110809190612ecc565b908152602001604051809103902060008201518160000160006101000a81548173ffffffffffffffffffffffffffffffffffffffff021916908373ffffffffffffffffffffffffffffffffffffffff16021790555060208201518160010160006101000a81548173ffffffffffffffffffffffffffffffffffffffff021916908373ffffffffffffffffffffffffffffffffffffffff16021790555090505050505050565b60005b6003805490508110156113cf5760006003828154811061114b5761114a612d21565b5b90600052602060002090600302016040518060600160405290816000820160009054906101000a900473ffffffffffffffffffffffffffffffffffffffff1673ffffffffffffffffffffffffffffffffffffffff1673ffffffffffffffffffffffffffffffffffffffff1681526020016001820180546111ca90612d7f565b80601f01602080910402602001604051908101604052809291908181526020018280546111f690612d7f565b80156112435780601f1061121857610100808354040283529160200191611243565b820191906000526020600020905b81548152906001019060200180831161122657829003601f168201915b505050505081526020016002820160009054906101000a900473ffffffffffffffffffffffffffffffffffffffff1673ffffffffffffffffffffffffffffffffffffffff1673ffffffffffffffffffffffffffffffffffffffff168152505090508373ffffffffffffffffffffffffffffffffffffffff16816040015173ffffffffffffffffffffffffffffffffffffffff16036113bb5760008160000151905060008060008373ffffffffffffffffffffffffffffffffffffffff1673ffffffffffffffffffffffffffffffffffffffff16815260200190815260200160002060009054906101000a900473ffffffffffffffffffffffffffffffffffffffff16905060008190508073ffffffffffffffffffffffffffffffffffffffff1663d65ec855876040518263ffffffff1660e01b81526004016113859190612f99565b600060405180830381600087803b15801561139f57600080fd5b505af11580156113b3573d6000803e3d6000fd5b505050505050505b5080806113c790612e13565b915050611128565b505050565b6113dc612530565b60006001836040516113ee9190612ecc565b90815260200160405180910390206040518060400160405290816000820160009054906101000a900473ffffffffffffffffffffffffffffffffffffffff1673ffffffffffffffffffffffffffffffffffffffff1673ffffffffffffffffffffffffffffffffffffffff1681526020016001820160009054906101000a900473ffffffffffffffffffffffffffffffffffffffff1673ffffffffffffffffffffffffffffffffffffffff1673ffffffffffffffffffffffffffffffffffffffff1681525050905080915050919050565b606060006114cb83610a5b565b90506000808267ffffffffffffffff8111156114ea576114e96125a0565b5b6040519080825280602002602001820160405280156115185781602001602082028036833780820191505090505b50905060005b6002805490508110156116b55760006002828154811061154157611540612d21565b5b90600052602060002090600202016040518060400160405290816000820160009054906101000a900473ffffffffffffffffffffffffffffffffffffffff1673ffffffffffffffffffffffffffffffffffffffff1673ffffffffffffffffffffffffffffffffffffffff1681526020016001820160009054906101000a900473ffffffffffffffffffffffffffffffffffffffff1673ffffffffffffffffffffffffffffffffffffffff1673ffffffffffffffffffffffffffffffffffffffff168152505090508673ffffffffffffffffffffffffffffffffffffffff16816020015173ffffffffffffffffffffffffffffffffffffffff16036116a157806000015183858151811061165757611656612d21565b5b602002602001019073ffffffffffffffffffffffffffffffffffffffff16908173ffffffffffffffffffffffffffffffffffffffff168152505060018461169e9190612ddf565b93505b5080806116ad90612e13565b91505061151e565b50809350505050919050565b60008060008373ffffffffffffffffffffffffffffffffffffffff1673ffffffffffffffffffffffffffffffffffffffff16815260200190815260200160002060009054906101000a900473ffffffffffffffffffffffffffffffffffffffff169050919050565b60005b600280549050811015611a2b5760006002828154811061174f5761174e612d21565b5b90600052602060002090600202016040518060400160405290816000820160009054906101000a900473ffffffffffffffffffffffffffffffffffffffff1673ffffffffffffffffffffffffffffffffffffffff1673ffffffffffffffffffffffffffffffffffffffff1681526020016001820160009054906101000a900473ffffffffffffffffffffffffffffffffffffffff1673ffffffffffffffffffffffffffffffffffffffff1673ffffffffffffffffffffffffffffffffffffffff168152505090508473ffffffffffffffffffffffffffffffffffffffff16816020015173ffffffffffffffffffffffffffffffffffffffff1614801561188457508373ffffffffffffffffffffffffffffffffffffffff16816000015173ffffffffffffffffffffffffffffffffffffffff16145b15611a17576118928261238e565b821561195957600481908060018154018082558091505060019003906000526020600020906002020160009091909190915060008201518160000160006101000a81548173ffffffffffffffffffffffffffffffffffffffff021916908373ffffffffffffffffffffffffffffffffffffffff16021790555060208201518160010160006101000a81548173ffffffffffffffffffffffffffffffffffffffff021916908373ffffffffffffffffffffffffffffffffffffffff1602179055505050611a16565b600581908060018154018082558091505060019003906000526020600020906002020160009091909190915060008201518160000160006101000a81548173ffffffffffffffffffffffffffffffffffffffff021916908373ffffffffffffffffffffffffffffffffffffffff16021790555060208201518160010160006101000a81548173ffffffffffffffffffffffffffffffffffffffff021916908373ffffffffffffffffffffffffffffffffffffffff16021790555050505b5b508080611a2390612e13565b91505061172c565b50505050565b60606000611a3e836103ef565b90506000808267ffffffffffffffff811115611a5d57611a5c6125a0565b5b604051908082528060200260200182016040528015611a8b5781602001602082028036833780820191505090505b50905060005b8551811015611cf6576000868281518110611aaf57611aae612d21565b5b6020026020010151905060005b600380549050811015611ce157600060038281548110611adf57611ade612d21565b5b90600052602060002090600302016040518060600160405290816000820160009054906101000a900473ffffffffffffffffffffffffffffffffffffffff1673ffffffffffffffffffffffffffffffffffffffff1673ffffffffffffffffffffffffffffffffffffffff168152602001600182018054611b5e90612d7f565b80601f0160208091040260200160405190810160405280929190818152602001828054611b8a90612d7f565b8015611bd75780601f10611bac57610100808354040283529160200191611bd7565b820191906000526020600020905b815481529060010190602001808311611bba57829003601f168201915b505050505081526020016002820160009054906101000a900473ffffffffffffffffffffffffffffffffffffffff1673ffffffffffffffffffffffffffffffffffffffff1673ffffffffffffffffffffffffffffffffffffffff168152505090508273ffffffffffffffffffffffffffffffffffffffff16816040015173ffffffffffffffffffffffffffffffffffffffff1603611ccd5782858781518110611c8357611c82612d21565b5b602002602001019073ffffffffffffffffffffffffffffffffffffffff16908173ffffffffffffffffffffffffffffffffffffffff1681525050600186611cca9190612ddf565b95505b508080611cd990612e13565b915050611abc565b50508080611cee90612e13565b915050611a91565b50809350505050919050565b60008060008473ffffffffffffffffffffffffffffffffffffffff1673ffffffffffffffffffffffffffffffffffffffff16815260200190815260200160002060009054906101000a900473ffffffffffffffffffffffffffffffffffffffff16905060008190508073ffffffffffffffffffffffffffffffffffffffff16634a9ae94a86856040518363ffffffff1660e01b8152600401611da5929190612fbb565b600060405180830381600087803b158015611dbf57600080fd5b505af1158015611dd3573d6000803e3d6000fd5b505050505050505050565b60606000611deb836107fc565b90506000808267ffffffffffffffff811115611e0a57611e096125a0565b5b604051908082528060200260200182016040528015611e385781602001602082028036833780820191505090505b50905060005b600480549050811015611fd557600060048281548110611e6157611e60612d21565b5b90600052602060002090600202016040518060400160405290816000820160009054906101000a900473ffffffffffffffffffffffffffffffffffffffff1673ffffffffffffffffffffffffffffffffffffffff1673ffffffffffffffffffffffffffffffffffffffff1681526020016001820160009054906101000a900473ffffffffffffffffffffffffffffffffffffffff1673ffffffffffffffffffffffffffffffffffffffff1673ffffffffffffffffffffffffffffffffffffffff168152505090508673ffffffffffffffffffffffffffffffffffffffff16816000015173ffffffffffffffffffffffffffffffffffffffff1603611fc1578060200151838581518110611f7757611f76612d21565b5b602002602001019073ffffffffffffffffffffffffffffffffffffffff16908173ffffffffffffffffffffffffffffffffffffffff1681525050600184611fbe9190612ddf565b93505b508080611fcd90612e13565b915050611e3e565b5060005b60048054905081101561218257600060048281548110611ffc57611ffb612d21565b5b90600052602060002090600202016040518060400160405290816000820160009054906101000a900473ffffffffffffffffffffffffffffffffffffffff1673ffffffffffffffffffffffffffffffffffffffff1673ffffffffffffffffffffffffffffffffffffffff1681526020016001820160009054906101000a900473ffffffffffffffffffffffffffffffffffffffff1673ffffffffffffffffffffffffffffffffffffffff1673ffffffffffffffffffffffffffffffffffffffff168152505090508673ffffffffffffffffffffffffffffffffffffffff16816000015173ffffffffffffffffffffffffffffffffffffffff160361216e576004828154811061210e5761210d612d21565b5b9060005260206000209060020201600080820160006101000a81549073ffffffffffffffffffffffffffffffffffffffff02191690556001820160006101000a81549073ffffffffffffffffffffffffffffffffffffffff021916905550505b50808061217a90612e13565b915050611fd9565b50809350505050919050565b60006001836040516121a09190612ecc565b90815260200160405180910390206040518060400160405290816000820160009054906101000a900473ffffffffffffffffffffffffffffffffffffffff1673ffffffffffffffffffffffffffffffffffffffff1673ffffffffffffffffffffffffffffffffffffffff1681526020016001820160009054906101000a900473ffffffffffffffffffffffffffffffffffffffff1673ffffffffffffffffffffffffffffffffffffffff1673ffffffffffffffffffffffffffffffffffffffff16815250509050600060405180606001604052808473ffffffffffffffffffffffffffffffffffffffff168152602001858152602001836000015173ffffffffffffffffffffffffffffffffffffffff168152509050600381908060018154018082558091505060019003906000526020600020906003020160009091909190915060008201518160000160006101000a81548173ffffffffffffffffffffffffffffffffffffffff021916908373ffffffffffffffffffffffffffffffffffffffff160217905550602082015181600101908161233e9190613197565b5060408201518160020160006101000a81548173ffffffffffffffffffffffffffffffffffffffff021916908373ffffffffffffffffffffffffffffffffffffffff160217905550505050505050565b600260016002805490506123a29190613269565b815481106123b3576123b2612d21565b5b9060005260206000209060020201600282815481106123d5576123d4612d21565b5b90600052602060002090600202016000820160009054906101000a900473ffffffffffffffffffffffffffffffffffffffff168160000160006101000a81548173ffffffffffffffffffffffffffffffffffffffff021916908373ffffffffffffffffffffffffffffffffffffffff1602179055506001820160009054906101000a900473ffffffffffffffffffffffffffffffffffffffff168160010160006101000a81548173ffffffffffffffffffffffffffffffffffffffff021916908373ffffffffffffffffffffffffffffffffffffffff16021790555090505060028054806124c6576124c561329d565b5b6001900381819060005260206000209060020201600080820160006101000a81549073ffffffffffffffffffffffffffffffffffffffff02191690556001820160006101000a81549073ffffffffffffffffffffffffffffffffffffffff02191690555050905550565b6040518060400160405280600073ffffffffffffffffffffffffffffffffffffffff168152602001600073ffffffffffffffffffffffffffffffffffffffff1681525090565b6000604051905090565b600080fd5b600080fd5b600080fd5b6000601f19601f8301169050919050565b7f4e487b7100000000000000000000000000000000000000000000000000000000600052604160045260246000fd5b6125d88261258f565b810181811067ffffffffffffffff821117156125f7576125f66125a0565b5b80604052505050565b600061260a612576565b905061261682826125cf565b919050565b600067ffffffffffffffff821115612636576126356125a0565b5b602082029050602081019050919050565b600080fd5b600073ffffffffffffffffffffffffffffffffffffffff82169050919050565b60006126778261264c565b9050919050565b6126878161266c565b811461269257600080fd5b50565b6000813590506126a48161267e565b92915050565b60006126bd6126b88461261b565b612600565b905080838252602082019050602084028301858111156126e0576126df612647565b5b835b8181101561270957806126f58882612695565b8452602084019350506020810190506126e2565b5050509392505050565b600082601f8301126127285761272761258a565b5b81356127388482602086016126aa565b91505092915050565b60006020828403121561275757612756612580565b5b600082013567ffffffffffffffff81111561277557612774612585565b5b61278184828501612713565b91505092915050565b6000819050919050565b61279d8161278a565b82525050565b60006020820190506127b86000830184612794565b92915050565b600080fd5b600067ffffffffffffffff8211156127de576127dd6125a0565b5b6127e78261258f565b9050602081019050919050565b82818337600083830152505050565b6000612816612811846127c3565b612600565b905082815260208101848484011115612832576128316127be565b5b61283d8482856127f4565b509392505050565b600082601f83011261285a5761285961258a565b5b813561286a848260208601612803565b91505092915050565b60006020828403121561288957612888612580565b5b600082013567ffffffffffffffff8111156128a7576128a6612585565b5b6128b384828501612845565b91505092915050565b60008115159050919050565b6128d1816128bc565b82525050565b60006020820190506128ec60008301846128c8565b92915050565b60006020828403121561290857612907612580565b5b600061291684828501612695565b91505092915050565b6000806040838503121561293657612935612580565b5b600061294485828601612695565b925050602061295585828601612695565b9150509250929050565b600081519050919050565b600082825260208201905092915050565b6000819050602082019050919050565b6129948161266c565b82525050565b60006129a6838361298b565b60208301905092915050565b6000602082019050919050565b60006129ca8261295f565b6129d4818561296a565b93506129df8361297b565b8060005b83811015612a105781516129f7888261299a565b9750612a02836129b2565b9250506001810190506129e3565b5085935050505092915050565b60006020820190508181036000830152612a3781846129bf565b905092915050565b600080600060608486031215612a5857612a57612580565b5b600084013567ffffffffffffffff811115612a7657612a75612585565b5b612a8286828701612845565b9350506020612a9386828701612695565b9250506040612aa486828701612695565b9150509250925092565b60008060408385031215612ac557612ac4612580565b5b6000612ad385828601612695565b925050602083013567ffffffffffffffff811115612af457612af3612585565b5b612b0085828601612845565b9150509250929050565b604082016000820151612b20600085018261298b565b506020820151612b33602085018261298b565b50505050565b6000604082019050612b4e6000830184612b0a565b92915050565b612b5d8161266c565b82525050565b6000602082019050612b786000830184612b54565b92915050565b612b87816128bc565b8114612b9257600080fd5b50565b600081359050612ba481612b7e565b92915050565b600080600060608486031215612bc357612bc2612580565b5b6000612bd186828701612695565b9350506020612be286828701612695565b9250506040612bf386828701612b95565b9150509250925092565b600080600060608486031215612c1657612c15612580565b5b6000612c2486828701612695565b9350506020612c3586828701612695565b925050604084013567ffffffffffffffff811115612c5657612c55612585565b5b612c6286828701612845565b9150509250925092565b60008060408385031215612c8357612c82612580565b5b600083013567ffffffffffffffff811115612ca157612ca0612585565b5b612cad85828601612845565b9250506020612cbe85828601612695565b9150509250929050565b612cd18161278a565b8114612cdc57600080fd5b50565b600081359050612cee81612cc8565b92915050565b600060208284031215612d0a57612d09612580565b5b6000612d1884828501612cdf565b91505092915050565b7f4e487b7100000000000000000000000000000000000000000000000000000000600052603260045260246000fd5b7f4e487b7100000000000000000000000000000000000000000000000000000000600052602260045260246000fd5b60006002820490506001821680612d9757607f821691505b602082108103612daa57612da9612d50565b5b50919050565b7f4e487b7100000000000000000000000000000000000000000000000000000000600052601160045260246000fd5b6000612dea8261278a565b9150612df58361278a565b9250828201905080821115612e0d57612e0c612db0565b5b92915050565b6000612e1e8261278a565b91507fffffffffffffffffffffffffffffffffffffffffffffffffffffffffffffffff8203612e5057612e4f612db0565b5b600182019050919050565b600081519050919050565b600081905092915050565b60005b83811015612e8f578082015181840152602081019050612e74565b60008484015250505050565b6000612ea682612e5b565b612eb08185612e66565b9350612ec0818560208601612e71565b80840191505092915050565b6000612ed88284612e9b565b915081905092915050565b600082825260208201905092915050565b7f4e616d6520616c72656164792065786973747300000000000000000000000000600082015250565b6000612f2a601383612ee3565b9150612f3582612ef4565b602082019050919050565b60006020820190508181036000830152612f5981612f1d565b9050919050565b6000612f6b82612e5b565b612f758185612ee3565b9350612f85818560208601612e71565b612f8e8161258f565b840191505092915050565b60006020820190508181036000830152612fb38184612f60565b905092915050565b6000604082019050612fd06000830185612b54565b8181036020830152612fe28184612f60565b90509392505050565b60008190508160005260206000209050919050565b60006020601f8301049050919050565b600082821b905092915050565b60006008830261304d7fffffffffffffffffffffffffffffffffffffffffffffffffffffffffffffffff82613010565b6130578683613010565b95508019841693508086168417925050509392505050565b6000819050919050565b600061309461308f61308a8461278a565b61306f565b61278a565b9050919050565b6000819050919050565b6130ae83613079565b6130c26130ba8261309b565b84845461301d565b825550505050565b600090565b6130d76130ca565b6130e28184846130a5565b505050565b5b81811015613106576130fb6000826130cf565b6001810190506130e8565b5050565b601f82111561314b5761311c81612feb565b61312584613000565b81016020851015613134578190505b61314861314085613000565b8301826130e7565b50505b505050565b600082821c905092915050565b600061316e60001984600802613150565b1980831691505092915050565b6000613187838361315d565b9150826002028217905092915050565b6131a082612e5b565b67ffffffffffffffff8111156131b9576131b86125a0565b5b6131c38254612d7f565b6131ce82828561310a565b600060209050601f83116001811461320157600084156131ef578287015190505b6131f9858261317b565b865550613261565b601f19841661320f86612feb565b60005b8281101561323757848901518255600182019150602085019450602081019050613212565b868310156132545784890151613250601f89168261315d565b8355505b6001600288020188555050505b505050505050565b60006132748261278a565b915061327f8361278a565b925082820390508181111561329757613296612db0565b5b92915050565b7f4e487b7100000000000000000000000000000000000000000000000000000000600052603160045260246000fdfea2646970667358221220353a94ac173ac7bfdd469f6957054bf71b574ebc8700550c4a82dce6c0c901b664736f6c63430008100033",
  "immutableReferences": {},
  "source": "//SPDX-License-Identifier: MIT\r\npragma solidity ^0.8.16;\r\n\r\nimport \"./Node.sol\";\r\n//secretHolder \r\ncontract PublicContract {\r\n    //sample node \r\n    struct SampleNode{\r\n        address publicAddress;\r\n        address contractAddress;\r\n        \r\n    }\r\n\r\n    //Request type to add as a share holder\r\n    struct Request{\r\n        address secretOwner;\r\n        address shareHolder;\r\n    }\r\n\r\n    //Share structure\r\n    struct Share{\r\n        address secretOwner;\r\n        address shareHolder;\r\n        string sharedString;\r\n    }\r\n\r\n    //Request to release the secret \r\n    struct ShareRequest{\r\n        address requesterAddress;\r\n        string name;\r\n        address ownerAddress;\r\n    }\r\n\r\n    //address to contract address map\r\n    mapping (address => address ) private  myAddressToContractAddressMap;\r\n\r\n    //name to sample nodes map\r\n    mapping(string => SampleNode) private sampleNodesMap;\r\n\r\n    //be a holder requests list\r\n    Request[] private holderRequests;\r\n\r\n    //secret requesting list original owner's address and requester's address mapping\r\n    ShareRequest[] private secretRequests;\r\n\r\n    // //Released shares for holders\r\n    // Share[] assignedSharesForHolders;\r\n\r\n    // //Released Shares for owners \r\n    // Share[] releasedSharesByHolders;\r\n\r\n    //accepted requests to bea share holder \r\n    //Request[] public acceptedBeShareHolderRequests;\r\n    Request[] private acceptedShareHolderRequests;\r\n\r\n    //Cancelled requests to be a share holder\r\n    Request[] private rejectedShareHolderRequests;\r\n\r\n  \r\n//Check whether username already exist\r\n    function isExists(string memory name) public view returns (bool){\r\n        if(sampleNodesMap[name].publicAddress == address(0)){\r\n            return false;\r\n        }\r\n        return true;\r\n    }\r\n\r\n\r\n\r\n//Register to the public contract \r\n    function register(string memory  name,address publicAddress,address myContractAddress)public {\r\n        require(!isExists(name), \"Name already exists\");\r\n        //nodesMap[name]=node;\r\n        myAddressToContractAddressMap[publicAddress]=myContractAddress;\r\n        SampleNode memory registeringNode= SampleNode(publicAddress,myContractAddress);\r\n        sampleNodesMap[name]=registeringNode;\r\n        return;\r\n    }\r\n\r\n//Get node contract object using the name \r\n    function getContractAddressByName(string memory name) public view returns(SampleNode memory){\r\n        SampleNode memory new_node= sampleNodesMap[name];\r\n        return new_node;\r\n    }\r\n//Get contractAddress using the publicAddress\r\n    function getContractAddressByPublicAddress(address publicAddress) public view returns(address ){\r\n        return myAddressToContractAddressMap[publicAddress];\r\n    }\r\n\r\n//! Access public contract as a share holder --------------------------------------------------------\r\n\r\n//Check there are any requests to add me as a share holder\r\n    function checkRequestsByShareholder(address holderAddress)public view returns(address[] memory ) {\r\n        uint256 tot = getSecretOwnerAddressesCountInHolderRequests(holderAddress); // write a method named getSecretOwnerAddressesCount() to get secretOwnerAddresses count\r\n        uint256 count = 0;\r\n        address[] memory  _secretOwnerAddress= new address[](tot);\r\n        for (uint256 i = 0; i<holderRequests.length; i++){\r\n            Request memory request= holderRequests[i];\r\n            if (request.shareHolder==holderAddress){\r\n            _secretOwnerAddress[count] = request.secretOwner;\r\n            count = count + 1;\r\n            }\r\n\r\n        }\r\n     return _secretOwnerAddress;\r\n    }\r\n\r\n    function getSecretOwnerAddressesCountInHolderRequests(address holderAddress)public view returns(uint256) {\r\n        uint256  count = 0;\r\n        for (uint256 i=0; i<holderRequests.length; i++){\r\n            Request memory request= holderRequests[i];\r\n            if (request.shareHolder==holderAddress){\r\n                count = count + 1;\r\n            }\r\n\r\n        }\r\n        return count;\r\n    }\r\n\r\n//Check there is someone asking for the share from me \r\n    function checkRequestsForTheSeceret(address[]memory secretOwners)public view returns(address[] memory ) {\r\n        uint256 tot = getSecretOwnerAddressesCountInSecretRequests(secretOwners); // write a method named getSecretOwnerAddressesCount() to get secretOwnerAddresses count\r\n        uint256 count = 0;\r\n        address[] memory _secretOwnerAddresses = new address[](tot);\r\n    \r\n        for (uint256 i = 0; i<secretOwners.length; i++){\r\n            address  tempOwner=secretOwners[i];\r\n            for (uint256 j = 0; j<secretRequests.length; j++){\r\n                ShareRequest memory tempSecretRequest=secretRequests[j];\r\n                if (tempSecretRequest.ownerAddress==tempOwner){\r\n                    _secretOwnerAddresses[count] = tempOwner;\r\n                    count = count + 1;\r\n                }\r\n\r\n            }\r\n\r\n        }\r\n     return _secretOwnerAddresses;\r\n    }\r\n    \r\n\r\n    function getSecretOwnerAddressesCountInSecretRequests(address[]memory secretOwners)public view returns(uint256) {\r\n        uint256  count = 0;\r\n        for (uint256 i = 0; i<secretOwners.length; i++){\r\n           address  tempOwner =secretOwners[i];\r\n            for (uint256 j = 0; j<secretRequests.length; j++){\r\n                ShareRequest memory tempSecretRequest=secretRequests[j];\r\n                if (tempSecretRequest.ownerAddress==tempOwner){\r\n                    count = count + 1;\r\n                }\r\n\r\n            }\r\n\r\n        }\r\n        return count;\r\n    }\r\n//Give my release to the public \r\n    function releaseTheSecret(address secretOwner,string memory sharedString)public {\r\n         for (uint256 i = 0; i<secretRequests.length; i++){\r\n            ShareRequest memory tempSecretRequest=secretRequests[i];\r\n            if(tempSecretRequest.ownerAddress==secretOwner){\r\n                address requester= tempSecretRequest.requesterAddress;\r\n                address requesterContractAddress=myAddressToContractAddressMap[requester];\r\n                Node requesterContract= Node(requesterContractAddress);\r\n                requesterContract.saveToRegeneratedShares(sharedString);\r\n            }\r\n\r\n        }\r\n    }\r\n\r\n//remove from holder request list \r\n    function removeFromHolderRequestList(uint256 index) public {\r\n        // Move the last element into the place to delete\r\n        holderRequests[index] = holderRequests[holderRequests.length - 1];\r\n        // Remove the last element\r\n        holderRequests.pop();\r\n    }\r\n\r\n//Respond to be the share holder \r\n    function respondToBeShareHolder(address shareHolder,address secretOwner,bool  acceptance)public {\r\n        for (uint256 i = 0; i<holderRequests.length; i++){\r\n            Request memory request= holderRequests[i];\r\n            if (request.shareHolder==shareHolder && request.secretOwner==secretOwner){\r\n                removeFromHolderRequestList(i);\r\n                if (acceptance){\r\n                    acceptedShareHolderRequests.push(request);\r\n                }else{\r\n                    rejectedShareHolderRequests.push(request);\r\n                }\r\n            }\r\n        }\r\n    }\r\n\r\n\r\n\r\n\r\n//Access as a secret owner ----------------------------------------------------------------------\r\n\r\n//Make a request to add a node as a share holder\r\n    function makeARequestToBeAShareHolder(address secretOwner,address holder)public {\r\n        Request memory new_request= Request(secretOwner,holder);\r\n        holderRequests.push(new_request);\r\n\r\n\r\n }\r\n//get the count of the accepted holders list \r\n    function getSecretHolderAddressesCountInAcceptedHoldersList(address ownerAddress)public view returns(uint256) {\r\n        uint256  count = 0;\r\n        for (uint256 i = 0; i<acceptedShareHolderRequests.length; i++){\r\n            Request memory request= acceptedShareHolderRequests[i];\r\n            if (request.secretOwner==ownerAddress){\r\n                count = count + 1;\r\n            }\r\n\r\n        }\r\n        return count;\r\n    }\r\n\r\n//get the be holder request accepted holders list \r\n    function getRequestAcceptedHoldersList(address secretOwner)public returns(address[] memory) {\r\n        uint256 tot = getSecretHolderAddressesCountInAcceptedHoldersList(secretOwner); // write a method named getSecretOwnerAddressesCount() to get secretOwnerAddresses count\r\n        uint256 count = 0;\r\n        address[] memory _shareHolderAddresses = new address[](tot);\r\n        \r\n\r\n        for (uint256 i = 0; i<acceptedShareHolderRequests.length; i++){\r\n            Request memory request= acceptedShareHolderRequests[i];\r\n            if (request.secretOwner==secretOwner){\r\n                _shareHolderAddresses[count] = request.shareHolder;\r\n                count = count + 1;\r\n            }\r\n\r\n        }\r\n        for (uint256 i = 0; i<acceptedShareHolderRequests.length; i++){\r\n            Request memory request= acceptedShareHolderRequests[i];\r\n            if (request.secretOwner==secretOwner){\r\n                delete acceptedShareHolderRequests[i];\r\n            }\r\n\r\n        }\r\n     return _shareHolderAddresses;\r\n    }\r\n    //get the count of the accepted holders list \r\n    function getSecretHolderAddressesCountInRejectedHoldersList(address ownerAddress)public view returns(uint256) {\r\n        uint256  count = 0;\r\n        for (uint256 i = 0; i<rejectedShareHolderRequests.length; i++){\r\n            Request memory request= rejectedShareHolderRequests[i];\r\n            if (request.secretOwner==ownerAddress){\r\n                count = count + 1;\r\n            }\r\n\r\n        }\r\n        return count;\r\n    }\r\n    //get the be holder request rejected holders list \r\n    function getRequestRejectedHoldersList(address secretOwner)public returns(address[] memory) {\r\n        uint256 tot = getSecretHolderAddressesCountInRejectedHoldersList(secretOwner); // write a method named getSecretOwnerAddressesCount() to get secretOwnerAddresses count\r\n        uint256 count = 0;\r\n        address[] memory _shareHolderAddresses = new address[](tot);\r\n        \r\n\r\n        for (uint256 i = 0; i<rejectedShareHolderRequests.length; i++){\r\n            Request memory request= rejectedShareHolderRequests[i];\r\n            if (request.secretOwner==secretOwner){\r\n                _shareHolderAddresses[count] = request.shareHolder;\r\n                count = count + 1;\r\n            }\r\n\r\n        }\r\n        for (uint256 i = 0; i<rejectedShareHolderRequests.length; i++){\r\n            Request memory request= rejectedShareHolderRequests[i];\r\n            if (request.secretOwner==secretOwner){\r\n                delete rejectedShareHolderRequests[i];\r\n            }\r\n\r\n        }\r\n     return _shareHolderAddresses;\r\n    }\r\n\r\n// Make shares accessible to the share holders \r\n    function makeSharesAccessibleToTheHolders(address secretOwner,address holder,string memory sharedString) public{\r\n        address myContractAddress= myAddressToContractAddressMap[holder];\r\n        Node distributingNode= Node(myContractAddress);\r\n        distributingNode.takeTheSecretFromTheOwner(secretOwner,sharedString);\r\n        return;\r\n    }\r\n\r\n//Make a request that I need the shares   \r\n    function makeARequestToGetShares(string memory name,address requesterAddress)public {\r\n        SampleNode memory sampleNode= sampleNodesMap[name];\r\n        ShareRequest memory shareRequest=ShareRequest(requesterAddress,name,sampleNode.publicAddress);\r\n        secretRequests.push(shareRequest);\r\n        return;\r\n\r\n    }\r\n\r\n\r\n    \r\n}\r\n",
  "sourcePath": "F:\\Sadaru Kavisha\\Semester 7\\Fyp\\Final Project\\smart-contract-evaluation\\contracts\\PublicContract.sol",
  "compiler": {
    "name": "solc",
    "version": "0.8.16+commit.07a7930e.Emscripten.clang"
  },
  "schemaVersion": "3.4.11",
  "updatedAt": "2023-02-22T06:44:31.844Z",
  "devdoc": {
    "kind": "dev",
    "methods": {},
    "version": 1
  },
  "userdoc": {
    "kind": "user",
    "methods": {},
    "version": 1
  }
}