{
  "contractName": "PublicContract",
  "abi": [
    {
      "inputs": [
        {
          "internalType": "uint256",
          "name": "",
          "type": "uint256"
        }
      ],
      "name": "acceptedShareHolderRequests",
      "outputs": [
        {
          "internalType": "address",
          "name": "secretOwner",
          "type": "address"
        },
        {
          "internalType": "address",
          "name": "shareHolder",
          "type": "address"
        }
      ],
      "stateMutability": "view",
      "type": "function"
    },
    {
      "inputs": [
        {
          "internalType": "uint256",
          "name": "",
          "type": "uint256"
        }
      ],
      "name": "holderRequests",
      "outputs": [
        {
          "internalType": "address",
          "name": "secretOwner",
          "type": "address"
        },
        {
          "internalType": "address",
          "name": "shareHolder",
          "type": "address"
        }
      ],
      "stateMutability": "view",
      "type": "function"
    },
    {
      "inputs": [
        {
          "internalType": "address",
          "name": "",
          "type": "address"
        }
      ],
      "name": "myAddressToContractAddressMap",
      "outputs": [
        {
          "internalType": "address",
          "name": "",
          "type": "address"
        }
      ],
      "stateMutability": "view",
      "type": "function"
    },
    {
      "inputs": [
        {
          "internalType": "uint256",
          "name": "",
          "type": "uint256"
        }
      ],
      "name": "rejectedShareHolderRequests",
      "outputs": [
        {
          "internalType": "address",
          "name": "secretOwner",
          "type": "address"
        },
        {
          "internalType": "address",
          "name": "shareHolder",
          "type": "address"
        }
      ],
      "stateMutability": "view",
      "type": "function"
    },
    {
      "inputs": [
        {
          "internalType": "string",
          "name": "",
          "type": "string"
        }
      ],
      "name": "sampleNodesMap",
      "outputs": [
        {
          "internalType": "address",
          "name": "publicAddress",
          "type": "address"
        },
        {
          "internalType": "address",
          "name": "contractAddress",
          "type": "address"
        }
      ],
      "stateMutability": "view",
      "type": "function"
    },
    {
      "inputs": [
        {
          "internalType": "uint256",
          "name": "",
          "type": "uint256"
        }
      ],
      "name": "secretRequests",
      "outputs": [
        {
          "internalType": "address",
          "name": "requesterAddress",
          "type": "address"
        },
        {
          "internalType": "string",
          "name": "name",
          "type": "string"
        },
        {
          "internalType": "address",
          "name": "ownerAddress",
          "type": "address"
        }
      ],
      "stateMutability": "view",
      "type": "function"
    },
    {
      "inputs": [
        {
          "internalType": "string",
          "name": "name",
          "type": "string"
        }
      ],
      "name": "isExists",
      "outputs": [
        {
          "internalType": "bool",
          "name": "",
          "type": "bool"
        }
      ],
      "stateMutability": "view",
      "type": "function"
    },
    {
      "inputs": [
        {
          "internalType": "string",
          "name": "name",
          "type": "string"
        },
        {
          "internalType": "address",
          "name": "publicAddress",
          "type": "address"
        },
        {
          "internalType": "address",
          "name": "myContractAddress",
          "type": "address"
        }
      ],
      "name": "register",
      "outputs": [],
      "stateMutability": "nonpayable",
      "type": "function"
    },
    {
      "inputs": [
        {
          "internalType": "string",
          "name": "name",
          "type": "string"
        }
      ],
      "name": "getContractAddressByName",
      "outputs": [
        {
          "components": [
            {
              "internalType": "address",
              "name": "publicAddress",
              "type": "address"
            },
            {
              "internalType": "address",
              "name": "contractAddress",
              "type": "address"
            }
          ],
          "internalType": "struct PublicContract.SampleNode",
          "name": "",
          "type": "tuple"
        }
      ],
      "stateMutability": "view",
      "type": "function"
    },
    {
      "inputs": [
        {
          "internalType": "address",
          "name": "publicAddress",
          "type": "address"
        }
      ],
      "name": "getContractAddressByPublicAddress",
      "outputs": [
        {
          "internalType": "address",
          "name": "",
          "type": "address"
        }
      ],
      "stateMutability": "view",
      "type": "function"
    },
    {
      "inputs": [
        {
          "internalType": "address",
          "name": "holderAddress",
          "type": "address"
        }
      ],
      "name": "checkRequestsByShareholder",
      "outputs": [
        {
          "internalType": "address[]",
          "name": "",
          "type": "address[]"
        }
      ],
      "stateMutability": "view",
      "type": "function"
    },
    {
      "inputs": [
        {
          "internalType": "address",
          "name": "holderAddress",
          "type": "address"
        }
      ],
      "name": "getSecretOwnerAddressesCountInHolderRequests",
      "outputs": [
        {
          "internalType": "uint256",
          "name": "",
          "type": "uint256"
        }
      ],
      "stateMutability": "view",
      "type": "function"
    },
    {
      "inputs": [
        {
          "internalType": "address[]",
          "name": "secretOwners",
          "type": "address[]"
        }
      ],
      "name": "checkRequestsForTheSeceret",
      "outputs": [
        {
          "internalType": "address[]",
          "name": "",
          "type": "address[]"
        }
      ],
      "stateMutability": "view",
      "type": "function"
    },
    {
      "inputs": [
        {
          "internalType": "address[]",
          "name": "secretOwners",
          "type": "address[]"
        }
      ],
      "name": "getSecretOwnerAddressesCountInSecretRequests",
      "outputs": [
        {
          "internalType": "uint256",
          "name": "",
          "type": "uint256"
        }
      ],
      "stateMutability": "view",
      "type": "function"
    },
    {
      "inputs": [
        {
          "internalType": "address",
          "name": "secretOwner",
          "type": "address"
        },
        {
          "internalType": "string",
          "name": "sharedString",
          "type": "string"
        }
      ],
      "name": "releaseTheSecret",
      "outputs": [],
      "stateMutability": "nonpayable",
      "type": "function"
    },
    {
      "inputs": [
        {
          "internalType": "uint256",
          "name": "index",
          "type": "uint256"
        }
      ],
      "name": "removeFromHolderRequestList",
      "outputs": [],
      "stateMutability": "nonpayable",
      "type": "function"
    },
    {
      "inputs": [
        {
          "internalType": "uint256",
          "name": "index",
          "type": "uint256"
        }
      ],
      "name": "removeFromHolderAcceptedList",
      "outputs": [],
      "stateMutability": "nonpayable",
      "type": "function"
    },
    {
      "inputs": [
        {
          "internalType": "uint256",
          "name": "index",
          "type": "uint256"
        }
      ],
      "name": "removeFromHolderRejectedList",
      "outputs": [],
      "stateMutability": "nonpayable",
      "type": "function"
    },
    {
      "inputs": [
        {
          "internalType": "address",
          "name": "shareHolder",
          "type": "address"
        },
        {
          "internalType": "address",
          "name": "secretOwner",
          "type": "address"
        },
        {
          "internalType": "bool",
          "name": "acceptance",
          "type": "bool"
        }
      ],
      "name": "respondToBeShareHolder",
      "outputs": [],
      "stateMutability": "nonpayable",
      "type": "function"
    },
    {
      "inputs": [
        {
          "internalType": "address",
          "name": "secretOwner",
          "type": "address"
        },
        {
          "internalType": "address",
          "name": "holder",
          "type": "address"
        }
      ],
      "name": "makeARequestToBeAShareHolder",
      "outputs": [],
      "stateMutability": "nonpayable",
      "type": "function"
    },
    {
      "inputs": [
        {
          "internalType": "address",
          "name": "ownerAddress",
          "type": "address"
        }
      ],
      "name": "getSecretHolderAddressesCountInAcceptedHoldersList",
      "outputs": [
        {
          "internalType": "uint256",
          "name": "",
          "type": "uint256"
        }
      ],
      "stateMutability": "view",
      "type": "function"
    },
    {
      "inputs": [
        {
          "internalType": "address",
          "name": "secretOwner",
          "type": "address"
        }
      ],
      "name": "getRequestAcceptedHoldersList",
      "outputs": [
        {
          "internalType": "address[]",
          "name": "",
          "type": "address[]"
        }
      ],
      "stateMutability": "nonpayable",
      "type": "function"
    },
    {
      "inputs": [
        {
          "internalType": "address",
          "name": "ownerAddress",
          "type": "address"
        }
      ],
      "name": "getSecretHolderAddressesCountInRejectedHoldersList",
      "outputs": [
        {
          "internalType": "uint256",
          "name": "",
          "type": "uint256"
        }
      ],
      "stateMutability": "view",
      "type": "function"
    },
    {
      "inputs": [
        {
          "internalType": "address",
          "name": "secretOwner",
          "type": "address"
        }
      ],
      "name": "getRequestRejectedHoldersList",
      "outputs": [
        {
          "internalType": "address[]",
          "name": "",
          "type": "address[]"
        }
      ],
      "stateMutability": "nonpayable",
      "type": "function"
    },
    {
      "inputs": [
        {
          "internalType": "address",
          "name": "secretOwner",
          "type": "address"
        },
        {
          "internalType": "address",
          "name": "holder",
          "type": "address"
        },
        {
          "internalType": "string",
          "name": "sharedString",
          "type": "string"
        }
      ],
      "name": "makeSharesAccessibleToTheHolders",
      "outputs": [],
      "stateMutability": "nonpayable",
      "type": "function"
    },
    {
      "inputs": [
        {
          "internalType": "string",
          "name": "name",
          "type": "string"
        },
        {
          "internalType": "address",
          "name": "requesterAddress",
          "type": "address"
        }
      ],
      "name": "makeARequestToGetShares",
      "outputs": [],
      "stateMutability": "nonpayable",
      "type": "function"
    }
  ],
  "bytecode": "0x608060405234801561001057600080fd5b50613846806100206000396000f3fe608060405234801561001057600080fd5b506004361061018e5760003560e01c806382760fca116100de578063c588234411610097578063d9857d5f11610071578063d9857d5f1461052b578063e7618a0a1461055c578063ec6ea3aa14610578578063f9e203c3146105945761018e565b8063c5882344146104af578063cc2f22f1146104df578063d71e80e3146104fb5761018e565b806382760fca146103b75780638f090b91146103e757806395f32d8d1461041757806399f8b09f14610433578063a5311bcf14610463578063bc9d6271146104935761018e565b806354f5fcba1161014b57806374cf3e511161012557806374cf3e511461031f5780637568708f1461034f5780637915c0691461037f5780637cbfc58f1461039b5761018e565b806354f5fcba146102a257806358d30dbc146102d25780636e8548bb146103035761018e565b8063029253b81461019357806302edcfa3146101af57806309da40ae146101e15780630d85d8391461021157806314338f9d146102415780633bc358e814610271575b600080fd5b6101ad60048036038101906101a89190612a9d565b6105c5565b005b6101c960048036038101906101c49190612a9d565b610767565b6040516101d893929190612b9b565b60405180910390f35b6101fb60048036038101906101f69190612d4d565b610869565b6040516102089190612da5565b60405180910390f35b61022b60048036038101906102269190612e75565b610a94565b6040516102389190612ed9565b60405180910390f35b61025b60048036038101906102569190612ef4565b610b1d565b6040516102689190612da5565b60405180910390f35b61028b60048036038101906102869190612a9d565b610c76565b604051610299929190612f21565b60405180910390f35b6102bc60048036038101906102b79190612ef4565b610cea565b6040516102c99190612da5565b60405180910390f35b6102ec60048036038101906102e79190612a9d565b610e43565b6040516102fa929190612f21565b60405180910390f35b61031d60048036038101906103189190612f4a565b610eb7565b005b61033960048036038101906103349190612ef4565b610fbd565b6040516103469190612da5565b60405180910390f35b61036960048036038101906103649190612ef4565b611116565b6040516103769190613048565b60405180910390f35b6103996004803603810190610394919061306a565b611322565b005b6103b560048036038101906103b091906130d9565b6114e3565b005b6103d160048036038101906103cc9190612e75565b611792565b6040516103de9190613164565b60405180910390f35b61040160048036038101906103fc9190612ef4565b61187c565b60405161040e919061317f565b60405180910390f35b610431600480360381019061042c9190612a9d565b6118af565b005b61044d60048036038101906104489190612ef4565b611a51565b60405161045a9190613048565b60405180910390f35b61047d60048036038101906104789190612ef4565b611c54565b60405161048a919061317f565b60405180910390f35b6104ad60048036038101906104a891906131c6565b611cbc565b005b6104c960048036038101906104c49190612d4d565b611fc4565b6040516104d69190613048565b60405180910390f35b6104f960048036038101906104f49190613219565b612295565b005b61051560048036038101906105109190612ef4565b612371565b6040516105229190613048565b60405180910390f35b61054560048036038101906105409190612e75565b61257d565b604051610553929190612f21565b60405180910390f35b61057660048036038101906105719190613288565b6125f7565b005b610592600480360381019061058d9190612a9d565b6127f7565b005b6105ae60048036038101906105a99190612a9d565b612999565b6040516105bc929190612f21565b60405180910390f35b600460016004805490506105d99190613313565b815481106105ea576105e9613347565b5b90600052602060002090600202016004828154811061060c5761060b613347565b5b90600052602060002090600202016000820160009054906101000a900473ffffffffffffffffffffffffffffffffffffffff168160000160006101000a81548173ffffffffffffffffffffffffffffffffffffffff021916908373ffffffffffffffffffffffffffffffffffffffff1602179055506001820160009054906101000a900473ffffffffffffffffffffffffffffffffffffffff168160010160006101000a81548173ffffffffffffffffffffffffffffffffffffffff021916908373ffffffffffffffffffffffffffffffffffffffff16021790555090505060048054806106fd576106fc613376565b5b6001900381819060005260206000209060020201600080820160006101000a81549073ffffffffffffffffffffffffffffffffffffffff02191690556001820160006101000a81549073ffffffffffffffffffffffffffffffffffffffff02191690555050905550565b6003818154811061077757600080fd5b90600052602060002090600302016000915090508060000160009054906101000a900473ffffffffffffffffffffffffffffffffffffffff16908060010180546107c0906133d4565b80601f01602080910402602001604051908101604052809291908181526020018280546107ec906133d4565b80156108395780601f1061080e57610100808354040283529160200191610839565b820191906000526020600020905b81548152906001019060200180831161081c57829003601f168201915b5050505050908060020160009054906101000a900473ffffffffffffffffffffffffffffffffffffffff16905083565b6000806000905060005b8351811015610a8a57600084828151811061089157610890613347565b5b6020026020010151905060005b600380549050811015610a75576000600382815481106108c1576108c0613347565b5b90600052602060002090600302016040518060600160405290816000820160009054906101000a900473ffffffffffffffffffffffffffffffffffffffff1673ffffffffffffffffffffffffffffffffffffffff1673ffffffffffffffffffffffffffffffffffffffff168152602001600182018054610940906133d4565b80601f016020809104026020016040519081016040528092919081815260200182805461096c906133d4565b80156109b95780601f1061098e576101008083540402835291602001916109b9565b820191906000526020600020905b81548152906001019060200180831161099c57829003601f168201915b505050505081526020016002820160009054906101000a900473ffffffffffffffffffffffffffffffffffffffff1673ffffffffffffffffffffffffffffffffffffffff1673ffffffffffffffffffffffffffffffffffffffff168152505090508273ffffffffffffffffffffffffffffffffffffffff16816040015173ffffffffffffffffffffffffffffffffffffffff1603610a6157600185610a5e9190613405565b94505b508080610a6d90613439565b91505061089e565b50508080610a8290613439565b915050610873565b5080915050919050565b60008073ffffffffffffffffffffffffffffffffffffffff16600183604051610abd91906134bd565b908152602001604051809103902060000160009054906101000a900473ffffffffffffffffffffffffffffffffffffffff1673ffffffffffffffffffffffffffffffffffffffff1603610b135760009050610b18565b600190505b919050565b6000806000905060005b600580549050811015610c6c57600060058281548110610b4a57610b49613347565b5b90600052602060002090600202016040518060400160405290816000820160009054906101000a900473ffffffffffffffffffffffffffffffffffffffff1673ffffffffffffffffffffffffffffffffffffffff1673ffffffffffffffffffffffffffffffffffffffff1681526020016001820160009054906101000a900473ffffffffffffffffffffffffffffffffffffffff1673ffffffffffffffffffffffffffffffffffffffff1673ffffffffffffffffffffffffffffffffffffffff168152505090508473ffffffffffffffffffffffffffffffffffffffff16816000015173ffffffffffffffffffffffffffffffffffffffff1603610c5857600183610c559190613405565b92505b508080610c6490613439565b915050610b27565b8192505050919050565b60058181548110610c8657600080fd5b90600052602060002090600202016000915090508060000160009054906101000a900473ffffffffffffffffffffffffffffffffffffffff16908060010160009054906101000a900473ffffffffffffffffffffffffffffffffffffffff16905082565b6000806000905060005b600480549050811015610e3957600060048281548110610d1757610d16613347565b5b90600052602060002090600202016040518060400160405290816000820160009054906101000a900473ffffffffffffffffffffffffffffffffffffffff1673ffffffffffffffffffffffffffffffffffffffff1673ffffffffffffffffffffffffffffffffffffffff1681526020016001820160009054906101000a900473ffffffffffffffffffffffffffffffffffffffff1673ffffffffffffffffffffffffffffffffffffffff1673ffffffffffffffffffffffffffffffffffffffff168152505090508473ffffffffffffffffffffffffffffffffffffffff16816000015173ffffffffffffffffffffffffffffffffffffffff1603610e2557600183610e229190613405565b92505b508080610e3190613439565b915050610cf4565b8192505050919050565b60028181548110610e5357600080fd5b90600052602060002090600202016000915090508060000160009054906101000a900473ffffffffffffffffffffffffffffffffffffffff16908060010160009054906101000a900473ffffffffffffffffffffffffffffffffffffffff16905082565b600060405180604001604052808473ffffffffffffffffffffffffffffffffffffffff1681526020018373ffffffffffffffffffffffffffffffffffffffff168152509050600281908060018154018082558091505060019003906000526020600020906002020160009091909190915060008201518160000160006101000a81548173ffffffffffffffffffffffffffffffffffffffff021916908373ffffffffffffffffffffffffffffffffffffffff16021790555060208201518160010160006101000a81548173ffffffffffffffffffffffffffffffffffffffff021916908373ffffffffffffffffffffffffffffffffffffffff1602179055505050505050565b6000806000905060005b60028054905081101561110c57600060028281548110610fea57610fe9613347565b5b90600052602060002090600202016040518060400160405290816000820160009054906101000a900473ffffffffffffffffffffffffffffffffffffffff1673ffffffffffffffffffffffffffffffffffffffff1673ffffffffffffffffffffffffffffffffffffffff1681526020016001820160009054906101000a900473ffffffffffffffffffffffffffffffffffffffff1673ffffffffffffffffffffffffffffffffffffffff1673ffffffffffffffffffffffffffffffffffffffff168152505090508473ffffffffffffffffffffffffffffffffffffffff16816020015173ffffffffffffffffffffffffffffffffffffffff16036110f8576001836110f59190613405565b92505b50808061110490613439565b915050610fc7565b8192505050919050565b6060600061112383610b1d565b90506000808267ffffffffffffffff81111561114257611141612bde565b5b6040519080825280602002602001820160405280156111705781602001602082028036833780820191505090505b50905060005b6005805490508110156113165760006005828154811061119957611198613347565b5b90600052602060002090600202016040518060400160405290816000820160009054906101000a900473ffffffffffffffffffffffffffffffffffffffff1673ffffffffffffffffffffffffffffffffffffffff1673ffffffffffffffffffffffffffffffffffffffff1681526020016001820160009054906101000a900473ffffffffffffffffffffffffffffffffffffffff1673ffffffffffffffffffffffffffffffffffffffff1673ffffffffffffffffffffffffffffffffffffffff168152505090508673ffffffffffffffffffffffffffffffffffffffff16816000015173ffffffffffffffffffffffffffffffffffffffff1603611302576112a0826118af565b80602001518385815181106112b8576112b7613347565b5b602002602001019073ffffffffffffffffffffffffffffffffffffffff16908173ffffffffffffffffffffffffffffffffffffffff16815250506001846112ff9190613405565b93505b50808061130e90613439565b915050611176565b50809350505050919050565b61132b83610a94565b1561136b576040517f08c379a000000000000000000000000000000000000000000000000000000000815260040161136290613520565b60405180910390fd5b806000808473ffffffffffffffffffffffffffffffffffffffff1673ffffffffffffffffffffffffffffffffffffffff16815260200190815260200160002060006101000a81548173ffffffffffffffffffffffffffffffffffffffff021916908373ffffffffffffffffffffffffffffffffffffffff160217905550600060405180604001604052808473ffffffffffffffffffffffffffffffffffffffff1681526020018373ffffffffffffffffffffffffffffffffffffffff1681525090508060018560405161143e91906134bd565b908152602001604051809103902060008201518160000160006101000a81548173ffffffffffffffffffffffffffffffffffffffff021916908373ffffffffffffffffffffffffffffffffffffffff16021790555060208201518160010160006101000a81548173ffffffffffffffffffffffffffffffffffffffff021916908373ffffffffffffffffffffffffffffffffffffffff16021790555090505050505050565b60005b60038054905081101561178d5760006003828154811061150957611508613347565b5b90600052602060002090600302016040518060600160405290816000820160009054906101000a900473ffffffffffffffffffffffffffffffffffffffff1673ffffffffffffffffffffffffffffffffffffffff1673ffffffffffffffffffffffffffffffffffffffff168152602001600182018054611588906133d4565b80601f01602080910402602001604051908101604052809291908181526020018280546115b4906133d4565b80156116015780601f106115d657610100808354040283529160200191611601565b820191906000526020600020905b8154815290600101906020018083116115e457829003601f168201915b505050505081526020016002820160009054906101000a900473ffffffffffffffffffffffffffffffffffffffff1673ffffffffffffffffffffffffffffffffffffffff1673ffffffffffffffffffffffffffffffffffffffff168152505090508373ffffffffffffffffffffffffffffffffffffffff16816040015173ffffffffffffffffffffffffffffffffffffffff16036117795760008160000151905060008060008373ffffffffffffffffffffffffffffffffffffffff1673ffffffffffffffffffffffffffffffffffffffff16815260200190815260200160002060009054906101000a900473ffffffffffffffffffffffffffffffffffffffff16905060008190508073ffffffffffffffffffffffffffffffffffffffff1663d65ec855876040518263ffffffff1660e01b81526004016117439190613540565b600060405180830381600087803b15801561175d57600080fd5b505af1158015611771573d6000803e3d6000fd5b505050505050505b50808061178590613439565b9150506114e6565b505050565b61179a612a0d565b60006001836040516117ac91906134bd565b90815260200160405180910390206040518060400160405290816000820160009054906101000a900473ffffffffffffffffffffffffffffffffffffffff1673ffffffffffffffffffffffffffffffffffffffff1673ffffffffffffffffffffffffffffffffffffffff1681526020016001820160009054906101000a900473ffffffffffffffffffffffffffffffffffffffff1673ffffffffffffffffffffffffffffffffffffffff1673ffffffffffffffffffffffffffffffffffffffff1681525050905080915050919050565b60006020528060005260406000206000915054906101000a900473ffffffffffffffffffffffffffffffffffffffff1681565b600560016005805490506118c39190613313565b815481106118d4576118d3613347565b5b9060005260206000209060020201600582815481106118f6576118f5613347565b5b90600052602060002090600202016000820160009054906101000a900473ffffffffffffffffffffffffffffffffffffffff168160000160006101000a81548173ffffffffffffffffffffffffffffffffffffffff021916908373ffffffffffffffffffffffffffffffffffffffff1602179055506001820160009054906101000a900473ffffffffffffffffffffffffffffffffffffffff168160010160006101000a81548173ffffffffffffffffffffffffffffffffffffffff021916908373ffffffffffffffffffffffffffffffffffffffff16021790555090505060058054806119e7576119e6613376565b5b6001900381819060005260206000209060020201600080820160006101000a81549073ffffffffffffffffffffffffffffffffffffffff02191690556001820160006101000a81549073ffffffffffffffffffffffffffffffffffffffff02191690555050905550565b60606000611a5e83610fbd565b90506000808267ffffffffffffffff811115611a7d57611a7c612bde565b5b604051908082528060200260200182016040528015611aab5781602001602082028036833780820191505090505b50905060005b600280549050811015611c4857600060028281548110611ad457611ad3613347565b5b90600052602060002090600202016040518060400160405290816000820160009054906101000a900473ffffffffffffffffffffffffffffffffffffffff1673ffffffffffffffffffffffffffffffffffffffff1673ffffffffffffffffffffffffffffffffffffffff1681526020016001820160009054906101000a900473ffffffffffffffffffffffffffffffffffffffff1673ffffffffffffffffffffffffffffffffffffffff1673ffffffffffffffffffffffffffffffffffffffff168152505090508673ffffffffffffffffffffffffffffffffffffffff16816020015173ffffffffffffffffffffffffffffffffffffffff1603611c34578060000151838581518110611bea57611be9613347565b5b602002602001019073ffffffffffffffffffffffffffffffffffffffff16908173ffffffffffffffffffffffffffffffffffffffff1681525050600184611c319190613405565b93505b508080611c4090613439565b915050611ab1565b50809350505050919050565b60008060008373ffffffffffffffffffffffffffffffffffffffff1673ffffffffffffffffffffffffffffffffffffffff16815260200190815260200160002060009054906101000a900473ffffffffffffffffffffffffffffffffffffffff169050919050565b60005b600280549050811015611fbe57600060028281548110611ce257611ce1613347565b5b90600052602060002090600202016040518060400160405290816000820160009054906101000a900473ffffffffffffffffffffffffffffffffffffffff1673ffffffffffffffffffffffffffffffffffffffff1673ffffffffffffffffffffffffffffffffffffffff1681526020016001820160009054906101000a900473ffffffffffffffffffffffffffffffffffffffff1673ffffffffffffffffffffffffffffffffffffffff1673ffffffffffffffffffffffffffffffffffffffff168152505090508473ffffffffffffffffffffffffffffffffffffffff16816020015173ffffffffffffffffffffffffffffffffffffffff16148015611e1757508373ffffffffffffffffffffffffffffffffffffffff16816000015173ffffffffffffffffffffffffffffffffffffffff16145b15611faa57611e25826127f7565b8215611eec57600481908060018154018082558091505060019003906000526020600020906002020160009091909190915060008201518160000160006101000a81548173ffffffffffffffffffffffffffffffffffffffff021916908373ffffffffffffffffffffffffffffffffffffffff16021790555060208201518160010160006101000a81548173ffffffffffffffffffffffffffffffffffffffff021916908373ffffffffffffffffffffffffffffffffffffffff1602179055505050611fa9565b600581908060018154018082558091505060019003906000526020600020906002020160009091909190915060008201518160000160006101000a81548173ffffffffffffffffffffffffffffffffffffffff021916908373ffffffffffffffffffffffffffffffffffffffff16021790555060208201518160010160006101000a81548173ffffffffffffffffffffffffffffffffffffffff021916908373ffffffffffffffffffffffffffffffffffffffff16021790555050505b5b508080611fb690613439565b915050611cbf565b50505050565b60606000611fd183610869565b90506000808267ffffffffffffffff811115611ff057611fef612bde565b5b60405190808252806020026020018201604052801561201e5781602001602082028036833780820191505090505b50905060005b855181101561228957600086828151811061204257612041613347565b5b6020026020010151905060005b6003805490508110156122745760006003828154811061207257612071613347565b5b90600052602060002090600302016040518060600160405290816000820160009054906101000a900473ffffffffffffffffffffffffffffffffffffffff1673ffffffffffffffffffffffffffffffffffffffff1673ffffffffffffffffffffffffffffffffffffffff1681526020016001820180546120f1906133d4565b80601f016020809104026020016040519081016040528092919081815260200182805461211d906133d4565b801561216a5780601f1061213f5761010080835404028352916020019161216a565b820191906000526020600020905b81548152906001019060200180831161214d57829003601f168201915b505050505081526020016002820160009054906101000a900473ffffffffffffffffffffffffffffffffffffffff1673ffffffffffffffffffffffffffffffffffffffff1673ffffffffffffffffffffffffffffffffffffffff168152505090508273ffffffffffffffffffffffffffffffffffffffff16816040015173ffffffffffffffffffffffffffffffffffffffff1603612260578285878151811061221657612215613347565b5b602002602001019073ffffffffffffffffffffffffffffffffffffffff16908173ffffffffffffffffffffffffffffffffffffffff168152505060018661225d9190613405565b95505b50808061226c90613439565b91505061204f565b5050808061228190613439565b915050612024565b50809350505050919050565b60008060008473ffffffffffffffffffffffffffffffffffffffff1673ffffffffffffffffffffffffffffffffffffffff16815260200190815260200160002060009054906101000a900473ffffffffffffffffffffffffffffffffffffffff16905060008190508073ffffffffffffffffffffffffffffffffffffffff16634a9ae94a86856040518363ffffffff1660e01b8152600401612338929190613562565b600060405180830381600087803b15801561235257600080fd5b505af1158015612366573d6000803e3d6000fd5b505050505050505050565b6060600061237e83610cea565b90506000808267ffffffffffffffff81111561239d5761239c612bde565b5b6040519080825280602002602001820160405280156123cb5781602001602082028036833780820191505090505b50905060005b600480549050811015612571576000600482815481106123f4576123f3613347565b5b90600052602060002090600202016040518060400160405290816000820160009054906101000a900473ffffffffffffffffffffffffffffffffffffffff1673ffffffffffffffffffffffffffffffffffffffff1673ffffffffffffffffffffffffffffffffffffffff1681526020016001820160009054906101000a900473ffffffffffffffffffffffffffffffffffffffff1673ffffffffffffffffffffffffffffffffffffffff1673ffffffffffffffffffffffffffffffffffffffff168152505090508673ffffffffffffffffffffffffffffffffffffffff16816000015173ffffffffffffffffffffffffffffffffffffffff160361255d576124fb826105c5565b806020015183858151811061251357612512613347565b5b602002602001019073ffffffffffffffffffffffffffffffffffffffff16908173ffffffffffffffffffffffffffffffffffffffff168152505060018461255a9190613405565b93505b50808061256990613439565b9150506123d1565b50809350505050919050565b6001818051602081018201805184825260208301602085012081835280955050505050506000915090508060000160009054906101000a900473ffffffffffffffffffffffffffffffffffffffff16908060010160009054906101000a900473ffffffffffffffffffffffffffffffffffffffff16905082565b600060018360405161260991906134bd565b90815260200160405180910390206040518060400160405290816000820160009054906101000a900473ffffffffffffffffffffffffffffffffffffffff1673ffffffffffffffffffffffffffffffffffffffff1673ffffffffffffffffffffffffffffffffffffffff1681526020016001820160009054906101000a900473ffffffffffffffffffffffffffffffffffffffff1673ffffffffffffffffffffffffffffffffffffffff1673ffffffffffffffffffffffffffffffffffffffff16815250509050600060405180606001604052808473ffffffffffffffffffffffffffffffffffffffff168152602001858152602001836000015173ffffffffffffffffffffffffffffffffffffffff168152509050600381908060018154018082558091505060019003906000526020600020906003020160009091909190915060008201518160000160006101000a81548173ffffffffffffffffffffffffffffffffffffffff021916908373ffffffffffffffffffffffffffffffffffffffff16021790555060208201518160010190816127a7919061373e565b5060408201518160020160006101000a81548173ffffffffffffffffffffffffffffffffffffffff021916908373ffffffffffffffffffffffffffffffffffffffff160217905550505050505050565b6002600160028054905061280b9190613313565b8154811061281c5761281b613347565b5b90600052602060002090600202016002828154811061283e5761283d613347565b5b90600052602060002090600202016000820160009054906101000a900473ffffffffffffffffffffffffffffffffffffffff168160000160006101000a81548173ffffffffffffffffffffffffffffffffffffffff021916908373ffffffffffffffffffffffffffffffffffffffff1602179055506001820160009054906101000a900473ffffffffffffffffffffffffffffffffffffffff168160010160006101000a81548173ffffffffffffffffffffffffffffffffffffffff021916908373ffffffffffffffffffffffffffffffffffffffff160217905550905050600280548061292f5761292e613376565b5b6001900381819060005260206000209060020201600080820160006101000a81549073ffffffffffffffffffffffffffffffffffffffff02191690556001820160006101000a81549073ffffffffffffffffffffffffffffffffffffffff02191690555050905550565b600481815481106129a957600080fd5b90600052602060002090600202016000915090508060000160009054906101000a900473ffffffffffffffffffffffffffffffffffffffff16908060010160009054906101000a900473ffffffffffffffffffffffffffffffffffffffff16905082565b6040518060400160405280600073ffffffffffffffffffffffffffffffffffffffff168152602001600073ffffffffffffffffffffffffffffffffffffffff1681525090565b6000604051905090565b600080fd5b600080fd5b6000819050919050565b612a7a81612a67565b8114612a8557600080fd5b50565b600081359050612a9781612a71565b92915050565b600060208284031215612ab357612ab2612a5d565b5b6000612ac184828501612a88565b91505092915050565b600073ffffffffffffffffffffffffffffffffffffffff82169050919050565b6000612af582612aca565b9050919050565b612b0581612aea565b82525050565b600081519050919050565b600082825260208201905092915050565b60005b83811015612b45578082015181840152602081019050612b2a565b60008484015250505050565b6000601f19601f8301169050919050565b6000612b6d82612b0b565b612b778185612b16565b9350612b87818560208601612b27565b612b9081612b51565b840191505092915050565b6000606082019050612bb06000830186612afc565b8181036020830152612bc28185612b62565b9050612bd16040830184612afc565b949350505050565b600080fd5b7f4e487b7100000000000000000000000000000000000000000000000000000000600052604160045260246000fd5b612c1682612b51565b810181811067ffffffffffffffff82111715612c3557612c34612bde565b5b80604052505050565b6000612c48612a53565b9050612c548282612c0d565b919050565b600067ffffffffffffffff821115612c7457612c73612bde565b5b602082029050602081019050919050565b600080fd5b612c9381612aea565b8114612c9e57600080fd5b50565b600081359050612cb081612c8a565b92915050565b6000612cc9612cc484612c59565b612c3e565b90508083825260208201905060208402830185811115612cec57612ceb612c85565b5b835b81811015612d155780612d018882612ca1565b845260208401935050602081019050612cee565b5050509392505050565b600082601f830112612d3457612d33612bd9565b5b8135612d44848260208601612cb6565b91505092915050565b600060208284031215612d6357612d62612a5d565b5b600082013567ffffffffffffffff811115612d8157612d80612a62565b5b612d8d84828501612d1f565b91505092915050565b612d9f81612a67565b82525050565b6000602082019050612dba6000830184612d96565b92915050565b600080fd5b600067ffffffffffffffff821115612de057612ddf612bde565b5b612de982612b51565b9050602081019050919050565b82818337600083830152505050565b6000612e18612e1384612dc5565b612c3e565b905082815260208101848484011115612e3457612e33612dc0565b5b612e3f848285612df6565b509392505050565b600082601f830112612e5c57612e5b612bd9565b5b8135612e6c848260208601612e05565b91505092915050565b600060208284031215612e8b57612e8a612a5d565b5b600082013567ffffffffffffffff811115612ea957612ea8612a62565b5b612eb584828501612e47565b91505092915050565b60008115159050919050565b612ed381612ebe565b82525050565b6000602082019050612eee6000830184612eca565b92915050565b600060208284031215612f0a57612f09612a5d565b5b6000612f1884828501612ca1565b91505092915050565b6000604082019050612f366000830185612afc565b612f436020830184612afc565b9392505050565b60008060408385031215612f6157612f60612a5d565b5b6000612f6f85828601612ca1565b9250506020612f8085828601612ca1565b9150509250929050565b600081519050919050565b600082825260208201905092915050565b6000819050602082019050919050565b612fbf81612aea565b82525050565b6000612fd18383612fb6565b60208301905092915050565b6000602082019050919050565b6000612ff582612f8a565b612fff8185612f95565b935061300a83612fa6565b8060005b8381101561303b5781516130228882612fc5565b975061302d83612fdd565b92505060018101905061300e565b5085935050505092915050565b600060208201905081810360008301526130628184612fea565b905092915050565b60008060006060848603121561308357613082612a5d565b5b600084013567ffffffffffffffff8111156130a1576130a0612a62565b5b6130ad86828701612e47565b93505060206130be86828701612ca1565b92505060406130cf86828701612ca1565b9150509250925092565b600080604083850312156130f0576130ef612a5d565b5b60006130fe85828601612ca1565b925050602083013567ffffffffffffffff81111561311f5761311e612a62565b5b61312b85828601612e47565b9150509250929050565b60408201600082015161314b6000850182612fb6565b50602082015161315e6020850182612fb6565b50505050565b60006040820190506131796000830184613135565b92915050565b60006020820190506131946000830184612afc565b92915050565b6131a381612ebe565b81146131ae57600080fd5b50565b6000813590506131c08161319a565b92915050565b6000806000606084860312156131df576131de612a5d565b5b60006131ed86828701612ca1565b93505060206131fe86828701612ca1565b925050604061320f868287016131b1565b9150509250925092565b60008060006060848603121561323257613231612a5d565b5b600061324086828701612ca1565b935050602061325186828701612ca1565b925050604084013567ffffffffffffffff81111561327257613271612a62565b5b61327e86828701612e47565b9150509250925092565b6000806040838503121561329f5761329e612a5d565b5b600083013567ffffffffffffffff8111156132bd576132bc612a62565b5b6132c985828601612e47565b92505060206132da85828601612ca1565b9150509250929050565b7f4e487b7100000000000000000000000000000000000000000000000000000000600052601160045260246000fd5b600061331e82612a67565b915061332983612a67565b9250828203905081811115613341576133406132e4565b5b92915050565b7f4e487b7100000000000000000000000000000000000000000000000000000000600052603260045260246000fd5b7f4e487b7100000000000000000000000000000000000000000000000000000000600052603160045260246000fd5b7f4e487b7100000000000000000000000000000000000000000000000000000000600052602260045260246000fd5b600060028204905060018216806133ec57607f821691505b6020821081036133ff576133fe6133a5565b5b50919050565b600061341082612a67565b915061341b83612a67565b9250828201905080821115613433576134326132e4565b5b92915050565b600061344482612a67565b91507fffffffffffffffffffffffffffffffffffffffffffffffffffffffffffffffff8203613476576134756132e4565b5b600182019050919050565b600081905092915050565b600061349782612b0b565b6134a18185613481565b93506134b1818560208601612b27565b80840191505092915050565b60006134c9828461348c565b915081905092915050565b7f4e616d6520616c72656164792065786973747300000000000000000000000000600082015250565b600061350a601383612b16565b9150613515826134d4565b602082019050919050565b60006020820190508181036000830152613539816134fd565b9050919050565b6000602082019050818103600083015261355a8184612b62565b905092915050565b60006040820190506135776000830185612afc565b81810360208301526135898184612b62565b90509392505050565b60008190508160005260206000209050919050565b60006020601f8301049050919050565b600082821b905092915050565b6000600883026135f47fffffffffffffffffffffffffffffffffffffffffffffffffffffffffffffffff826135b7565b6135fe86836135b7565b95508019841693508086168417925050509392505050565b6000819050919050565b600061363b61363661363184612a67565b613616565b612a67565b9050919050565b6000819050919050565b61365583613620565b61366961366182613642565b8484546135c4565b825550505050565b600090565b61367e613671565b61368981848461364c565b505050565b5b818110156136ad576136a2600082613676565b60018101905061368f565b5050565b601f8211156136f2576136c381613592565b6136cc846135a7565b810160208510156136db578190505b6136ef6136e7856135a7565b83018261368e565b50505b505050565b600082821c905092915050565b6000613715600019846008026136f7565b1980831691505092915050565b600061372e8383613704565b9150826002028217905092915050565b61374782612b0b565b67ffffffffffffffff8111156137605761375f612bde565b5b61376a82546133d4565b6137758282856136b1565b600060209050601f8311600181146137a85760008415613796578287015190505b6137a08582613722565b865550613808565b601f1984166137b686613592565b60005b828110156137de578489015182556001820191506020850194506020810190506137b9565b868310156137fb57848901516137f7601f891682613704565b8355505b6001600288020188555050505b50505050505056fea2646970667358221220989dd9980f70f0ae3e4036d0a20ac744a64e4430fd3ae2740f95aa87ad4f4ddb64736f6c63430008110033",
  "immutableReferences": {},
  "source": "//SPDX-License-Identifier: MIT\r\npragma solidity ^0.8.17;\r\n\r\nimport \"./Node.sol\";\r\n//secretHolder \r\ncontract PublicContract {\r\n    //sample node \r\n    struct SampleNode{\r\n        address publicAddress;\r\n        address contractAddress;\r\n        \r\n    }\r\n\r\n    //Request type to add as a share holder\r\n    struct Request{\r\n        address secretOwner;\r\n        address shareHolder;\r\n    }\r\n\r\n    //Share structure\r\n    struct Share{\r\n        address secretOwner;\r\n        address shareHolder;\r\n        string sharedString;\r\n    }\r\n\r\n    //Request to release the secret \r\n    struct ShareRequest{\r\n        address requesterAddress;\r\n        string name;\r\n        address ownerAddress;\r\n    }\r\n\r\n    //address to contract address map\r\n    mapping (address => address ) public myAddressToContractAddressMap;\r\n\r\n    //name to sample nodes map\r\n    mapping(string => SampleNode) public sampleNodesMap;\r\n\r\n    //be a holder requests list\r\n    Request[] public holderRequests;\r\n\r\n    //secret requesting list original owner's address and requester's address mapping\r\n    ShareRequest[] public secretRequests;\r\n\r\n    // //Released shares for holders\r\n    // Share[] assignedSharesForHolders;\r\n\r\n    // //Released Shares for owners \r\n    // Share[] releasedSharesByHolders;\r\n\r\n    //accepted requests to bea share holder \r\n    //Request[] public acceptedBeShareHolderRequests;\r\n    Request[] public acceptedShareHolderRequests;\r\n\r\n    //Cancelled requests to be a share holder\r\n    Request[] public rejectedShareHolderRequests;\r\n\r\n  \r\n//Check whether username already exist\r\n    function isExists(string memory name) public view returns (bool){\r\n        if(sampleNodesMap[name].publicAddress == address(0)){\r\n            return false;\r\n        }\r\n        return true;\r\n    }\r\n\r\n\r\n\r\n//Register to the public contract \r\n    function register(string memory  name,address publicAddress,address myContractAddress)public {\r\n        require(!isExists(name), \"Name already exists\");\r\n        //nodesMap[name]=node;\r\n        myAddressToContractAddressMap[publicAddress]=myContractAddress;\r\n        SampleNode memory registeringNode= SampleNode(publicAddress,myContractAddress);\r\n        sampleNodesMap[name]=registeringNode;\r\n        return;\r\n    }\r\n\r\n//Get node contract object using the name \r\n    function getContractAddressByName(string memory name) public view returns(SampleNode memory){\r\n        SampleNode memory new_node= sampleNodesMap[name];\r\n        return new_node;\r\n    }\r\n//Get contractAddress using the publicAddress\r\n    function getContractAddressByPublicAddress(address publicAddress) public view returns(address ){\r\n        return myAddressToContractAddressMap[publicAddress];\r\n    }\r\n\r\n//! Access public contract as a share holder --------------------------------------------------------\r\n\r\n//Check there are any requests to add me as a share holder\r\n    function checkRequestsByShareholder(address holderAddress)public view returns(address[] memory ) {\r\n        uint256 tot = getSecretOwnerAddressesCountInHolderRequests(holderAddress); // write a method named getSecretOwnerAddressesCount() to get secretOwnerAddresses count\r\n        uint256 count = 0;\r\n        address[] memory  _secretOwnerAddress= new address[](tot);\r\n        for (uint256 i = 0; i<holderRequests.length; i++){\r\n            Request memory request= holderRequests[i];\r\n            if (request.shareHolder==holderAddress){\r\n            _secretOwnerAddress[count] = request.secretOwner;\r\n            count = count + 1;\r\n            }\r\n\r\n        }\r\n     return _secretOwnerAddress;\r\n    }\r\n\r\n    function getSecretOwnerAddressesCountInHolderRequests(address holderAddress)public view returns(uint256) {\r\n        uint256  count = 0;\r\n        uint256 i = 0;\r\n        for (i; i<holderRequests.length; i++){\r\n            Request memory request= holderRequests[i];\r\n            if (request.shareHolder==holderAddress){\r\n                count = count + 1;\r\n            }\r\n\r\n        }\r\n        return count;\r\n    }\r\n\r\n//Check there is someone asking for the share from me \r\n    function checkRequestsForTheSeceret(address[]memory secretOwners)public view returns(address[] memory ) {\r\n        uint256 tot = getSecretOwnerAddressesCountInSecretRequests(secretOwners); // write a method named getSecretOwnerAddressesCount() to get secretOwnerAddresses count\r\n        uint256 count = 0;\r\n        address[] memory _secretOwnerAddresses = new address[](tot);\r\n    \r\n        for (uint256 i = 0; i<secretOwners.length; i++){\r\n            address  tempOwner=secretOwners[i];\r\n            for (uint256 j = 0; j<secretRequests.length; j++){\r\n                ShareRequest memory tempSecretRequest=secretRequests[j];\r\n                if (tempSecretRequest.ownerAddress==tempOwner){\r\n                    _secretOwnerAddresses[count] = tempOwner;\r\n                    count = count + 1;\r\n                }\r\n\r\n            }\r\n\r\n        }\r\n     return _secretOwnerAddresses;\r\n    }\r\n    \r\n\r\n    function getSecretOwnerAddressesCountInSecretRequests(address[]memory secretOwners)public view returns(uint256) {\r\n        uint256  count = 0;\r\n        for (uint256 i = 0; i<secretOwners.length; i++){\r\n           address  tempOwner =secretOwners[i];\r\n            for (uint256 j = 0; j<secretRequests.length; j++){\r\n                ShareRequest memory tempSecretRequest=secretRequests[j];\r\n                if (tempSecretRequest.ownerAddress==tempOwner){\r\n                    count = count + 1;\r\n                }\r\n\r\n            }\r\n\r\n        }\r\n        return count;\r\n    }\r\n//Give my release to the public \r\n    function releaseTheSecret(address secretOwner,string memory sharedString)public {\r\n         for (uint256 i = 0; i<secretRequests.length; i++){\r\n            ShareRequest memory tempSecretRequest=secretRequests[i];\r\n            if(tempSecretRequest.ownerAddress==secretOwner){\r\n                address requester= tempSecretRequest.requesterAddress;\r\n                address requesterContractAddress=myAddressToContractAddressMap[requester];\r\n                Node requesterContract= Node(requesterContractAddress);\r\n                requesterContract.saveToRegeneratedShares(sharedString);\r\n            }\r\n\r\n        }\r\n    }\r\n\r\n//remove from holder request list \r\n    function removeFromHolderRequestList(uint256 index) public {\r\n        // Move the last element into the place to delete\r\n        holderRequests[index] = holderRequests[holderRequests.length - 1];\r\n        // Remove the last element\r\n        holderRequests.pop();\r\n    }\r\n//remove from holder accepted list \r\n    function removeFromHolderAcceptedList(uint256 index) public {\r\n        // Move the last element into the place to delete\r\n        acceptedShareHolderRequests[index] = acceptedShareHolderRequests[acceptedShareHolderRequests.length - 1];\r\n        // Remove the last element\r\n        acceptedShareHolderRequests.pop();\r\n    }\r\n//remove from holder rejected list \r\n    function removeFromHolderRejectedList(uint256 index) public {\r\n        // Move the last element into the place to delete\r\n        rejectedShareHolderRequests[index] = rejectedShareHolderRequests[rejectedShareHolderRequests.length - 1];\r\n        // Remove the last element\r\n        rejectedShareHolderRequests.pop();\r\n    }\r\n\r\n//Respond to be the share holder \r\n    function respondToBeShareHolder(address shareHolder,address secretOwner,bool  acceptance)public {\r\n        uint256 i = 0;\r\n        for (i; i<holderRequests.length; i++){\r\n            Request memory request= holderRequests[i];\r\n            if (request.shareHolder==shareHolder && request.secretOwner==secretOwner){\r\n                removeFromHolderRequestList(i);\r\n                if (acceptance){\r\n                    acceptedShareHolderRequests.push(request);\r\n                }else{\r\n                    rejectedShareHolderRequests.push(request);\r\n                }\r\n            }\r\n        }\r\n    }\r\n\r\n\r\n\r\n\r\n//Access as a secret owner ----------------------------------------------------------------------\r\n\r\n//Make a request to add a node as a share holder\r\n    function makeARequestToBeAShareHolder(address secretOwner,address holder)public {\r\n        Request memory new_request= Request(secretOwner,holder);\r\n        holderRequests.push(new_request);\r\n\r\n\r\n }\r\n//get the count of the accepted holders list \r\n    function getSecretHolderAddressesCountInAcceptedHoldersList(address ownerAddress)public view returns(uint256) {\r\n        uint256  count = 0;\r\n        uint256 i = 0;\r\n        for (i; i<acceptedShareHolderRequests.length; i++){\r\n            Request memory request= acceptedShareHolderRequests[i];\r\n            if (request.secretOwner==ownerAddress){\r\n                count = count + 1;\r\n            }\r\n\r\n        }\r\n        return count;\r\n    }\r\n\r\n//get the be holder request accepted holders list \r\n    function getRequestAcceptedHoldersList(address secretOwner)public returns(address[] memory) {\r\n        uint256 tot = getSecretHolderAddressesCountInAcceptedHoldersList(secretOwner); // write a method named getSecretOwnerAddressesCount() to get secretOwnerAddresses count\r\n        uint256 count = 0;\r\n        address[] memory _shareHolderAddresses = new address[](tot);\r\n        \r\n\r\n        for (uint256 i = 0; i<acceptedShareHolderRequests.length; i++){\r\n            Request memory request= acceptedShareHolderRequests[i];\r\n            if (request.secretOwner==secretOwner){\r\n                removeFromHolderAcceptedList(i);\r\n                _shareHolderAddresses[count] = request.shareHolder;\r\n                count = count + 1;\r\n            }\r\n\r\n        }\r\n     return _shareHolderAddresses;\r\n    }\r\n    //get the count of the accepted holders list \r\n    function getSecretHolderAddressesCountInRejectedHoldersList(address ownerAddress)public view returns(uint256) {\r\n        uint256  count = 0;\r\n        uint256 i = 0;\r\n        for (i; i<rejectedShareHolderRequests.length; i++){\r\n            Request memory request= rejectedShareHolderRequests[i];\r\n            if (request.secretOwner==ownerAddress){\r\n                count = count + 1;\r\n            }\r\n\r\n        }\r\n        return count;\r\n    }\r\n    //get the be holder request rejected holders list \r\n    function getRequestRejectedHoldersList(address secretOwner)public returns(address[] memory) {\r\n        uint256 tot = getSecretHolderAddressesCountInRejectedHoldersList(secretOwner); // write a method named getSecretOwnerAddressesCount() to get secretOwnerAddresses count\r\n        uint256 count = 0;\r\n        address[] memory _shareHolderAddresses = new address[](tot);\r\n        \r\n\r\n        for (uint256 i = 0; i<rejectedShareHolderRequests.length; i++){\r\n            Request memory request= rejectedShareHolderRequests[i];\r\n            if (request.secretOwner==secretOwner){\r\n                removeFromHolderRejectedList(i);\r\n                _shareHolderAddresses[count] = request.shareHolder;\r\n                count = count + 1;\r\n            }\r\n\r\n        }\r\n     return _shareHolderAddresses;\r\n    }\r\n\r\n// Make shares accessible to the share holders \r\n    function makeSharesAccessibleToTheHolders(address secretOwner,address holder,string memory sharedString) public{\r\n        address myContractAddress= myAddressToContractAddressMap[holder];\r\n        Node distributingNode= Node(myContractAddress);\r\n        distributingNode.takeTheSecretFromTheOwner(secretOwner,sharedString);\r\n        return;\r\n    }\r\n\r\n//Make a request that I need the shares   \r\n    function makeARequestToGetShares(string memory name,address requesterAddress)public {\r\n        SampleNode memory sampleNode= sampleNodesMap[name];\r\n        ShareRequest memory shareRequest=ShareRequest(requesterAddress,name,sampleNode.publicAddress);\r\n        secretRequests.push(shareRequest);\r\n        return;\r\n\r\n    }\r\n\r\n\r\n    \r\n}\r\n",
  "sourcePath": "F:\\Sadaru Kavisha\\Semester 7\\Fyp\\smart contract evaluation experiments\\Slither new\\contracts\\PublicContract.sol",
  "compiler": {
    "name": "solc",
    "version": "0.8.17+commit.8df45f5f.Emscripten.clang"
  },
  "schemaVersion": "3.4.11",
  "updatedAt": "2023-01-23T10:19:52.677Z",
  "devdoc": {
    "kind": "dev",
    "methods": {},
    "version": 1
  },
  "userdoc": {
    "kind": "user",
    "methods": {},
    "version": 1
  }
}